:020000040800F2
:1040000000500020614100084FAB000857AB00088A
:1040100055AB000853AB000851AB0008000000008E
:10402000000000000000000000000000F1A00008F7
:104030004DAB000800000000A1A0000819AB00086B
:10404000A9410008A9410008A9410008A9410008A8
:10405000A9410008A9410008A9410008A941000898
:10406000A9410008A9410008A94100080DAB0008BA
:10407000A9410008A9410008A9410008A941000878
:104080006DA1000861A100086DA90008A941000800
:10409000A9410008A9410008A9410008A941000858
:1040A000A941000861A90008A9410008A941000828
:1040B00049A9000855A90008A9410008A9A20008BB
:1040C00079A10008A9410008A9410008A9410008F8
:1040D000A9410008A9410008A9410008A941000818
:1040E000A9410008A9410008A941000800000000FA
:1040F00000000000000000000000000000000000C0
:0C41000000000000000000005FF8E0F18B
:1041100010B5054C237833B9044B13B10448AFF301
:1041200000800123237010BDB801002000000000B2
:10413000C8AB000808B5034B1BB103490348AFF3F4
:10414000008008BD00000000BC010020C8AB0008D2
:10415000034613F8012B002AFBD1181A01387047C7
:10416000002103E00B4B5B58435004310A480B4BD2
:1041700042189A42F6D30A4A02E00023136004323E
:10418000084B9A42F9D305F0C5FF06F0E5FC04F0B0
:10419000C1FFFEE728C1000800000020B401002094
:1041A000B80100203C150020FEE70000214B30B58F
:1041B00019464CF25035204A1468D868C00733D4E9
:1041C000DA68920644BF2022DA60CB68DD0606D4A6
:1041D000CB69DC0703D4C86810F0040023D0154A6B
:1041E000D36813F0100305D01449CB6943F00203E0
:1041F000CB611023D268500706D5104943F0040361
:10420000CA6942F00102CA610A4AD169C90708D5E0
:104210000A48C16941F00401C161D16921F001017D
:10422000D1610120D36030BD1068001BA842C4D901
:104230000320F8E700200240D014002008140020DA
:1042400015490B681A6A22F001021A621A6A1A6288
:10425000124A93420DD141F21112186A104208D14C
:1042600040F24442186A104202BF5A6C22F40042E3
:104270005A6441F21112186A104208D140F24442C5
:10428000186A104202BF1A6822F001021A60012364
:10429000002081F83D307047C0130020002C014001
:1042A000036800201A6A22F001021A621A6A42F0B8
:1042B00001021A62054A934202BF5A6C42F400425C
:1042C0005A641A6842F001021A607047002C0140DB
:1042D000144B10B5DB68C3F30223C3F107041A1DA6
:1042E000042C28BF0424062A88BFDA1E4FF0FF33AF
:1042F00098BF0022A34021EA0303002803FA02F337
:10430000A8BF00F160404FEA0313B8BF064ADBB212
:10431000B5BF00F00F0000F56140135480F8003382
:1043200010BD00BF00ED00E014ED00E090F83C305F
:10433000012B4FF0020314D080F83D3003685A6817
:1043400022F070025A605A685A609A6822F080021D
:104350009A609A689A60012380F83D30002380F8C3
:104360003C301846704700000A4B1B68013308D0E8
:104370004FF0500383F31188BFF36F8FBFF34F8F5C
:10438000FEE74FF0500383F31188BFF36F8FBFF345
:104390004F8FFEE7B001002048F2E803434364205A
:1043A000DB0B584340F23D13B0FBF3F0034B1A8A8A
:1043B000904226BF1B8AC01A00207047A414002018
:1043C000F0B55442A042059E15463ADD602838DC1F
:1043D000002800EB0207BABF4442E4B20024602F79
:1043E000C4BFC0F16002D2B241BB164F00EB040C57
:1043F0003F6806EB040E674404EB010C5FFA8CFC8B
:10440000624515D8102B1CD1102B08BF29460E4B26
:1044100018BF00211D680023214420443144284452
:10442000E518EDB2AA420CD9CD5CC5540133F7E7CB
:104430001EF801C007F801C00131DDE70829E3D00B
:10444000E0E7F0BDC0100020C4100020012808499A
:10445000084A094B06D10948086008211170062254
:104460001A70704706480860102111700C22F7E797
:10447000E00F0020DC0F0020CE10002018B500084F
:1044800068AD00080128F7B509D1134BB3F9002036
:104490003AB912490A8008221A8003B0F0BD0028F8
:1044A000FBD00F4B0C4A1C780E4B92F900101B7876
:1044B0000D4FDA0862433F68023880B200FB027099
:1044C000064D0090B5F90060224630463444FFF7AF
:1044D00077FF2C80E1E700BFCC100020CA1000203D
:1044E000CE100020DC0F0020E00F002008B5094AA4
:1044F000094B02301A601022084BC0B21A700C220D
:10450000074B1A70FFF7BEFFBDE808400020FFF719
:104510009DBF00BFA6BC0008E00F0020DC0F0020FC
:10452000CE100020F8B51A4B04460E201D78FFF778
:10453000DDFF1F20B4FBF0F0C0F10A00C0B2154B44
:1045400005F10C01C608C9B21A680AD02B4600272B
:104550006C1E1444994204D9013304F8017FDBB284
:10456000F8E7FF23602400F0070003FA00F00023BF
:1045700004FB065460F0FF002244EC18E4B2A142B0
:1045800004D9D45C0440D4540133F6E7F8BD00BF2D
:10459000CA100020C010002010B5441E14F8010FEE
:1045A00010B1FFF76FFFF9E710BD002337B50429FD
:1045B0000093CDF8033032D90A23B0FBF3F403FBA8
:1045C000140502358DF80550B4FBF3F505FB1343D4
:1045D00002338DF804306423B0FBF3F00A23B0FB00
:1045E000F3F403FB140002308DF80300A0B20A2399
:1045F000B0FBF3F403FB140002308DF80200A0B20C
:104600000A23B0FBF3F403FB140002308DF8010021
:10461000A0B209E06846FFF7BFFF03B030BDDDD0B0
:104620000329E4D00129EBD10A24B0FBF4F304FB05
:10463000130002308DF80000002AEBD000230C227A
:1046400001399942E6DD1DF803000228E2D10DF898
:1046500003200133F5E7000037B5002405460120AB
:10466000FFF7F4FE0A4B1C800A4B1C800A4B53F8E0
:104670002500FFF791FF102308481A4600EB45106C
:10468000009021464E20FFF79BFE03B030BD00BFD7
:10469000CA100020CC10002088AC000867BE0008BB
:1046A0000320FFF7D9BF0220FFF7D6BF0120FFF795
:1046B000D3BF0020FFF7D0BF054AD38B0A339BB28C
:1046C000D383D38B642B84BF0A23D383704700BF6B
:1046D000A4140020054A138C05339BB21384138C59
:1046E000322B84BF05231384704700BFA41400201D
:1046F000034A137FB3FA83F35B091377704700BF54
:10470000A414002005490B7A0A7AC3F3400383F00E
:10471000010363F341020A72704700BFA414002032
:10472000074B9A7999799209013262F3871199714D
:1047300099799A79890961F387129A71704700BF54
:10474000A41400200C4B5A7A62B140F25231DA893B
:10475000143292B2DA81DA89914202D24FF4F072C5
:10476000DA817047DA890A3292B2DA81DA89B2F5EF
:10477000E17FF6D9FA22F3E7A414002005490B7A69
:104780000A7A03F0010383F0010363F300020A7263
:10479000704700BFA4140020054B9A7A12F0010F55
:1047A0009A7A0CBF42F001026FF300029A727047CE
:1047B000A4140020044A137D402B8FBF0523137DD2
:1047C0000533DBB213757047A4140020034AD37C71
:1047D000B3FA83F35B09D374704700BFA4140020BD
:1047E00005490B7A0A7AC3F3800383F0010363F36C
:1047F00082020A72704700BFA414002005490B7A98
:104800000A7AC3F3C00383F0010363F3C3020A729D
:10481000704700BFA41400200A200A4B9A799979A6
:10482000C2F38302013262F3850199719A79C2F36E
:10483000830292FBF0F100FB11219A7961F385026A
:104840009A717047A41400202B4B5A7AB2FA82F264
:1048500052095A725A7A002A38D00520DA8902EBB6
:10486000C201A03191FBF0F189B2D981198801EB25
:10487000C101A03191FBF0F189B219805A8802EB95
:10488000C202A03292FBF0F20A2192B25A80DA8977
:10489000B2FBF1F2DA81DA8902EB8202520092B2C3
:1048A000DA811A88B2FBF1F21A801A8802EB8202CE
:1048B000520092B21A805A88B2FBF1F25A805A889A
:1048C00002EB8202520092B25A8070470920DA89C4
:1048D000203A02EB820191FBF0F189B2D98119886B
:1048E000203901EB810191FBF0F189B219805A88DE
:1048F000203A02EB8202C5E7A4140020084BDA79C3
:104900000132D2B2DA71DA793C2A84BF0022DA713C
:10491000044A1278032A04BF0022DA71704700BFEC
:10492000A414002014090020084B1A790132D2B2D5
:104930001A711A790F2A84BF00221A71044A127858
:10494000032A04BF00221A71704700BFA41400207C
:10495000140900200B4B5A7A52B15A88143292B281
:104960005A805A88B2F5117F01D978225A8070474F
:104970005A880A3292B25A805A88B2F5967FF6D98E
:104980003222F3E7A4140020052207494B790133B2
:1049900093FBF2F202EB82029B1ADBB24B714B7972
:1049A0000BB10023CB747047A4140020002814BF5F
:1049B00010201120FFF79ABD054B1B785843054B7B
:1049C0001880054B1B785943044B1980704700BF72
:1049D000CE100020CA100020DC0F0020CC100020D8
:1049E00038B5054600200C46FFF730FD002108468B
:1049F000FFF7E2FF094B53F83500FFF7CDFD00202C
:104A0000FFF724FD002120B2FFF7D6FF044A1388E8
:104A1000023B13800022034B1A8038BD98AC00087B
:104A2000CA100020CC10002005210E20FFF7D8BFAF
:104A300008B505211920FFF7D3FF044B0122D88BBD
:104A40000321BDE80840FFF7B0BD00BFA41400205B
:104A500008B505211820FFF7C3FF044B0122188C6D
:104A60000321BDE80840FFF7A0BD00BFA41400204B
:104A700008B517200721FFF7B3FF044B187FBDE8E7
:104A80000840003018BF0120FFF790BFA414002099
:104A900005210C20FFF7A4BF07210D20FFF7A0BFC1
:104AA00008B50B200721FFF79BFF044B187ABDE8E0
:104AB0000840C0F34000FFF779BF00BFA4140020F6
:104AC00008B507210A20FFF78BFF094B9B799B094B
:104AD000022B08D009D8012B14BF06480648BDE8B0
:104AE0000840FFF759BD0548F9E70548F7E700BF5B
:104AF000A4140020C6BF0008CFC00008C8BF00082B
:104B0000A2C0000808B505210920FFF769FF044B82
:104B10000122D8890321BDE80840FFF746BD00BF48
:104B2000A414002008B508200721FFF759FF044B03
:104B3000187ABDE8084000F00100FFF737BF00BF5A
:104B4000A4140020072108B50846FFF749FF084BC9
:104B50009B7903F00303012B06D0022B06D00548F6
:104B6000BDE80840FFF718BD0348F9E70348F7E739
:104B7000A4140020C2BF0008A9C00008C4BF0008D8
:104B800008B510200721FFF72BFF064B06489B7A3C
:104B900013F0010F054B08BF1846BDE80840FFF7AA
:104BA000FBBC00BFA4140020C6BF0008C8BF00089B
:104BB00008B505211620FFF713FF054B0122187DCC
:104BC0000221FFF7F2FCBDE808400248FFF7E4BC11
:104BD000A4140020B5C0000808B515200721FFF770
:104BE000FFFE044BD87CBDE80840003018BF012010
:104BF000FFF7DCBEA414002008B506200721FFF74C
:104C0000EFFE044B187ABDE80840C0F38000FFF7C0
:104C1000CDBE00BFA414002008B50F200721FFF768
:104C2000DFFE044B187ABDE80840C0F3C000FFF770
:104C3000BDBE00BFA414002008B507210420FFF763
:104C4000CFFE054B002298790121BDE80840C0F352
:104C50008300FFF7AABC00BFA414002008B50520FC
:104C60000721FFF7BDFE064B064A587A064B00287F
:104C700014BF10461846BDE80840FFF78DBC00BFC2
:104C8000A4140020C6BF000830C0000808B50521E4
:104C90000320FFF7A5FE074BDA7922B90648BDE8E5
:104CA0000840FFF779BCD87901220221FFF77DFC8B
:104CB0000248F4E7A4140020F7B70008C1C00008B8
:104CC00008B505210220FFF78BFE0E4B1A7922B999
:104CD0000D48BDE80840FFF75FBC1A791879052A2E
:104CE00008D8012200EB800090400221FFF75DFC14
:104CF0000648EEE7053880B201220221FFF755FC95
:104D00000348E6E7A4140020F7B70008C8BF00086E
:104D1000C1C0000808B505210120FFF761FE044B62
:104D2000012258880321BDE80840FFF73EBC00BFC0
:104D3000A414002008B506210020FFF751FE084BFF
:104D40005A7952B10122587911460230FFF72DFCF1
:104D50000448BDE80840FFF71FBC0348F9E700BF5F
:104D6000A4140020C8BF0008BFBF000870B5214AC6
:104D70009368926883F4007312F0400F0CBF022214
:104D80000022C3F340231A43D3B21AB11A4A11685E
:104D90001A4A11601A4A107898420ED133B3164A53
:104DA000184912680968521A282A1FD9012B1FD0E6
:104DB000022B14BF0020082070BD0F4D114C3BB1D9
:104DC000032808BF0323002013702B682360F3E738
:104DD00029682668891B272906D80128F4D00228CB
:104DE0000CBF02201020EFE71846EDE70020E3E7B4
:104DF0000420E1E7000801403415002000140020E1
:104E000020110020241100201FB50020194B1B6821
:104E1000DA6BADF800201A6CADF802205A6C9B6C6E
:104E2000ADF80420ADF80630134B1B68DA6BADF813
:104E300008201A6CADF80A205A6C9B6CADF80C2057
:104E4000ADF80E3003463DF8132001331044082B13
:104E500080B2F8D1094A137D116932F8134022F863
:104E60001300091B0133014403F00703116113759B
:104E700004B010BDB4110020E411002088140020FB
:104E8000037F082B01D1FFF7DBB970474FF05003C8
:104E900083F31188BFF36F8FBFF34F8FFEE70000DE
:104EA000054B1B6833B1054B1B68002B0CBF022060
:104EB000002070470120704730150020DC140020CE
:104EC000064A13681968064B19B94FF0FF321A6089
:104ED00070471268D268D2685268F8E73014002030
:104EE0001415002008B9064B1868026B1346981A6F
:104EF00013F8011BA529FAD0C0F38F00704700BF3B
:104F00002C1400204FF080554AF6AA220648074C80
:104F100007490368012B04D92560BFF34F8FBFF306
:104F20006F8F0B681A60F4E73814002004ED00E07E
:104F300034130020EFF305830F2B0ED9104A9B5C2E
:104F4000104A12789A4208D94FF0500383F311881F
:104F5000BFF36F8FBFF34F8FFEE70B4B0B4A1B68FE
:104F6000126803F4E063934208D94FF0500383F3CF
:104F70001188BFF36F8FBFF34F8FFEE7704700BFFD
:104F8000F0E300E0C81400200CED00E0CC14002099
:104F9000084A136843B94FF0500383F31188BFF3F5
:104FA0006F8FBFF34F8FFEE7013B13600BB983F3A5
:104FB00011887047B001002008B54FF0500383F30B
:104FC0001188BFF36F8FBFF34F8F074A1368013308
:104FD000012B136006D1054B1B6813F0FF0F01D0A6
:104FE000FFF754FF08BD00BFB001002004ED00E052
:104FF000F8B5FFF7E1FF0D4C0D4A05681668236808
:105000009D42456801D0AE420ED20B68771B9F428D
:105010000AD29B1B2B440B60236803601368436018
:105020000020FFF7B5FFF8BD0120FAE718150020B2
:105030003415002006480068006880F3088862B6CE
:1050400061B6BFF34F8FBFF36F8F00DF00BF00006B
:1050500008ED00E00369D0E901128A6082685160BE
:105060005968814208BF5A600022026118680138FD
:10507000186070470A6830B5531C0AD103695A6832
:105080004A6091608B605960036808610133036076
:1050900030BD00F108035C6825689542EFD82346CF
:1050A000F9E7000070B5154B154E1C6805463068D1
:1050B0000430FFF7CFFF334640B931681148CE6A5C
:1050C00001210268B14022EA010202601A686419F3
:1050D000546007D3BDE870400B4A1068196804316A
:1050E000FFF7C8BF094A106819680431FFF7C2FF0B
:1050F000074B1A68944238BF1C6070BD34150020FD
:105100002C140020E414002034140020301400205B
:105110001415002010B50C46044B19681831FFF720
:10512000A9FF2046BDE81040FFF7BCBF2C140020AB
:1051300043689A684B608A609A6851609960036816
:10514000086101330360704738B5C368DC6844B94F
:105150004FF0500383F31188BFF36F8FBFF34F8F6E
:10516000FEE704F118052846FFF774FF114B1B6892
:10517000E3B9251D2846FFF76DFF01230E49E26ABA
:1051800008689340034314200B6029460B4B00FB37
:105190000230FFF7CDFF0A4BE26A1B68DB6A9A42D6
:1051A00085BF0120074B0020186038BD29460648FE
:1051B000EFE700BFDC140020E414002038140020C6
:1051C0002C140020381500201C150020202210B5BA
:1051D000214B1B6883F83D20204B1868002835D0F0
:1051E000036C43B14FF0500383F31188BFF36F8F0B
:1051F000BFF34F8FFEE7036853B9436843B14FF0E5
:10520000500383F31188BFF36F8FBFF34F8FFEE717
:10521000FFF790FEEFF311844FF0500383F31188F2
:10522000BFF36F8FBFF34F8F826BC36B9A420BD26A
:1052300090F8453001325BB282635A1C07D1436A51
:1052400013B12430FFF780FF84F3118810BD0133C0
:105250005BB280F84530F7E71C110020D010002029
:105260002DE9F0410446FFF7A7FE4FF0010890F842
:1052700045501B4F6DB200F12406002D17DCFF23B3
:105280004FF0010884F84530FFF782FEFFF794FEE7
:1052900094F84450124F6DB204F11006002D12DC48
:1052A000FF2384F84430BDE8F041FFF771BE636A24
:1052B000002BE4D03046FFF747FF08B1C7F8008065
:1052C000013D6DB2D9E72369002BE9D03046FFF7E5
:1052D0003BFF08B1C7F80080013D6DB2DEE700BFBB
:1052E000381500202DE9F84F3C4B1B68002B6ED180
:1052F0003B4B1C6801341C60BCB93A4B1A681268FD
:1053000042B14FF0500383F31188BFF36F8FBFF3A7
:105310004F8FFEE7344A1968106818601160334AED
:10532000136801331360FFF7CBFD314D4FF0000BD5
:105330002B68304FA34211D93A682F4BD16A1422FF
:105340004A439A58022A28BF4FF0010B2B4A126891
:10535000002A0CBF58460120BDE8F88FDFF884A072
:10536000DFF8A090DAF8002012681AB94FF0FF3287
:105370002A60E1E7DAF80020D268D66871688C42CA
:1053800001D22960D8E706F104084046FFF762FE23
:10539000B16A19B106F11800FFF75CFE01224FF067
:1053A000140CF06AD9F8003002FA00F11943124BDC
:1053B000C9F800100CFB00304146FFF7B9FE386811
:1053C000F16AC26A914228BF4FF0010BCAE70C4A4A
:1053D0004FF0000B136801331360B7E7DC140020B3
:1053E000341500203014002034140020181500203B
:1053F000141500202C14002038140020381500202B
:10540000D8140020E414002031492DE9F8430B683A
:1054100043B94FF0500383F31188BFF36F8FBFF38D
:105420004F8FFEE7FFF7C8FD0B68013B0B600C6870
:1054300024B10020FFF7ACFDBDE8F883254B1B68C5
:10544000002BF6D0244D254EDFF8A4801FE0EB683A
:105450000127DC6804F1040904F11800FFF7FAFDE4
:105460004846FFF7F7FD1420E26A316807FA02F3B5
:105470000B4300FB028049463360FFF759FE184B8F
:10548000E26A1B68DB6A9A4201D3164B1F602B68E5
:10549000002BDCD10CB1FFF713FD134D2C6844B188
:1054A0000127104EFFF71EFF00B13760013CF9D114
:1054B0002C600C4B1B68002BBBD04FF080520B4B69
:1054C0001A60BFF34F8FBFF36F8F0120B2E700BFA9
:1054D000DC140020D41400201C150020E41400204B
:1054E0002C14002038150020D814002004ED00E012
:1054F0003814002008B540B94FF080520A4B1A60AA
:10550000BFF34F8FBFF36F8F08BD084B1A680AB106
:10551000FFF7BCFC1A6801321A60FFF7C3FDFFF702
:1055200073FF0028E8D0EFE704ED00E0DC14002072
:105530000520FFF7DFBF000070B50D4C256805445E
:10554000FFF714FC064656B1FFF710FC0646FFF7BE
:10555000EFFF23689D42F6D270BD002EFCD1FFF70D
:1055600005FC0646FFF7E4FF23689D42F5D2F3E70A
:1055700034150020064B03EB400000231A4630F898
:1055800023100133202B0A44F9D1C2F38F00704756
:10559000D40100202DE9F843174D04462E788946A2
:1055A000DFF85C8056B100270120FFF7E3FF48F8E1
:1055B00027000137202FF7D1013E2E70B9F1000FDF
:1055C0000AD00120FFF7D6FF0C4A137848F82300D1
:1055D000013303F01F0313700022134658F8221002
:1055E0000132202A0B44F9D158098000B0FBF4F0B5
:1055F00080B2BDE8F88300BF6401002028110020BC
:105600002C11002010B50E4B041E988903DCFFF707
:10561000C1FF002010BDFFF7BDFF55234043B0FB85
:10562000F3F04FF48873C0EB0020B0FBF3F0C4EB51
:105630000424B4FBF0F0FF2828BFFF20C0B2E9E744
:10564000A414002010B50121FFF7DCFF0A22114B42
:1056500004461A80104B00211870104B9889FFF7F0
:1056600099FF55234043B0FBF3F04FF48873C0EB30
:105670000020B0FBF3F0FF234443B4FBF3F4E82332
:10568000074A11684B43182101FB0434240A1460B3
:1056900010BD00BF780B002028140020A4140020A7
:1056A000E814002010B50E4B5A79B2B15C79002194
:1056B0009889FFF76FFFE4B20234E4B290FBF4F094
:1056C0002128B8BF21202138092828BF092004300B
:1056D000C0B2BDE81040FEF709BF0F20F9E700BFD8
:1056E000A414002070B50D4B00219889FFF752FFDC
:1056F0000A25B0FBF5F4064601220221A0B2FEF70E
:1057000054FF0748FEF748FF012205FB1460BDE87F
:105710007040114680B2FEF748BF00BFA4140020BD
:1057200060BA000808B50020FFF724FFA0F59B53DE
:105730006420053B584340F2E13390FBF3F080B224
:1057400008BD000010B5114B1869082390FBF3F059
:1057500080B2FEF721FE40F2951303FB00F4FFF741
:10576000E1FF0A23B0FBF3F0052380B200EBC00099
:10577000B0FBF3F04FF47A73B4FBF3F3322203EB94
:10578000C303B3FBF2F31844403010BD881400206B
:1057900010B547F66F60FEF7FFFD40F295144443E5
:1057A000FFF7C0FF0A23B0FBF3F042F21073B4FB23
:1057B000F3F480B22044013810BD000010B590B160
:1057C000FFF722FBFEF7E8FD40F295144443FFF794
:1057D000A9FF0A23B0FBF3F042F21073B4FBF3F419
:1057E00080B2204410BD034B1869082390FBF3F0EE
:1057F00080B2E7E78814002038B5164C0546637A76
:1058000003F0FF00B3B1FFF79DFF80B20122032137
:10581000FEF7CBFEE5B1104B104A1B6893420ED049
:105820000F4A93420BD0637A3BB10020BDE8384069
:10583000FEF75CBEFFF7C2FFE7E70120F6E7637AF9
:1058400023B10848BDE83840FEF7A6BE0648F9E790
:1058500038BD00BFA4140020E00F002018B50008D8
:10586000A6BC0008C6BF000830C00008064B186977
:1058700010F0800007D0054A5A6002F188325A6061
:105880001869C0F3C010704700200240230167452B
:1058900070B40425C66B026C3468036895402542D9
:1058A000196832D04D0730D51A6896065EBF1A685F
:1058B00022F004021A603E4A934219D014329342F5
:1058C00018D01432934217D01432934217D01432A6
:1058D000934217D0143293420CBF4FF480034FF021
:1058E0008063344A5360C36A002B5ED070BC184793
:1058F0000423F6E74023F4E74FF48063F1E74FF425
:105900008043EEE74FF48023EBE7022595402542E4
:1059100035D08D0733D51A68940606D41A6822F05C
:105920000A021A60012280F82120214A934219D0EC
:105930001432934218D01432934217D01432934247
:1059400017D01432934217D0143293420CBF4FF445
:1059500000134FF00073174A5360002380F8203083
:10596000836AC1E70223F6E72023F4E74FF40073CC
:10597000F1E74FF40053EEE74FF40033EBE708256F
:105980009540254211D009070FD5196821F00E0165
:105990001960012303FA02F27260836380F82130F8
:1059A000002380F82030036B9EE770BC704700BF77
:1059B0000800024000000240F0B590F82040012CA1
:1059C00035D0012490F8215080F82040A5424FF0B6
:1059D00000064FF0020428D180F821400468866355
:1059E000266826F001062660D0E90F67BD40756085
:1059F000636043680568102BC36A0BBFA260A16097
:105A0000E160E2604BB1236843F00E0300202360A5
:105A10002B6843F001032B60F0BD236823F00403DF
:105A20002360236843F00A03F0E780F82060022037
:105A3000F2E7436A9A6A42F040029A62DA6A42F0F6
:105A40000402DA6270477047436A9A6A12F0500F94
:105A500018D19A6A42F400729A621A68926802F443
:105A60006022B2F5602F10D1DA6872B99A6A22F416
:105A700080729A629A6AD20407D49A6A42F001024A
:105A80009A6270471B6A1B6B18477047036810B512
:105A90009A68D40701D4002010BD9A6822F0010250
:105AA0009A60094A14689968C907F4D51168091BF6
:105AB0000229F8D9836A43F010038362C36A43F072
:105AC0000103C3620120E7E7D0140020002337B5AB
:105AD000026801939368DB0702D5002003B030BD54
:105AE0009368124943F001039360114B1B68B3FBA9
:105AF000F1F30193019BABB90E490D68936813F064
:105B00000103EAD10C68641B022CF7D9826A80F881
:105B1000243042F010028262C26A42F00102C26284
:105B20000120DBE7019B013BE3E700BF40420F00A0
:105B300034000020D014002070B50568124E6B6947
:105B400013F0400301D000200EE06C6914F0100443
:105B50000BD06FF010026A612022036480F83C30A1
:105B6000036380F83D20012070BD33689B1A8B428F
:105B7000E5D9036C80F83C4043F020030364202304
:105B800080F83D300320EFE7D014002070B50568A1
:105B9000134E6B6913F0040301D000201FE06C6901
:105BA00014F480640FD133689B1A8B42F1D9036CD3
:105BB00080F83C4043F0200303642023046380F812
:105BC0003D3003200BE06FF480626A6104220264BE
:105BD0002022036380F83C3080F83D20012070BD16
:105BE000D014002070B50568134E6B6913F0800364
:105BF00001D000201FE06C6914F480640FD1336879
:105C00009B1A8B42F1D9036C80F83C4043F020038F
:105C100003642023046380F83D3003200BE06FF41D
:105C200080626A61042202642022036380F83C30AF
:105C300080F83D20012070BDD0140020F0B505682B
:105C4000144F89B26C6931EA040401D1204614E092
:105C50006C6914F4806411D02B68202243F4007323
:105C60002B606FF480636B61042303640023036380
:105C700080F83C3080F83D200120F0BD3E68F61AE7
:105C80009642DFD92023046380F83C4080F83D3001
:105C90000320F2E7D0140020F0B5DFF844C0056817
:105CA0000F0C89B2012F0CBF6C69AC6931EA040496
:105CB0000CBF01240024A24201D000200FE0DCF838
:105CC0000040059EA41B9C42ECD9002320220363C4
:105CD00080F83C3080F83D2080F83E300320F0BD55
:105CE000D0140020436A1A68116821F480611160A1
:105CF0000021586B59854163986B416393F83D00CF
:105D000060284FF0200083F83D0083F83E1006D154
:105D10001964136823F001031360FFF757BA13687F
:105D200023F00103136000BEF7E7000010B590F800
:105D30002130022B03D004238363012010BD0368AC
:105D40001A6822F00E021A601A6822F001021A6024
:105D5000194A934220D0143293421FD014329342F6
:105D60001ED0143293421ED0143293421ED01432ED
:105D700093420CBF4FF480134FF080730F4A0024FE
:105D80005360012380F82130436B80F8204083B1B9
:105D9000FFF7A8FF2046D1E70123EFE71023EDE747
:105DA0004FF48073EAE74FF48053E7E74FF4803312
:105DB000E4E71846C2E700BF0800024000000240C6
:105DC00010B5444C94F83D202368293A012A36D86E
:105DD00000222263282284F83D201A6822F40062FF
:105DE0001A605A6812F4006251D05A6822F40062B4
:105DF0005A60606B90F82130012B374B2ED04363F3
:105E0000FFF794FF50B12268136823F00103136079
:105E10002023606B84F83D30436B984794F83D3005
:105E2000282B0BD1236C5B0708D52C4B2022E36277
:105E30000023236384F83D2084F83E3010BD94F89D
:105E40003D20602A05D05A6812055CBF202284F8E4
:105E50003D200022226384F83E20BEE7A06B43630E
:105E6000FFF764FF0028D9D023685A69500604D58B
:105E70001A69636A591C61621A702268136823F0F8
:105E8000010313602023A06B84F83D30C4E794F82D
:105E90003D10602913D1202184F83D1022645A69F5
:105EA000510604D51A69636A591C61621A70226826
:105EB000136823F001031360FFF788F9AEE75A690E
:105EC000520604D51A69636A591C61621A7000BED1
:105ED000F2E700BFE0120020E55C00080000FFFFD1
:105EE000436A19680A6822F480620A60002220214D
:105EF0005A8583F83D1083F83E201A6C42F0100258
:105F00001A6400BEFFF762B9426A92F83D1092F837
:105F10003E00C9B22129C0B2136803D022290CD196
:105F200020280AD1596821F4006159600021518567
:105F30005A6842F440725A607047196821F48061CF
:105F40001960196841F400711960596821F4805191
:105F50005960596821F40061596000235385136C1E
:105F600013B100BEFFF732B9202182F83D1092F83C
:105F70003E1082F83E30F5E7012310B580F824305A
:105F80000446FFF7A3FD00283FD1A36A214A23F46A
:105F9000405323F0010343F48053A36223689342E8
:105FA00005D1A2F58062526812F4702F25D1A26A41
:105FB00022F48012A262A26A12F4807208BFE26226
:105FC000002284F824206FF004021A605A685205F7
:105FD00012D49A6802F4E042B2F5E04F11D10D4AB2
:105FE000934205D1A2F58062526812F4702F08D155
:105FF0009A6842F402129A6010BDA26A42F48012BA
:10600000D8E79A6842F40042F5E7002384F8243088
:10601000F2E700BF00280140F7B50246002092F8E1
:1060200024300190012B00F0D1800127D2F808C064
:1060300082F82470D1E900561368BCF1000F7AD1C0
:10604000BE4272D160469C6BA40DA40544EAC534DF
:106050009C639C68E40707D49C68CF6924F4E044FF
:1060600024F001043C439C608C69012C0DD1CF6964
:10607000B7F5E04F17BF906A5F6840F0200090626C
:1060800012BF204647F480675F604F69012F05D13A
:10609000002C70D15C6844F480545C60092D05EBE1
:1060A0004504D1F808E04FF007076AD9D3F80CC0CF
:1060B0001E3CA7402CEA07070EFA04F43C43DC60C0
:1060C000A5F11004012C98BF9F68DFF810C19CBF98
:1060D00047F400079F60022ECF685CD0032E60D08B
:1060E000012E64D1596901EA0C0139435961012C2F
:1060F00016D837498B4263D19968090210D4996840
:10610000102D41F4000199600AD1324B32491B68CD
:10611000B3FBF1F10A234B430193019B002B4CD1BC
:10612000002382F8243003B0F0BD946A384644F06E
:10613000200494628DE71F27D1F810C0A6EB0C0451
:1061400004EB84040F34A74047F44017B4456FEACA
:1061500007070CD3D3F838E00CF1FF3C05FA04F440
:1061600044EA0C540EEA07073C439C6371E79C6BBE
:1061700027409F636DE7906A40F0200090623846A8
:106180008CE7D3F810C0A7402CEA07070EFA04F4F6
:1061900027431F6194E7996901EA0C01394399612A
:1061A000A5E7D96901EA0C013943D9619FE7196A6A
:1061B00001EA0C013943196299E7019B013BABE706
:1061C000936A012043F020039362A9E70220AAE723
:1061D000002401403400002040420F0000F0FFFF87
:1061E000002337B5019390F824300446012B5FD08B
:1061F000012380F82430FFF749FC0546002839D1F7
:10620000A36A2C4823F4885323F0020343F00203CB
:10621000A362294B1A68294B59685B68C1F3C221F4
:10622000415CC3F38133013322FA01F15B00B1FB1E
:10623000F3F3B2FBF3F252000192019BF3B9204653
:10624000FFF744FC23689A6842F008029A601C4AEF
:1062500010689968090715D4996841F0040199609C
:106260001068996849071ED4A36A23F0030343F01A
:106270000103A362002384F8243011E0019B013B59
:106280000193DAE71168091A0A29E2D9A36A0125FC
:1062900023F0120343F01003A362002384F8243098
:1062A000284603B030BD1168091A0A29D9D9EDE78B
:1062B0000225F5E754AC000834000020001002402D
:1062C000D0140020034B013019681A68521A824218
:1062D000FBD37047D01400202DE9F0474AF6AA24DA
:1062E0002D4E2E4D33681C603523EB60FFF7BEFA50
:1062F0000A20FFF7E7FF33681C60294C237E012B3F
:1063000017D001232376FDF751FF80B9E0612B6997
:1063100043F002032B61234B6B612B6943F0400375
:106320002B61FDF743FF2B6923F002032B61002350
:106330002376FFF79BFA1B4DDFF86C90174FDFF8C1
:106340006C804AF6AA2233681A6005F17843A3F5F7
:106350007C4339F803A0237E012B13D0012323763D
:10636000FDF724FF60B9E0613B6943F001033B6145
:10637000A5F800A0FDF71AFF3B6923F001033B617C
:106380000023237602354545DBD1044A136943F0E7
:1063900080031361BDE8F087341300200020024021
:1063A0000814002000FC0008A414002024FC0008AD
:1063B0001A4A036890420AD0B0F1804F07D0A2F584
:1063C0009432904203D002F58062904215D14A681F
:1063D00023F070031343114A90420AD0B0F1804F6A
:1063E00007D0A2F59432904203D002F58062904229
:1063F00003D1CA6823F4407313434A6923F080032E
:10640000134303608B68C3620B688362034B98423B
:1064100004BF0B690363012343617047002C0140F3
:1064200013B590F83D30044603F0FF0200687BB9D5
:10643000144B84F83C20984216D103F50333DA69F3
:1064400042F00202DA61DB6903F002030093009B71
:106450000223211D84F83D30FFF7AAFF012300200D
:1064600084F83D3002B010BDB0F1804FF0D1064B42
:10647000DA6942F00102DA61DB6903F0010301939A
:10648000019BE5E7000400400010024013B519200D
:106490000021FDF71DFF4FF000721C4B1C4C1A60D1
:1064A0001C4B20469A6942F400629A619A6902F490
:1064B00000620192019A5A685A685A685A68164AE4
:1064C00012685B68154AC3F3C223D25C144B1B6885
:1064D000D340144AB3FBF2F3134A013B22606360DA
:1064E00040F2E7320023E2602361A360FFF798FFE8
:1064F00050B92368DA6842F00102DA601A6842F0A3
:1065000001021A6002B010BD0120FBE700E100E0CB
:1065100040130020001002400020024054AC00084C
:106520003400002040420F00002C014010B50368E9
:1065300004461A6991070ED5DA6892070BD56FF0F9
:1065400002021A61012202779B699B0701D1FEF7C3
:1065500097FC0023237723681A69500710D5DA685F
:1065600051070DD56FF004021A61022222779B6950
:1065700013F4407F02D12046FEF782FC00232377EC
:1065800023681A6912070FD5DA6810070CD56FF067
:1065900008021A6104222277DB69990702D120469A
:1065A000FEF76EFC0023237723681A69D20610D504
:1065B000DA68D0060DD56FF010021A610822227732
:1065C000DB6913F4407F02D12046FEF759FC00231B
:1065D000237723681A69D1071CD5DA68D20719D541
:1065E0006FF001021A612368B3F1804F34D11E4A63
:1065F0001E4913880968013B9BB213801C4B1B7812
:10660000DBB20B640B6C23B313889BB20BB319483A
:10661000FDF746FE23681A69100605D5DA681106EB
:1066200044BF6FF080021A6123681A69520605D5CB
:10663000DA68500644BF6FF040021A6123681A6995
:10664000910605D5DA68920644BF6FF020021A6100
:1066500010BDFDF7F5FDDDE7074A934201BF074A8C
:10666000136801331360D5E7780B002080130020F6
:1066700028140020C0130020002C0140D01400205A
:1066800010B590F83D30044603F0FF020BB980F8D6
:106690003C200223206884F83D30211DFFF788FE4E
:1066A0000123002084F83D3010BD00002DE9F74F94
:1066B00000221646654BDFF8A4C1DFF8A4E14FF0D5
:1066C00001080C6808FA06F808EA0404A0457ED11F
:1066D0004D68122D00F0AE8000F28780022D00F090
:1066E000A6807BD8002D00F08D80012D00F09D80CC
:1066F0004FF00F09FF2C93BF824606F18045083DFD
:10670000D0F800B092BFB500D0F804B0AD0009FADF
:1067100005F82BEA080802FA05F588BF00F1040A1B
:1067200048EA0505CAF80050D1F804A01AF0805FC5
:106730004DD0474F26F00308BD6908F1804845F069
:106740000105BD61BD6908F5803805F001050195B9
:1067500006F0030B019D4FEA8B0BD8F8085009FA9D
:106760000BF925EA09093B4DA84268D005F580657B
:10677000A84266D005F58065A84264D005F580651D
:10678000A8420CBF0325042505FA0BF545EA0905C7
:10679000C8F808501D681AF4803F14BF2543A5436C
:1067A0001D605D681AF4003F14BF2543A5435D607A
:1067B0009D681AF4801F14BF2543A5439D60DD68C2
:1067C0001AF4001F14BF2C4325EA0404DC600136D0
:1067D000102E7FF474AF03B0BDE8F08F032D22D0EC
:1067E000112D85D1CA68043282E71B4FBD4209D002
:1067F00012D8DFF870904D4504D009F580394D4529
:106800007FF476AF8A68C2B1012A0CBFC0F810804D
:10681000C0F8148008226BE76545F3D07545F1D0C8
:10682000DFF84490EBE7002262E7CA6860E7CA68D5
:1068300008325DE7CA680C325AE7042258E700259F
:10684000A2E70125A0E702259EE700BF0004014062
:10685000001002400008014000002110000031102B
:1068600000003210000011100000221070B5816A83
:1068700086B00446002941D10268624BC1629A4247
:1068800080F8241003F56C439A6940F08C8042F440
:1068900000729A6180254FF480729B694FF4806C7E
:1068A00003F400730293029B574B5848C3E9035209
:1068B0002022C3E905C24FF44052C3E90001DA6166
:1068C000534A19649960DA63026822F47F5222F015
:1068D000300242F4565242F02002026001229963D3
:1068E00083F8212083F8201023625C620F2112209C
:1068F000FDF7EEFC4FF48022464B1A602046FFF76E
:10690000C5F8A36A13F0100FA36A76D1002874D1DA
:10691000E16923F48853626823F0020343F0020321
:106920000A43A168A362E368B1F5807F42EA4302AB
:106930004AD0012914BF06464FF480766569012DBF
:1069400007D1002B42D1A369013B46EA433545F408
:1069500000662368B1F5807F5D6825F4694545EAE6
:1069600006055D609E682C4D05EA060545EA0205B0
:106970009D6001D0012932D1216901390905DD6A03
:1069800025F470052943D9629968244B0B409A423B
:1069900027D10023E362A36A23F0030343F001033A
:1069A000A36206B070BD42F480629A619B690122C5
:1069B00003F480630193019B032302A91848CDE9E6
:1069C0000223FFF773FE91E70E46B7E7A36A43F091
:1069D0002003A362E36A43F00103E362B9E7002105
:1069E000CDE7A36A23F0120343F01003A362E36A26
:1069F00043F00103E3620120D3E743F01003A362F5
:106A0000F9E700BF002401401412002008000240F2
:106A10000000024000E100E0FDF7E1FFFE0E1FFF75
:106A2000000C0140F0B5044687B010B9012007B052
:106A3000F0BD90F83D306B4E03F0FF05002B61D1A7
:106A4000C02212230127CDE90223022380F83C5003
:106A500002A96548CDE90473FFF728FE4FF0800EC8
:106A60001821F369614843F40013F361F369604A44
:106A700003F400130193019B5E4BDFF8A0C1C3E94F
:106A800003E5C3E90005C3E90555C3E90F219D608E
:106A9000DD61016801EA0C0141EA0E01016010208C
:106AA0009D63554983F82050A36383F821705C628D
:106AB000524BC3E900104FF48050D8611420C3E951
:106AC000025EC3E90455C3E90F209D610A681F20D7
:106AD00002EA0C0242F4845242F010020A609D6302
:106AE0000F21636383F8205083F821705C62FDF707
:106AF000EFFB4FF00043424D0F212B602020FDF7AC
:106B0000E7FB6F602423206884F83D3003683D4A2A
:106B100023F00103036073683B49C3F30223D35C92
:106B20003A4A1268DA4063688B4230D838498A4260
:106B30007FF67CAF3749B2FBF1F141600131016270
:106B40003149013A8B4232D85B00B2FBF3F2531C5D
:106B5000C3F30B03042B38BF0423C361D4E907320A
:106B600013430360D4E9032313438360D4E905325C
:106B70001343C360036843F0010303600020202334
:106B8000206484F83D30206384F83E004FE72249BA
:106B90008A427FF64BAF1F4D4FF49671B2FBF5F56D
:106BA000694345604FF47A75B1FBF5F1C6E7A1681A
:106BB00051B903EB4303B2FBF3F30133C3F30B030C
:106BC0006BB143F40043C8E719214B43B2FBF3F325
:106BD0000133C3F30B0313B143F44043BDE7012377
:106BE000BBE700BF00100240000C014080000240E3
:106BF00000000240581200206C0002409C1200204D
:106C000000E100E054AC0008A08601003400002040
:106C10007F841E0040420F00FF083D000FC0FFFFB1
:106C20002DE9FF412E4F11203B6840251A684FF097
:106C3000800813682B4C23F0010313600123CDE976
:106C40000103022304AE46F8105D3146204603934B
:106C5000FFF72CFD2561CDF80080FFF727FD6523A8
:106C60004FF48002C4F81080A16809062ED51222C4
:106C700001234FF04008CDE901230223802531464E
:106C800018480393CDF80080FFF710FD15480095D4
:106C9000FFF70CFDC4F8108025613B681A68136883
:106CA00043F40043136000BF3B681A68136823F481
:106CB0000043136000BF38680268136843F00103A3
:106CC0001360FFF7AFFE04B0BDE8F081226100BFA2
:106CD00000BF00BF00BF013B2561C5D1F3E700BF86
:106CE0001C110020000C0140F0B590F83C30012B45
:106CF0004FF0020337D080F83D3003680E681A6AFF
:106D000022F001021A621A6A5D689C6922F002028E
:106D100024F0730434438E683243144EB3420BD1D3
:106D2000CE6822F00802324325F44075D1E90567A8
:106D30003E4322F0040235435D609C614C68096962
:106D40005C631A629A6942F008029A619A6922F0B9
:106D500004029A619A690A439A61012380F83D30DE
:106D6000002380F83C301846F0BD00BF002C0140E5
:106D70002DE9FF419846594B04461D6890F83D3077
:106D80000E46202B174603D0022004B0BDE8F08148
:106D90000095192301225249FEF77EFF0028F3D106
:106DA00094F83C30012BEFD0012384F83C30236869
:106DB00001211A682046D2075EBF1A6842F001021C
:106DC0001A601A6822F400621A60212284F83D20B9
:106DD000402284F83E20002222646185A1F1011145
:106DE000E162618DC4F824802185196841F48071C5
:106DF000196000950A9B4FF00111FEF74DFF58B93D
:106E0000236806F0FE061E610A9A2B463549204685
:106E1000FEF714FF48B1236C236C042B4FF00003E2
:106E200084F83C3034D10120AFE7236803905A69DD
:106E30000A9903929B692A4603932046039BFEF717
:106E4000D1FE40B1236C042BE6D12268136843F4D1
:106E500000731360E0E723681F61238D2A460A99B7
:106E600020467BB9FEF792FE78B92268136843F496
:106E700000731360202384F83C0084F83D3084F8CC
:106E80003E0082E7FEF7AEFE20B1236C042B1FD03C
:106E900003207AE7616A26684B1C63620B78228DB7
:106EA0003361638D501E013B9BB26385736980B271
:106EB0005B072085D1D50028CFD08B1C63624B782F
:106EC000023A3361638D2285013B9BB26385C4E73F
:106ED0002268136843F400731360A4E7D014002001
:106EE00002001000020001002DE9F0439946A34B77
:106EF00089B01D6890F83D300446202B0E46904620
:106F0000119F04D00226304609B0BDE8F0830095F9
:106F1000192301229A49FEF7BFFE0028F2D194F806
:106F20003C30012BEED0012384F83C30236820460E
:106F30001A68D10758BF1A68BDF840105CBF42F00C
:106F400001021A601A6822F400621A60222284F890
:106F50003D20402284F83E20002222646185894938
:106F6000C4F82490E162618D2185196841F4806143
:106F70001960196841F48071196000953B464FF023
:106F80000111FEF789FE10BB2368F6B206F0FE027F
:106F90001A617D492B463A462046FEF74FFE08B15E
:106FA000236C14E0236807905A69394607929B695D
:106FB0002A4607932046079BFEF714FE80B1236CF8
:106FC000042B04D12268136843F400731360236C0C
:106FD000042B4FF0000384F83C304FD1012692E798
:106FE00023682A46C3F810802046FEF7FBFD0246C0
:106FF0000028E4D1216820460B6843F480730B60BD
:1070000000953B464FF00111FEF746FE0028DED109
:10701000236846F001061E613A462B465A4920462F
:10702000FEF70CFE06460028BAD1228D23683AB33B
:10703000012A38D11A6822F480621A6072B6236875
:1070400005905A6905929A690592059A1A6842F460
:1070500000721A6062B6DFF83481238DD3B1032B3E
:1070600000F29680012B3AD12A4639462046FEF797
:1070700063FD002852D0236C202BAFD1032642E7BA
:1070800006905A6906929A690692069A1A6842F41C
:1070900000721A60202384F83D30002384F83E30CB
:1070A00084F83C302FE7022A1A680ED142F40062BD
:1070B0001A6072B6236804905A6904929A6904921D
:1070C000049A1A6822F48062C3E742F480621A606C
:1070D00003905A6903929B690393039BBBE7022BBE
:1070E00000953B464FF000024146204624D1FEF772
:1070F000D3FD0028C2D172B623681A6842F4007228
:107100001A601A69636A591C61621A70238D013B07
:107110002385638D013B9BB2638562B623681A6940
:10712000636A591C61621A70238D013B2385638D4C
:10713000013B9BB2638590E7FEF7AEFD0246002857
:107140009CD121680B6823F480630B6072B62368BE
:107150001969636A581C60621970238D0095013BA0
:107160002385638D4146013B9BB2638520463B46A8
:10717000FEF792FD0028BFD080E700BFD0140020AA
:10718000020010000000FFFF0200010004000100E7
:107190002A4639462046FEF7CFFC00287FF46BAF25
:1071A00023681A69636A591C61621A70238D013B56
:1071B0002385638D013B9BB2638523685A6952071F
:1071C0007FF54BAFABE700BF0026394D80B50020FF
:1071D000FEF738FA374F2A68374BDFF8F490DFF8BC
:1071E000F4803E601A60FDF7E7FE2B685B6D7BB9AB
:1071F00001222B684FF4FA6083F85820FDF752FF04
:107200004FF08053C9F80030BFF34F8FBFF36F8F3B
:10721000FDF7BEFEFDF7D0FE2B68596D09B12B6856
:107220005E652B6883F85860FDF7B2FE002939D0FF
:107230000120FEF7C3FA82463868B0B1B0F5E17FAD
:1072400028BF4FF4E1700446FEF7A2FAA04202D232
:10725000FEF79EFA0446194BCAF1010A18682D235D
:10726000544404F30F0403FB04000822144B1B696D
:1072700093FBF2F347F669729BB2934288BF0020FA
:10728000104BDA7C32B10A211A7D4A438242BCBFDC
:10729000187D4843FEF7D6F94AF6AA220A4B1B6826
:1072A0001A60A0E70A23A8F80030084B19709AE783
:1072B0002C140020B0110020D80F0020E81400206A
:1072C00088140020A4140020341300202814002067
:1072D00004ED00E0780B00200023F0B585B00193A9
:1072E000044640B94FF0500383F31188BFF36F8F0A
:1072F000BFF34F8FFEE7016C41B14FF0500383F3B2
:107300001188BFF36F8FBFF34F8FFEE7FDF7C8FD06
:1073100050B9019941B14FF0500383F31188BFF385
:107320006F8FBFF34F8FFEE76E4E6F4F6F4DB1E023
:107330006568B5B9002500226260626A0136A663FD
:10734000002A65D004F12400FDF7FEFE002861D07C
:107350004FF08052654B1A60BFF34F8FBFF36F8FB2
:1073600058E0634B1B689D4208D04FF0500383F3F5
:107370001188BFF36F8FBFF34F8FFEE72B6D43B9BB
:107380004FF0500383F31188BFF36F8FBFF34F8F1C
:10739000FEE7E96AEA6C013B91422B65CAD0002BFB
:1073A000C8D12F1D3846FDF755FEDFF850C1514AB0
:1073B00070B91420D5F82CE000FB0EF05CF800301A
:1073C00033B90121136801FA0EF123EA01031360B6
:1073D000EB6CC3F10401EB62A9610125116805FAA8
:1073E00003F0084310601420394600FB03C0FDF78A
:1073F0009FFEA0E70021A06803F0D2FBA368226CE7
:1074000013446268A360934224BF2368A3604FE0E3
:10741000002D9DD1FDF7BCFD012005B0F0BD019808
:1074200010B9FDF7B5FDF8E719B9336802933B6869
:107430000393FDF7ADFD304A136801331360FDF788
:10744000BBFD94F84430FF2B04BF002384F8443084
:1074500094F84530FF2B04BF002384F84530FDF736
:1074600097FD01A902A8FDF7C3FD98BBFDF7A4FD98
:10747000A26BE36B9A421DD1FDF78AFD019904F1DD
:107480001000FDF747FE2046FDF7EAFEFDF7BCFFC2
:10749000C0B10121FDF790FDA26BE36B9A42BED211
:1074A000226CA66B002AA5D12368002B3FF440AFC5
:1074B000002542E7FDF76CFD2046FDF7D1FEFDF704
:1074C000A3FFE6E74FF080532B60BFF34F8FBFF36E
:1074D0006F8FDEE72046FDF7C3FEFDF795FF002026
:1074E0009BE700BF181500203415002004ED00E0D4
:1074F0002C140020E4140020DC1400203814002098
:1075000032232DE9F04F85B00193044640B94FF086
:10751000500383F31188BFF36F8FBFF34F8FFEE7E4
:10752000016C41B14FF0500383F31188BFF36F8FAB
:10753000BFF34F8FFEE7FDF7B3FC50B9019941B19E
:107540004FF0500383F31188BFF36F8FBFF34F8F5A
:10755000FEE76F4F6F4E91E0019B1BB9FDF718FDE1
:107560000020C0E029B96C4B1B6802936B4B1B6871
:107570000393FDF70DFD6A4A136801331360FDF7AD
:107580001BFD94F84430FF2B04BF002384F84430E3
:1075900094F84530FF2B04BF002384F84530FDF7F5
:1075A000F7FC01A902A8FDF723FD002840F0A28006
:1075B000FDF702FDA36B002B58D1FDF7E9FC236812
:1075C000002B40D1FDF7F8FC6568002D39D03268FA
:1075D000EB6AD26A934234D24FF01408AA69DFF8FA
:1075E00048B1002AA8BF326808FB03B3A8BFD26A1B
:1075F000D946A4BFC2F10402AA616A699A4275D150
:1076000005F1040A5046FDF725FD464A58B9E86AD7
:1076100008FB00F85BF808302BB9012113688140A2
:1076200023EA0103136033681168D86A0123834099
:107630000B4313601423E862514603FB0090FDF7EF
:1076400077FDFDF7A5FC019904F12400FDF762FD2B
:107650002046FDF705FEFDF7D7FE70B94FF08053C9
:107660003B60BFF34F8FBFF36F8F06E0FDF790FCD9
:107670002046FDF7F5FDFDF7C7FE0121FDF79CFC57
:10768000A56B002D3FF468AF226CE36862B16168BE
:1076900013448B42E36028BF23684FF0000028BFEB
:1076A000E360E16803F07CFA2368013DA56343B918
:1076B000184B1A681AB119680A6D01320A651B68FD
:1076C0006360236963B104F11000FDF73DFD38B13B
:1076D0004FF080520E4B1A60BFF34F8FBFF36F8F86
:1076E000FDF756FC012005B0BDE8F08F3368DB6A7A
:1076F000EB62A6E72046FDF7B3FDFDF785FEFDF73B
:107700005BFCA36B002B3FF429AFFDF741FCB4E712
:1077100004ED00E02C140020181500203415002082
:10772000DC140020E414002038140020F0B5A14D32
:107730000646286885B00F46002840F0BB809E4B67
:107740001C689E4B1D6894F83D30202B40F08B80C8
:107750000095192301229A492046FEF79DFA002838
:1077600040F0818094F83C30012B7CD0012384F8D8
:107770003C3023681A68D2075EBF1A6842F00102E3
:107780001A601A6822F400621A60212384F83D30DE
:10779000102384F83E3000232364A3F580336785EB
:1077A000E362638D66622385E36A042B04D0012BB8
:1077B00002D013F5803F05D12268136843F480732B
:1077C000136002E0236B122BF6D0009541F2883350
:1077D00000224FF001112046FEF75EFA68BB2269D5
:1077E0002368B2F5804F1DD1782276491A61204670
:1077F0002B4641F28832FEF721FAE8B9236802905D
:107800005A6902929B690293029B238DE3B9216816
:107810000A6842F400720A60202284F83D2084F84D
:107820003E300CE0F02268491A6120462B4641F2B6
:107830008832FEF703FA28B1236C236C002384F806
:107840003C3010E02368CFE72A4641F288312046D9
:10785000FEF7C8F948B1236C042B04D122681368E1
:1078600043F40073136005B0F0BD616A20684B1CDF
:1078700063620B780361638D228D013B9BB263854C
:10788000531E9BB22385466976070AD54BB18B1CE4
:1078900063624B78023A0361638D2285013B9BB2A0
:1078A00063852A4641F288312046FEF76FF90028A9
:1078B000ABD0D0E7FFF724FE0128D4D13E4B1C68A3
:1078C0000023039394F83D30202B12D146F2A812E6
:1078D0003E4B1B68B3FBF2F2192353430393039B04
:1078E0005A1E03926BB92022236384F83C3084F83B
:1078F0003D20FFF795F9286805B0BDE8F040FFF797
:10790000EBBC226893699907E9D494F83C30012BC9
:10791000EFD0012384F83C3013680025DB0758BF03
:1079200013684FF078015CBF43F0010313601368E4
:1079300023F400631360212384F83D30102384F87E
:107940003E30234B25646785E362638D66629BB29C
:1079500023856164F3B1606B1E49103281621E4958
:107960004563C0E90B513146FEF726F823681A68D3
:1079700042F480621A601A6842F480721A6084F8D5
:107980003C505A6842F440725A605A6842F40062AD
:107990005A6068E7116841F480611160116841F430
:1079A0008071116084F83C30536843F4E0635360A5
:1079B00059E700BFD01000201C110020D014002077
:1079C0000200100002000100080001003400002045
:1079D0000000FFFF095F0008E15E000810B5104BD2
:1079E0000446C0B1C822DA72A12232210C48DA74EE
:1079F000FFF79CFE002C14BF00222022094B1C70B4
:107A0000094B5A7114BF5F227F22DA7114BFC8225A
:107A1000C0225A7210BDC022DA72A022E5E700BF70
:107A200000000020C8100020E40F00200E4B9979C0
:107A30009A79013161F3010203219A719A7902F076
:107A4000030292FBF1F101EB4101521A997962F3C1
:107A500001019971987910F0030002D0012800D03B
:107A60007047FFF7BBBF00BFA4140020D12101481D
:107A7000FFF75CBEE40F00202DE9F341184C0546EA
:107A800020680E461746984668B941F28833CDE91A
:107A900000831448134600680A462946FFF724FA73
:107AA00002B0BDE8F081FFF72BFD0128F8D14FF4BB
:107AB000FA73CDE900830B483B46324629460068FD
:107AC000FFF712FA28B12568FFF7AAF82846FFF752
:107AD00003FC206802B0BDE8F041FFF7FDBB00BF2A
:107AE000D01000201C110020F7B5164C0546206868
:107AF0000E46174658B941F2883313480093006880
:107B000013460A462946FFF733F903B0F0BDFFF7E5
:107B1000F7FC0128F9D14FF4FA730B480093324671
:107B20003B4629460068FFF723F928B12568FFF78F
:107B300077F82846FFF7D0FB206803B0BDE8F04097
:107B4000FFF7CABBD01000201C1100202DE9F04126
:107B50000746DDE9060488461D4640B94FF050034C
:107B600083F31188BFF36F8FBFF34F8FFEE744B9E4
:107B70004FF0500383F31188BFF36F8FBFF34F8F24
:107B8000FEE796003246A521206303F014F8226B2D
:107B9000043E324408F1FF3322F0070204F13401BD
:107BA00008F1170813F8010F01F8010B187808B154
:107BB0004345F7D1032D28BF0325C5F10403002158
:107BC000A3614FF08073E562C4E91351616584F8E5
:107BD0004B106161A1622461646284F8581042F81C
:107BE000043C444B27F0010742F80C3C42F8087C67
:107BF00042F8201C403A2260FDF7DEF93E4A3F4E33
:107C00001368DFF820810133136035683C4BD4F8EA
:107C10002CC0002D63D134601268012A39D14FF095
:107C2000FF3703F108025A60C3E902721A611A466B
:107C300042F81C5B3349C3E90627C3E9082203F174
:107C40003002C3E90B27C3E90D2203F14402C3E963
:107C50001027C3E9122201F10802C1E90127C1E995
:107C60000322294A0D6002F10800C2E90107C2E9B6
:107C7000030026485D6100F1080EC0E901E79D623E
:107C8000DD631560C0E903EE05602148016021490C
:107C90000A6021490A6801320A6001221F4902FA7A
:107CA0000CF20868024314200A6000FB0C30211D0E
:107CB000FDF73EFAFDF76CF9D8F8003063B1336890
:107CC000DA6AE36A9A4207D24FF08052144B1A6084
:107CD000BFF34F8FBFF36F8F2046BDE8F081D8F818
:107CE0000020002AD5D13268D26A624598BF34603C
:107CF000CFE700BF69430008D41400202C140020F3
:107D000038140020EC140020001500201C15002061
:107D10003014002034140020E0140020E41400206B
:107D200004ED00E03015002037B5D0E90014856976
:107D3000B0F90830026901954069842B009014BFA6
:107D4000033300232046FFF701FF03B030BD0000DE
:107D500038B5244C24220021204602F02CFF962323
:107D600063803C2323714FF496731E2123800023EC
:107D70000120072563716175227A63F3C3022272C1
:107D8000227A63F382022272A27960F30102A27165
:107D9000A27965F38502A2710A2540F2D312A2816D
:107DA000E571227A024322724FF4D272E281A27903
:107DB00063F38712A271227A42F002022272637286
:107DC000A27A0243A272E3744FF4617323824623C2
:107DD000A3740523217520772384E583BDE838400B
:107DE000FEF77ABAA4140020C0220021014802F054
:107DF000E2BE00BFF50F00202DE9F0410020FCF7A6
:107E000025FB4FF00005FFF7EFFF294E294F2A4CC5
:107E10000021A0894FF00A0835803D80FDF7BAFBAC
:107E2000B0FBF8F00122022180B2FCF7BEFB234830
:107E3000FCF7B2FB0021A089FDF7ACFBB0FBF8F327
:107E400003FB18000022012180B2FCF7AEFB1C48A6
:107E5000FCF7A2FBFCF78AFF01380F280DD8DFE8FA
:107E600000F008190C1C0C0C0C1C0C0C0C0C0C0C51
:107E70000C1CA38901339BB2A381FFF7F7FD0420FB
:107E8000FDF738FBA389B3F5B47F0AD24FF4B4737E
:107E9000A381BCE7A389013BEDE7BDE8F041FEF714
:107EA0001BBAA389B3F5027FB1D94FF40273EFE790
:107EB000CA100020CC100020A414002060BA0008D2
:107EC00058BF00082DE9F84F00242646A0465E4D15
:107ED0005E4B2F68DFF890B11C605D4BABF8008003
:107EE000A3F80080FFF780FF0020FCF7AFFAFCF753
:107EF0003DFF002832D001382F680F282ED8DFE848
:107F000000F080142D1C2D2D2D082D2D2D2D2D2D07
:107F10002DA12A68A31B13441E2B1FD94D4B1A7F7A
:107F2000D98BA2B11A880A4413E04A4B1A7F198CE4
:107F3000002A6BD01A880A446AE02A68A31B1344FB
:107F40001E2B0BD9434B1A7FD98B002AEAD01A88F3
:107F5000521A92B21A8003342E68E4B2DFF8F4A009
:107F6000C4F11E039AF80920092BD8BF1424002A53
:107F700051D040F25232BAF800108A4238BFAAF803
:107F80000020BAF80020772A02D87822AAF8002028
:107F90002A68D21BC82A55D82F4A9AF81C0092F892
:107FA0000090B9F1000F45D02C492D4A002814BF8C
:107FB00008461046FCF7F0FA2A48FCF7EDFA0122D1
:107FC000BAF800000321FCF7F0FA9AF80920002A19
:107FD00033D00020FCF78AFA2248FCF7DDFA9AF841
:107FE0001C00B9F1000F2AD01D4A1C4B002814BFF9
:107FF00010461846FCF7D0FAFFF738FDFDF798FA5F
:108000006BE7144B1A7F198C002A93D01A88521AE6
:1080100092B21A80A2E7BAF80020B2F5E17F84BFDD
:108020004FF4E172AAF80020BAF80020312AAFD844
:108030003222ABE70A49094AB8E70120CAE7074AF2
:10804000074BD3E7BDE8F88F34150020B0110020AE
:10805000CA100020A4140020C810002054BF00083B
:1080600056BF000824C00008CC100020F8B52A4DE7
:108070000021A889FDF78EFA284B1B68962B47D95B
:108080006A7902F0FF03002A33D003EB4313423333
:10809000DBB283424FF000043CD9214FFDF748FA90
:1080A000FFF7A2FE3C80287A1E4EC0F3C000348049
:1080B00008B30120FCF7CAF91B48FCF76DFA082346
:1080C0001A4833803C80FCF767FAFDF70BFB184831
:1080D000FCF762FAFFF7CAFC0022164B1A60FCF7A5
:1080E00045FE04465CB1FCF741FE0446FDF720FA6C
:1080F000F8E75A23CDE7FCF7A9F90F48E8E7FCF7C2
:1081000035FE0446FDF714FA002CF8D00120F8BD26
:108110000020FCE72046FAE7A414002034150020D4
:10812000CA100020CC100020EDBE0008FABE0008E6
:1081300058BF0008B011002004BF00082DE9F74F18
:108140000646574DDFF89081FCF710FE002840F0FE
:10815000A3802B68642B10D998F8003033B1514AB2
:108160002B6812689B1A632B40F297804E4A2B684B
:1081700012689B1A632B40F28F80FFF777FF00286D
:1081800063D14A4C4A4F627A02F0FF03002A5ED064
:1081900076B963882088984228BF18461F2881BF77
:1081A000092300EB8000A038B0FBF3F098BF304605
:1081B0003860637A03F0FF00002B50D0FDF7C2FA5D
:1081C0004FF0000B1FFA80FAFFF70EFE394A3A4BC8
:1081D000A2F800B0A3F800B094F808900192C9F397
:1081E000C0090093B9F1000F3ED00120FCF72EF931
:1081F0003248FCF7D1F9019A009BA2F800B008229E
:108200002F481A80FCF7C8F9012203215046FCF7D9
:10821000CCF9637A33B32B48FCF7BEF92A48FCF754
:10822000BBF9FDF75FFA2948FCF7B6F9E37973B3B8
:108230001C4B196859B341F270732A68E079521ADD
:1082400043439A4223D900233B60012025E026B90D
:1082500062882388934228BF13463B60A9E7FDF755
:10826000ADFAADE71A48D7E74846FCF7EFF81948EA
:10827000FCF792F9012203215046FCF796F9637A44
:108280001BB14846FCF732F9D0E70120FAE7FFF7C7
:10829000EDFBFDF74DF957E7002003B0BDE8F08F87
:1082A000341500200414002000140020A414002021
:1082B000B0110020CA100020CC1000205ABF0008C6
:1082C00064BF0008C6BF000824C0000858BF0008EB
:1082D00030C0000868BF0008AC1100202DE9F0474D
:1082E000934C2379052B89BF25794FF47A756B1F41
:1082F00041F2707598BF23795D4390B900268D4F88
:10830000DFF86882FCF732FD102818D8DFE800F0AB
:10831000169C9C1796171717141717171717171768
:108320001400831E58425841FFF708FF0028E5D08B
:10833000814B1A68814B1A60BDE8F08700264FF028
:108340000009A7F80090A8F80090FFF74DFD4846F7
:10835000FCF77CF8237ADFF8189213F0080F00F08E
:108360008B804FF00A0A0120FCF770F87448FCF784
:1083700013F9D9F800000122B0FBFAF0022180B213
:10838000FCF713F96F48FCF707F9D9F80030012220
:10839000B3FBFAF00AFB1030114680B2FCF705F986
:1083A0006948FCF7F9F8A37913F03C0F20D0237942
:1083B000F3B16648FCF7F0F85F49604B644A08681F
:1083C0001B681268281A9A422CBF8018C01842F203
:1083D000AC63984245DD41F2707390FBF3F00130DD
:1083E00080B201220221FCF7E0F85A48FCF7D4F8E9
:1083F00000233B8008235848A8F80030FCF7CCF84D
:108400000120FDF7F9F95148FCF7C6F8FDF76AF9C4
:108410005248FCF7C1F8FFF729FB514A637A002E56
:108420006CD0002B68D0E3899BB21F2B56D9092151
:1084300003EB8303A03BB3FBF1F350E0237A13F08B
:10844000010F18BF01267AE7B4F80090FFF73AFD54
:1084500023881FFA89F999453FF471AFFDF73CFF76
:108460006DE7642390FBF3F0013080B2012202211A
:10847000FCF79BF83B48B9E73B4B1978B9B1FDF7DE
:1084800011F93248FCF788F80120FDF7B5F956B12B
:108490000220FCF72BF80021D9F80000FDF7B2F814
:1084A000FCF740F8B7E72948FCF776F8F3E7D9F886
:1084B0000000FDF7A7F8FCF735F85EB10220FCF7E5
:1084C00015F80120FDF798F92048FCF765F8FDF74D
:1084D000E9F8A0E71D48FCF75FF8F2E70023136016
:1084E000FFF7C4FD00287FF423AFA37913F03C0FFE
:1084F00009D1FDF71DF805E7E389F0E70BB1238803
:1085000092E72388EBE72379002BF2D00A4A10493F
:10851000136809685B1AAB42EBD91368074A126803
:108520009B1AAB42E5D9FFF709FE0028E1D003E72B
:10853000A4140020CA1000203415002000140020CC
:10854000E7BE000860BA0008B5C0000824C00008F3
:1085500004140020C1C0000864BF000858BF000810
:10856000B0110020C8BF0008C8100020CC100020A7
:10857000E814002000242DE98048764D91B00120B8
:10858000FFF72CFA1920FCF7B5FFA879724E00F01E
:1085900001000DF1300AFFF721FA21461022504662
:1085A000346002F008FB2146102208A802F003FB09
:1085B0001022214600240DEB020002F0FCFAAB79F8
:1085C0000196C3F38303092B88BF09222746264659
:1085D0004FF0030BA04682BFAB7962F38503AB710A
:1085E000C82140F6E440AA79C2F3830201FB1203DA
:1085F00000935A4B93F80090B9F1020F49D106232A
:1086000002AAA8213220FFF737FA012302AAB521D6
:108610003220BDF90840BDF90A70BDF90C60FFF7C2
:108620002BFA9DF808309B10013B5FFA83FBAA7977
:1086300002F00302022A07D1BBF1030F04D0BBFAF8
:108640008BF04009FFF7CAF910AB03EB4802444B2B
:1086500022F8104C22F8207C22F8306C1A78002A7C
:108660003BD108F1010C4FEA4C0108AB03EB010EC2
:1086700004AB0AEB010919440CEB0200C0B2072855
:1086800028D829F812402EF8127021F81260013211
:10869000F2E7B9F1010FCAD1062302AA49463A20EE
:1086A000FFF7EAF94B4602AA10213A20BDF808402C
:1086B000BDF80A70BDF80C60FFF7DEF99DF80830D0
:1086C000E4BA1A06FFBAF6BA4CBFC3F3410B4FF037
:1086D000030BACE70122224B1A70002108468C469E
:1086E0000A4608F1010808F007080DF110093AF9E7
:1086F00011E008AB724433F911E0F44439F911E0A8
:10870000013108297044F2D192FBF1F29CFBF1FC9B
:1087100090FBF1F1121BACEB070C891BBCF1000FB5
:1087200082EAE27EB8BFCCF1000CAEEBE27E00291B
:10873000009BB8BF49420EEB0C020A449342BEBFF5
:10874000084A019B12684FF00A00B8BF1A60FCF794
:10875000D1FE45E7A41400200414002014090020D1
:10876000AC1100203415002000230C212DE9F04F1E
:1087700087B0029002985A1CDBB2049301FB0303FA
:108780009B680BB11346F5E798464FF0FF3301267F
:10879000C146C346C24644469E4D0393CDF804806D
:1087A0000C276743029B3B4498680093002800F025
:1087B0002D81BBF1000F40F029815846FBF746FEA2
:1087C000954B2868A3F800B0944BA3F800B0944BE5
:1087D0001B68C01AB0F5967F3AD3029BD85900287F
:1087E00036D0B9F1000F01D1D5F80090FBF7B0FCFD
:1087F0002B6800EB4000A3EB090E8A4B800093F836
:108800000AC054301CF0010F14BF4FF0010C4FF0A0
:10881000020CBEFBFCFE00B20FFA8EFE9EFBF0FCCB
:1088200000FB1CE0039B0FFA80FB5B4505902FD0FB
:10883000FFF7DAFA0598784BC0F160001880002045
:10884000764B01261880029BD859FBF7A5FE1FE046
:108850001027FFF7C9FA009B012698688047049B00
:108860004FF0FF3B97FBF3F706FA07F001381FFACA
:1088700080FC07FB04F06C4FC0B23F680CFA00F0BC
:1088800087F85F00694FC0F307203F6887F85F00F3
:10889000FCF76CFA804540F0928008F1FF300F2819
:1088A00009D8DFE800F02A38084308080859080802
:1088B00008080808086B0027CAF11E000928D8BF5D
:1088C0004FF0140A26B1FFF7D1F80420FCF712FE8E
:1088D000534E28683668CDF80CB0801B47F23056EE
:1088E000B04288BF4FF000094FF0000694BFBB466E
:1088F0004FF0010B54E74FF0000AB9F1000F41D1DE
:10890000009B5B68002B41D098474F464FF0010811
:10891000D2E74FF0000AB9F1000F3AD10134E4B2C6
:108920004F464FF00208C7E74FF0000A2B68019A44
:108930009B1A53441E2B30D900274FF00408009B8C
:108940005B6898472B680AF1030201935FFA82FA89
:10895000B946B1E74FF0000A2B68019A9B1A5344BD
:108960001E2B1ED92B6801340AF10302E4B20193D5
:108970005FFA82FA00274FF00808E9E74FF0000994
:10898000012799E700274FF00108E1E74FF00108C0
:10899000F6E700274FF00208DAE700274FF0040857
:1089A0008AE700274FF0080886E74FF00009804665
:1089B0000127CA4680E700278046BA4682E7431E61
:1089C0000F2BF8D801A252F823F000BFF788000857
:1089D00013890008B789000829890008B7890008A9
:1089E000B7890008B789000855890008B7890008C9
:1089F000B7890008B7890008B7890008B789000857
:108A0000B7890008B7890008AB89000807B0BDE83E
:108A1000F08F00BF34150020CA100020CC100020B9
:108A200000140020A4140020C0100020C410002056
:108A30000148FFF799BE00BF380000200148FFF74A
:108A400093BE00BFE00000200148FFF78DBE00BFCD
:108A5000280100200148FFF787BE00BF98000020D2
:108A60002DE9FF4848230593059B482B08D04FF07C
:108A7000500383F31188BFF36F8FBFF34F8FFEE76F
:108A800000210123AE48AF4FC0E90F310060FCF771
:108A900093FAD0E90F34634302688163D5181B1B36
:108AA0001344C360FF2382604FF0FF3280F84430EC
:108AB00080F8453000F11803C0E9062343610362E2
:108AC00000F12C03C0E90A32016141624560C0E94E
:108AD0000C33FCF75DFA9C4D9C4B9D4E1860FEF7E5
:108AE000FBFBFCF791F9A879DFF8A88200F0010000
:108AF000FEF774FF3C68DFF8A09204F5C8743B6889
:108B00009C423BD9934B1B78552B35D13378AA2BFC
:108B100032D198F800300D2B2ED199F80030F02B7F
:108B20002AD18D4BDFF874E21A680023DFF870C297
:108B300013F80E10D15413F80C00D1180233602B27
:108B40004870F5D1854BDFF85CE21A680023DFF846
:108B500058C213F80E10D15413F80C00D118023378
:108B6000602B4870F5D1FEF781FFFCF7FFF800B1EC
:108B70003C68FCF7DDFCC2E73C68F6E7784BDFF8C1
:108B80002C821B78DFF8289293B1FFF72DF9012092
:108B9000FBF75CFC00237348A8F80030A9F800300C
:108BA000FBF7FAFCFEF762FF4FF47A70FCF7C4FCA7
:108BB000AC79A40906D0AC79A409012C56D10020C7
:108BC000FFF78CFB4FF0000B5E46FCF7CFF88246B8
:108BD00000285CD10024644B0021A8891E60FCF7AA
:108BE000D9FC0020FCF7EAFDAF231FFA80FA5F4AA8
:108BF000BAF1310F537014D8AB7913F03C0F10D089
:108C00005B4A3B6812689B1A41F27072934208D922
:108C100058493B6809685B1A934282BFAE23534AA6
:108C20005370FFF7E1F8A8F80060A9F80060297A0E
:108C3000C1F38001002900F012810120FBF706FC3E
:108C4000BAF5EB7F40F2FC804B48FBF7A5FC08230C
:108C50004A48A9F80030A8F80060FBF79DFCFCF733
:108C600041FDFEF703FFFCF763FCAEE7AB799B0920
:108C7000022B04D10120FFF731FB0124A2E7AB79DD
:108C80009B09032B01D10220F5E700249AE7AF23CB
:108C9000364A00205370FBF7D9FB002C9BD10AF118
:108CA000FF3ABAF1070F96D801A353F82AF000BF94
:108CB0002B8E0008358E0008D78B0008218E000807
:108CC000D78B0008D78B0008D78B0008D18C000801
:108CD0000024FFF789F80120A8F80060A9F80060D7
:108CE000FBF7B4FB2648FBF757FC0823A9F8003034
:108CF000244BA8F8006053F82400FBF74DFC631EDA
:108D0000092B68D8DFE803F0050F111318567B7F95
:108D100084871D4B1868FCF7E5F80122052180B215
:108D2000FBF743FC57E0194BF4E7194BF2E73868BF
:108D30006423B0FBF3F0F0E70D4B1868F8E700BFD1
:108D4000D410002034150020A4140020D0100020DE
:108D500001F8000800F80008C0100020C41000202E
:108D6000A0140020EBBA0008B0110020E40F00208E
:108D700004140020001400200EBB0008FABE0008F6
:108D800000BB00085CAC0008B00600201009002001
:108D9000740B002002F8000803F8000805F800082A
:108DA00004F8000865F8000864F80008CA100020FC
:108DB000CC1000202B8A1FFA83FA4FF000032B827D
:108DC000FCF722F8FBF7E8FA0122062180B2FBF754
:108DD000ECFBA5F810A0FEF749FEFBF7C7FF022841
:108DE0003FF4F8AE012807D10B220134E4B2B4FB02
:108DF000F2F302FB1344E4B2FCF79AFB69E70120AB
:108E0000FCF7DCFC89E7FCF78DFC0122032187E7F6
:108E1000FCF768FCDFE70122484B114618787FE732
:108E2000FFF750F8FDF758FAD5E60020FFF756FA9D
:108E30000124D0E64248FFF797FCFDF74DFAF7E72B
:108E40004048FBF7A9FB0020FCF7D6FC3E48FBF7A7
:108E5000A3FB288801220321FBF7A7FBF7E60846BE
:108E60000391FBF7F3FA394B187800283ED0384BC2
:108E700054220093039910230C20FBF7A1FAFCF76E
:108E800011FCBAF1370F56D8BAF12C0F50D9BBF1FB
:108E9000000F3FF4E6AE2D4A2E4B12781B68B2B39A
:108EA00003F136025F3302F8016F9A42FBD12A4B7D
:108EB0001B6803F136025F3302F8016F9342FBD166
:108EC0003823A8F80030A9F800602B7A9B0707D553
:108ED00019223968B1FBF2F302FB13130F2B02D9ED
:108EE0000020FCF789FC4FF0010BBAE61B4B542223
:108EF000009301461023FBF763FA5423A8F80030CF
:108F0000FCF7D0FBBAF1370FBED9124B1B685A1EC3
:108F1000283302F8016F9342FBD10F4B1B685A1E96
:108F2000283302F8016F9A42FBD1A8F80060CAE723
:108F30004FF0000B95E6074B1B68B1E714090020C2
:108F40006801002064BF00081BBB0008C810002097
:108F500024BB0008C0100020C4100020FEBB000885
:108F60002DE9F74F8246FBF7F3F8244E00EB400063
:108F70003368840000200093FBF768FA204B00253B
:108F800001224FF0FF3198461E4F5434A4B23D8069
:108F90001D80336800981B1A1B48807A10F0010F5F
:108FA00014BF01200220B3FBF0F31BB293FBF4F0DB
:108FB00004FB103B0FFA8BF949450AD0FEF714FF6A
:108FC000CBF1600350463B80A8F80050FBF7E4FA71
:108FD00001220192FBF7CAFE019A40B922B1FEF7C5
:108FE00045FD0420FCF786FA00224946D1E7431EDE
:108FF0005842584103B0BDE8F08F00BF341500203F
:10900000CC100020CA100020A41400202DE9F74F36
:109010002A48FFF7A5FF00284DD00023284DDFF890
:10902000A880284FDFF8A4902B822C8A0026A4B2B7
:1090300064BB2646A346FBF7E7FE4FF0000A064452
:10904000FEF7D2FE4846A8F800B0A7F800B0FBF73C
:10905000A3FAC4F385035FFA8AF29A42019306D217
:109060004846FBF799FA0AF1010A019BF3E7FEF77C
:10907000FDFC01340A20FCF73DFA102CDBD1C6F3CD
:109080000F10FBF789F980B22882CEE7FEF7ACFE1D
:109090001020A8F800603E80FBF728FA288A0122F9
:1090A0000421FBF782FAFEF7E1FC782003B0BDE86B
:1090B000F04FFCF71FBA03B0BDE8F08F0BBF0008FC
:1090C000A4140020CC100020CA10002060BA0008B0
:1090D00008B50C48FFF744FF98B1FEF739FE0020B1
:1090E000FBF7B4F90023084A08481380084A1380A4
:1090F000FBF752FAFEF7BAFCBDE80840C820FCF7BF
:109100001BBA08BD6DBF0008CA100020B3BF00081D
:10911000CC1000202DE980484FF6FF07454A464D08
:109120001368464E43F010031360EA68444C3A401B
:109130003243ABB0EA60FDF7A9F9A269002142F021
:109140000102A261A2696FF00B0002F00102069217
:10915000069BEB68DFF8F8803B403343EB60FBF79E
:10916000B7F800216FF00A00FBF7B2F800216FF0AA
:109170000900FBF7ADF800216FF00400FBF7A8F839
:1091800000216FF00300FBF7A3F80F216FF001003F
:10919000FBF79EF80F214FF0FF30FBF799F863685B
:1091A00013F00C0F07D0636803F00C03082B51D1A8
:1091B0006368DD034ED423680122236823F0F8039B
:1091C00043F0800323601F4B1A60D8F80020636AC5
:1091D000990740F188834FF4FA521B4B1B68B3FB8D
:1091E000F2F30B9300BF0B9A531E0B93002AF9D195
:1091F000636803F00C03082B39D0144B1A601A462D
:10920000D8F8001023689B0100F17483636823F48D
:10921000741343F46013636001231360D8F80020D3
:1092200023689F0123D4D8F800309B1A022BF7D96A
:109230001DE000BF0020024000ED00E00003FA0541
:10924000001002408004424234000020600042428C
:10925000D01400200122BD4B1A60D8F800202368EA
:109260009807A9D4D8F800309B1A022BF7D9B84A2E
:10927000136803F00703012B40F24383636843F450
:10928000E0636360636843F460536360636823F082
:10929000F003636023689E0100F140834FF47A720B
:1092A0006368AC4F23F4404343F4004363603B687E
:1092B000B3FBF2F3013BB3F1807F09D2F021A64A60
:1092C0005360A64B83F82310002393600723136099
:1092D000A14A0F2113684FF0FF3043F004031360DD
:1092E000FAF7F6FF4FF080729D4E4FF003094FF0F2
:1092F000020B73689B4D23F0E06343F0806373605F
:10930000A3691EA943F02003A361A369964803F053
:1093100020030A930A9BA3694FF4807A43F0040365
:10932000A361A36903F004030993099BA36943F0B4
:109330000803A361A36903F008030893089B2A614B
:109340000292CDE91E99CDF884B0FDF7AFF97368AC
:109350001EA943F0E06343F40043736048F2FF73D7
:109360002846CDE91E39FDF7A1F94FF6FF731EA976
:109370007E4801261E93FDF799F94FF4F0432846E5
:109380001EA9CDE91E36CDF88490FDF78FF94FF078
:1093900000632B614FF080532B614FF000532B6122
:1093A0004FF080434FF000092B614FF410731EA95A
:1093B000CDE91E392096FDF779F91EA9CDE91EA643
:1093C000CDF884B0FDF772F9029A1E202A612A6155
:1093D000FCF778FFC5F810A063690521334363618A
:1093E00063690B2033400793079BFAF771FF4FF433
:1093F00000635F4C052123601020FAF769FF4FF4EA
:109400008033052123601120FAF762FF4FF4003307
:10941000584A23605848594BC2E90299C2E90003EF
:109420004FF480431046C2E90439C2E90699C2F8F4
:1094300020900392FDF7F6FA4FF46021504C514B07
:109440002046C4E902A6C4F81490E161C4F804906F
:1094500023600293C4F810B0FDF708FA94F82410C2
:10946000039AB142A946924618D0226884F8246033
:109470009168C90700F1BA8243498968CB0700F1B6
:10948000B582029B9A4240F0B182536823F4702364
:1094900043F480335360002384F82430002194F88F
:1094A00024300D91012B11D00123226884F824303F
:1094B000536B23F01F0343F007035363136923F433
:1094C000600343F44003136184F82410002194F8EE
:1094D00024300C91012B11D00123226884F8243010
:1094E000536B23F4787343F490735363136923F03D
:1094F000605343F04053136184F824104FF0080E7A
:1095000001230025CDE91EE3042620934FF44053A8
:109510001EA91B48CDE92453239521952296FCF7DB
:109520007BFD02231EA9164820951F93FCF774FDAE
:1095300003231EA912481F93FCF76EFD1EA91048B5
:109540001F96FCF769FD226820E000BF0000424240
:10955000002002403400002010E000E000ED00E0B8
:10956000000001400008014000140140000C0140CF
:1095700000E100E0E012002000540040F824010067
:10958000B41100200024014000280140C04D536860
:1095900043F0800353602846FCF722FE064600286D
:1095A000F9D1BC4DBC4B4FF0010B2B604FF48073D5
:1095B000C5E9023B4FF46023EB61022368616860F8
:1095C00028462B61FDF752F995F824300F965B453C
:1095D00010D02A6885F824B0536B23F01F0343F0A2
:1095E00008035363136923F0E06343F0C06313611E
:1095F00085F82460002195F824300E91012B11D0BC
:1096000001232A6885F82430536B23F4787343F4DC
:1096100090735363136923F0605343F04053136115
:1096200085F82410012308200026CDE91E034FF001
:10963000040B20934FF440531EA99648CDE92463B0
:1096400023962196CDF888B0FCF7E6FC02231EA9EC
:10965000904820961F93FCF7DFFC03231EA98D483A
:109660001F93FCF7D9FC1EA98A48CDF87CB0FCF703
:10967000D3FC884E3046FCF7B3FD83460028F9D171
:109680000823864E864A6421C6E900234FF40073FE
:10969000C6E903138023B0603046B361FCF7C0FE17
:1096A00096F83C30012B14D001210223326886F851
:1096B0003C1086F83D30936823F47F4323F0770312
:1096C0009360936823F00703936086F83D1086F853
:1096D0003CB04FF0000B7148FCF7D2FF6F48FCF72D
:1096E000CFFF10A96D48CDE910BBFAF71FFE60202F
:1096F0005023CDE91E0304231EA968482293102697
:10970000CDF880B0FDF7F0FA0223032217A96548CF
:10971000CDE9176302931A92FCF7C8FF62495F48CC
:109720004A68624E22F4406242F0E06242F4006213
:109730004A60FAF7B5FD4FF0804C4FF47A624FF46F
:10974000887EC6E900C24FF400723046C6E903E2E3
:10975000C6F808B0C6E905BBFCF762FE96F83C20E7
:10976000012A14D00121029B326886F83C1086F849
:109770003D30936823F47F4323F07703936093682D
:1097800023F00703936086F83D1086F83CB04FF055
:10979000000B4648FCF774FF4448FCF771FF17A91B
:1097A0004248CDE917BBFAF7C1FD60214FF486733B
:1097B000CDE91E1304231EA93C482293CDF880B0A6
:1097C000FDF792FA96F83C30CDF87CB0012B2CD006
:1097D000012386F83C30022386F83D3033681A6A4C
:1097E00022F480521A621A6A5968D86922F4005227
:1097F00020F4E64C1E984CEA002C209842EA0032F5
:109800002B48834202BF21F48040239940EA811112
:109810005960C3F81CC01F9919641A620122234BB6
:1098200083F83D20002283F83C2033681F48DA6823
:1098300042F00102DA601A6842F001021A60FAF797
:109840002FFD33680F21DA681C2042F01002DA6025
:109850001A6A184E22F480521A621A6A42F480522E
:109860001A62134A934202BF5A6C42F400425A648D
:109870001A6842F001021A60FAF72AFD4FF080528E
:109880000D4B06211A604CF6CC40642216E000BF56
:10989000B4110020E411002000280140C013002072
:1098A00000040040000C0140000001408013002033
:1098B000002C01403413002000E100E0894BB2602D
:1098C000C6E90031186045F25550186059609A6039
:1098D000D8F800103268D368002B40F08C804AF62C
:1098E000AA2313608DE0D8F800309B1A022B7FF674
:1098F0006EACBCE4D8F800305B1A022B7FF682AC69
:10990000B5E4136823F0070343F002031360136800
:1099100003F00703022B7FF4C1ACAFE441F28831BE
:10992000636823F0030343F002036360D8F8002068
:10993000636803F00C03082B24D16B4A136803F00F
:109940000703022B24D863681EAD43F4E063636011
:10995000636823F460536360644B03F110062A4686
:1099600018685968083303C2B3421546F7D140F26C
:109970000123ADF85C30626802F00C03082B14D0B0
:109980005B4B25E0D8F800309B1A8B42D0D985E498
:10999000136823F0070343F002031360136803F016
:1099A0000703022B7FF47AACCDE72AA9C2F38343E5
:1099B0000B44D50313F8301C15D562684C4BC2F329
:1099C00040424B432AA90A4412F84C2CB3FBF2F351
:1099D00062684849C2F303128A5CD340464A136066
:1099E000FCF754FD5AE4454B4B43F1E7A36A43F0BF
:1099F0002003A3624FE5D8F800305B1A302B7FF6C6
:109A00006AAF95F82430012B46D001233C4885F8F5
:109A10002430FCF75BF800285FD1AB6A394A23F4A5
:109A2000407323F0010343F48073AB622B689342CD
:109A300004D135494A6812F4702F44D1AA6A22F43D
:109A40008012AA625A68520541BFAA6A22F44052A3
:109A500042F48052AA62AA6A12F480521CBFEA6AD7
:109A600022F00602EA62002285F824206FF002024A
:109A70001A609A6802F46022B2F5602F29D1214A57
:109A8000934205D1A2F58062526812F4702F20D162
:109A90009A6842F4A0029A6094F82430012B77D09F
:109AA000012384F82430174B1E939B6803F4602332
:109AB000B3F5602F2AD0A36A43F02003A3620023EA
:109AC00084F8243064E0AA6A42F48012AA624A68E8
:109AD000B9E79A6842F48012DDE7002385F8243064
