:020000040800F2
:1040000000500020614100089FAA0008A7AA0008EC
:10401000A5AA0008A3AA0008A1AA000800000000A1
:1040200000000000000000000000000041A00008A7
:104030009DAA000800000000F19F000869AA00087E
:10404000A9410008A9410008A9410008A9410008A8
:10405000A9410008A9410008A9410008A941000898
:10406000A9410008A9410008A94100085DAA00086B
:10407000A9410008A9410008A9410008A941000878
:10408000BDA00008B1A00008BDA80008A941000813
:10409000A9410008A9410008A9410008A941000858
:1040A000A9410008B1A80008A9410008A9410008D9
:1040B00099A80008A5A80008A9410008F9A10008CE
:1040C000C9A00008A9410008A9410008A9410008A9
:1040D000A9410008A9410008A9410008A941000818
:1040E000A9410008A9410008A941000800000000FA
:1040F00000000000000000000000000000000000C0
:0C41000000000000000000005FF8E0F18B
:1041100010B5054C237833B9044B13B10448AFF301
:1041200000800123237010BDA801002000000000C2
:1041300048AB000808B5034B1BB103490348AFF374
:10414000008008BD00000000AC01002048AB000862
:10415000034613F8012B002AFBD1181A01387047C7
:10416000002103E00B4B5B58435004310A480B4BD2
:1041700042189A42F6D30A4A02E00023136004323E
:10418000084B9A42F9D305F06DFF06F08DFC04F060
:104190006BFFFEE784C1000800000020A80100209A
:1041A000A8010020E8150020FEE70000214B30B5F3
:1041B00019464CF25035204A1468D868C00733D4E9
:1041C000DA68920644BF2022DA60CB68DD0606D4A6
:1041D000CB69DC0703D4C86810F0040023D0154A6B
:1041E000D36813F0100305D01449CB6943F00203E0
:1041F000CB611023D268500706D5104943F0040361
:10420000CA6942F00102CA610A4AD169C90708D5E0
:104210000A48C16941F00401C161D16921F001017D
:10422000D1610120D36030BD1068001BA842C4D901
:104230000320F8E7002002407C150020B81400207D
:1042400015490B681A6A22F001021A621A6A1A6288
:10425000124A93420DD141F21112186A104208D14C
:1042600040F24442186A104202BF5A6C22F40042E3
:104270005A6441F21112186A104208D140F24442C5
:10428000186A104202BF1A6822F001021A60012364
:10429000002081F83D30704770140020002C014050
:1042A000036800201A6A22F001021A621A6A42F0B8
:1042B00001021A62054A934202BF5A6C42F400425C
:1042C0005A641A6842F001021A607047002C0140DB
:1042D000144B10B5DB68C3F30223C3F107041A1DA6
:1042E000042C28BF0424062A88BFDA1E4FF0FF33AF
:1042F00098BF0022A34021EA0303002803FA02F337
:10430000A8BF00F160404FEA0313B8BF064ADBB212
:10431000B5BF00F00F0000F56140135480F8003382
:1043200010BD00BF00ED00E014ED00E090F83C305F
:10433000012B4FF0020314D080F83D3003685A6817
:1043400022F070025A605A685A609A6822F080021D
:104350009A609A689A60012380F83D30002380F8C3
:104360003C301846704700000A4B1B68013308D0E8
:104370004FF0500383F31188BFF36F8FBFF34F8F5C
:10438000FEE74FF0500383F31188BFF36F8FBFF345
:104390004F8FFEE7A401002048F2E8034343642066
:1043A000DB0B584340F23D13B0FBF3F0034BDA89CB
:1043B000904226BFDB89C01A0020704754150020A8
:1043C000F0B55442A042059E15463ADD602838DC1F
:1043D000002800EB0207BABF4442E4B20024602F79
:1043E000C4BFC0F16002D2B241BB164F00EB040C57
:1043F0003F6806EB040E674404EB010C5FFA8CFC8B
:10440000624515D8102B1CD1102B08BF29460E4B26
:1044100018BF00211D680023214420443144284452
:10442000E518EDB2AA420CD9CD5CC5540133F7E7CB
:104430001EF801C007F801C00131DDE70829E3D00B
:10444000E0E7F0BDB0100020B410002001280849BA
:10445000084A094B06D10948086008211170062254
:104460001A70704706480860102111700C22F7E797
:10447000D00F0020CC0F00207E11002008B40008CF
:10448000E8AC00080128F7B509D1134BB3F90020B7
:104490003AB912490A8008221A8003B0F0BD0028F8
:1044A000FBD00F4B0C4A1C780E4B92F900101B7876
:1044B0000D4FDA0862433F68023880B200FB027099
:1044C000064D0090B5F90060224630463444FFF7AF
:1044D00077FF2C80E1E700BF7C1100207A110020DB
:1044E0007E110020CC0F0020D00F002008B5094A13
:1044F000094B02301A601022084BC0B21A700C220D
:10450000074B1A70FFF7BEFFBDE808400020FFF719
:104510009DBF00BFE2BB0008D00F0020CC0F0020E1
:104520007E110020F8B51A4B04460E201D78FFF7C7
:10453000DDFF1F20B4FBF0F0C0F10A00C0B2154B44
:1045400005F10C01C608C9B21A680AD02B4600272B
:104550006C1E1444994204D9013304F8017FDBB284
:10456000F8E7FF23602400F0070003FA00F00023BF
:1045700004FB065460F0FF002244EC18E4B2A142B0
:1045800004D9D45C0440D4540133F6E7F8BD00BF2D
:104590007A110020B010002010B5441E14F8010F4D
:1045A00010B1FFF76FFFF9E710BD002337B50429FD
:1045B0000093CDF8033032D90A23B0FBF3F403FBA8
:1045C000140502358DF80550B4FBF3F505FB1343D4
:1045D00002338DF804306423B0FBF3F00A23B0FB00
:1045E000F3F403FB140002308DF80300A0B20A2399
:1045F000B0FBF3F403FB140002308DF80200A0B20C
:104600000A23B0FBF3F403FB140002308DF8010021
:10461000A0B209E06846FFF7BFFF03B030BDDDD0B0
:104620000329E4D00129EBD10A24B0FBF4F304FB05
:10463000130002308DF80000002AEBD000230E2278
:1046400001399942E6DD1DF803000228E2D10DF898
:1046500003200133F5E7000037B5002405460120AB
:10466000FFF7F4FE0A4B1C800A4B1C800A4B53F8E0
:104670002500FFF791FF102308481A4600EB45106C
:10468000009021464E20FFF79BFE03B030BD00BFD7
:104690007A1100207C11002008AC0008A3BD00089E
:1046A0000320FFF7D9BF0220FFF7D6BF0120FFF795
:1046B000D3BF0020FFF7D0BF054A538B0A339BB20C
:1046C0005383538B642B84BF0A235383704700BFEB
:1046D00054150020054A938B05339BB29383938B2B
:1046E000322B84BF05239383704700BF54150020ED
:1046F000034A137EB3FA83F35B091376704700BF56
:104700005415002005490B7A0A7AC3F3400383F05D
:10471000010363F341020A72704700BF5415002081
:10472000074B9A7999799209013262F3871199714D
:1047300099799A79890961F387129A71704700BF54
:1047400054150020054A93890A339BB293819389BB
:10475000B3F5E17F84BFFA2393817047541500209D
:1047600005490B7A0A7A03F0010383F0010363F32E
:1047700000020A72704700BF54150020054B1A7AD8
:1047800012F0100F1A7A0CBF42F010026FF30412ED
:104790001A72704754150020044A937C402B8FBF37
:1047A0000523937C0533DBB29374704754150020C6
:1047B000034A537CB3FA83F35B095374704700BF19
:1047C0005415002005490B7A0A7AC3F3800383F05D
:1047D000010363F382020A72704700BF5415002080
:1047E00005490B7A0A7AC3F3C00383F0010363F32C
:1047F000C3020A72704700BF541500200A200A4BFA
:104800009A799979C2F38302013262F38501997131
:104810009A79C2F3830292FBF0F100FB11219A799D
:1048200061F385029A71704754150020084BDA79BC
:104830000132D2B2DA71DA793C2A84BF0022DA710D
:10484000044A1278032A04BF0022DA71704700BFBD
:104850005415002004090020084B1A790132D2B205
:104860001A711A790F2A84BF00221A71044A127829
:10487000032A04BF00221A71704700BF541500209C
:1048800004090020054A53880A339BB25380538899
:10489000B3F5967F84BF32235380704754150020B0
:1048A000052207494B79013393FBF2F202EB8202B6
:1048B0009B1ADBB24B714B790BB100234B747047E1
:1048C00054150020002814BF10201120FFF70EBE41
:1048D000054B1B785843054B1880054B1B785943F3
:1048E000044B1980704700BF7E1100207A11002010
:1048F000CC0F00207C11002070B5054601200E462B
:10490000FFF7A4FD0021104C0846FFF7E1FF54F823
:104910003500FFF741FE04EBC50401210020FFF73D
:10492000D7FF6068FFF738FE0020FFF78FFD0021FA
:1049300030B2FFF7CDFF054A1388023B13800022F7
:10494000034B1A8070BD00BF18AC00087A1100201C
:104950007C11002005210E20FFF7CEBF08B50521F0
:104960001920FFF7C9FF044B0122588B0321BDE832
:104970000840FFF71ABE00BF5415002008B50521F6
:104980001820FFF7B9FF044B0122988B0321BDE8E3
:104990000840FFF70ABE00BF5415002008B51720D5
:1049A0000721FFF7A9FF044B187EBDE8084000303F
:1049B00018BF0120FFF786BF5415002005210C20E9
:1049C000FFF79ABF07210D20FFF796BF08B50B2010
:1049D0000721FFF791FF044B187ABDE80840C0F3A8
:1049E0004000FFF76FBF00BF5415002008B5072136
:1049F0000A20FFF781FF094B9B799B09022B08D006
:104A000009D8012B14BF06480648BDE80840FFF747
:104A1000C3BD0548F9E70548F7E700BF5415002076
:104A200003BF000805BF000807BF000809BF000852
:104A300008B505210920FFF75FFF044B0122988983
:104A40000321BDE80840FFF7B0BD00BF54150020AA
:104A500008B508200721FFF74FFF044B187ABDE87F
:104A6000084000F00100FFF72DBF00BF54150020E3
:104A7000072108B50846FFF73FFF084B9B7903F075
:104A80000303012B06D0022B06D00548BDE80840E1
:104A9000FFF782BD0348F9E70348F7E75415002004
:104AA000FDBE0008FFBE000801BF000808B51020C9
:104AB0000721FFF721FF064B06481B7A13F0100F62
:104AC000054B08BF1846BDE80840FFF765BD00BFAD
:104AD0005415002003BF000807BF000808B50521D2
:104AE0001620FFF709FF054B0122987C0221FFF7F2
:104AF0005CFDBDE808400248FFF74EBD541500209C
:104B0000F2BE000808B515200721FFF7F5FE044B9B
:104B1000587CBDE80840003018BF0120FFF7D2BE26
:104B20005415002008B506200721FFF7E5FE044BC9
:104B3000187ABDE80840C0F38000FFF7C3BE00BF8D
:104B40005415002008B50F200721FFF7D5FE044BB0
:104B5000187ABDE80840C0F3C000FFF7B3BE00BF3D
:104B60005415002008B507210420FFF7C5FE054BAA
:104B7000002298790121BDE80840C0F38300FFF7C7
:104B800014BD00BF5415002008B505210320FFF710
:104B9000B3FE074BDA7922B90648BDE80840FFF7B3
:104BA000FBBCD87901220221FFF7FFFC0248F4E7A1
:104BB00054150020F7BE0008FBBE000808B505210B
:104BC0000220FFF799FE0E4B1A7922B90D48BDE875
:104BD0000840FFF7E1BC1A791879052A08D80122A4
:104BE00000EB800090400221FFF7DFFC0648EEE773
:104BF000053880B201220221FFF7D7FC0348E6E71F
:104C000054150020F7BE000807BF0008FBBE0008CF
:104C100008B505210120FFF76FFE044B01225888DB
:104C20000321BDE80840FFF7C0BC00BF54150020B9
:104C300008B506210020FFF75FFE084B5A7952B1F4
:104C40000122587911460230FFF7AFFC0448BDE855
:104C50000840FFF7A1BC0348F9E700BF5415002046
:104C600007BF0008F4BE000870B5214A9368926837
:104C700083F4007312F0400F0CBF02220022C3F332
:104C800040231A43D3B21AB11A4A11681A4A116062
:104C90001A4A107898420ED133B3164A184912684E
:104CA0000968521A282A1FD9012B1FD0022B14BFC2
:104CB0000020082070BD0F4D114C3BB1032808BFE8
:104CC0000323002013702B682360F3E7296826680C
:104CD000891B272906D80128F4D002280CBF0220FE
:104CE0001020EFE71846EDE70020E3E70420E1E7B6
:104CF00000080140E0150020B0140020D011002071
:104D0000D41100201FB50020194B1B68DA6BADF8D9
:104D100000201A6CADF802205A6C9B6CADF8042090
:104D2000ADF80630134B1B68DA6BADF808201A6C2F
:104D3000ADF80A205A6C9B6CADF80C20ADF80E3023
:104D400003463DF8132001331044082B80B2F8D1FC
:104D5000094A137D116932F8134022F81300091B28
:104D60000133014403F007031161137504B010BD52
:104D7000641200209412002038150020037F082BB5
:104D800001D1FFF75DBA70474FF0500383F31188EC
:104D9000BFF36F8FBFF34F8FFEE70000054B1B681B
:104DA00033B1054B1B68002B0CBF0220002070475D
:104DB00001207047DC15002088150020064A136882
:104DC0001968064B19B94FF0FF321A607047126824
:104DD000D268D2685268F8E7E0140020C0150020BD
:104DE00008B9064B1868026B1346981A13F8011B92
:104DF000A529FAD0C0F38F00704700BFDC14002053
:104E00004FF080554AF6AA220648074C0749036826
:104E1000012B04D92560BFF34F8FBFF36F8F0B6851
:104E20001A60F4E7E814002004ED00E0E413002029
:104E3000EFF305830F2B0ED9104A9B5C104A1278B2
:104E40009A4208D94FF0500383F31188BFF36F8F54
:104E5000BFF34F8FFEE70B4B0B4A1B68126803F43E
:104E6000E063934208D94FF0500383F31188BFF3F6
:104E70006F8FBFF34F8FFEE7704700BFF0E300E096
:104E8000741500200CED00E078150020084A136826
:104E900043B94FF0500383F31188BFF36F8FBFF313
:104EA0004F8FFEE7013B13600BB983F31188704706
:104EB000A401002008B54FF0500383F31188BFF31D
:104EC0006F8FBFF34F8F074A13680133012B1360B5
:104ED00006D1054B1B6813F0FF0F01D0FFF754FFFD
:104EE00008BD00BFA401002004ED00E0F8B5FFF705
:104EF000E1FF0D4C0D4A0568166823689D42456820
:104F000001D0AE420ED20B68771B9F420AD29B1B88
:104F10002B440B6023680360136843600020FFF795
:104F2000B5FFF8BD0120FAE7C4150020E015002008
:104F300006480068006880F3088862B661B6BFF36F
:104F40004F8FBFF36F8F00DF00BF000008ED00E060
:104F50000369D0E901128A60826851605968814210
:104F600008BF5A6000220261186801381860704753
:104F70000A6830B5531C0AD103695A684A609160C7
:104F80008B605960036808610133036030BD00F134
:104F900008035C6825689542EFD82346F9E70000CE
:104FA00070B5154B154E1C68054630680430FFF788
:104FB000CFFF334640B931681148CE6A01210268FB
:104FC000B14022EA010202601A686419546007D3F2
:104FD000BDE870400B4A106819680431FFF7C8BF7C
:104FE000094A106819680431FFF7C2FF074B1A68B5
:104FF000944238BF1C6070BDE0150020DC14002016
:1050000090150020E4140020E0140020C0150020BA
:1050100010B50C46044B19681831FFF7A9FF20465C
:10502000BDE81040FFF7BCBFDC14002043689A685D
:105030004B608A609A685160996003680861013327
:105040000360704738B5C368DC6844B94FF050035B
:1050500083F31188BFF36F8FBFF34F8FFEE704F127
:1050600018052846FFF774FF114B1B68E3B9251D8F
:105070002846FFF76DFF01230E49E26A0868934056
:10508000034314200B6029460B4B00FB0230FFF753
:10509000CDFF0A4BE26A1B68DB6A9A4285BF01209A
:1050A000074B0020186038BD29460648EFE700BFCF
:1050B0008815002090150020E8140020DC14002042
:1050C000E4150020C8150020202210B5214B1B68D4
:1050D00083F83D20204B1868002835D0036C43B17D
:1050E0004FF0500383F31188BFF36F8FBFF34F8FDF
:1050F000FEE7036853B9436843B14FF0500383F3AD
:105100001188BFF36F8FBFF34F8FFEE7FFF790FE5D
:10511000EFF311844FF0500383F31188BFF36F8FC7
:10512000BFF34F8F826BC36B9A420BD290F845301E
:1051300001325BB282635A1C07D1436A13B1243037
:10514000FFF780FF84F3118810BD01335BB280F854
:105150004530F7E7CC110020801100202DE9F04107
:105160000446FFF7A7FE4FF0010890F845501B4F8B
:105170006DB200F12406002D17DCFF234FF001086B
:1051800084F84530FFF782FEFFF794FE94F8445010
:10519000124F6DB204F11006002D12DCFF2384F8CB
:1051A0004430BDE8F041FFF771BE636A002BE4D0E4
:1051B0003046FFF747FF08B1C7F80080013D6DB2E8
:1051C000D9E72369002BE9D03046FFF73BFF08B150
:1051D000C7F80080013D6DB2DEE700BFE415002096
:1051E0002DE9F84F3C4B1B68002B6ED13B4B1C68E4
:1051F00001341C60BCB93A4B1A68126842B14FF0D6
:10520000500383F31188BFF36F8FBFF34F8FFEE717
:10521000344A1968106818601160334A1368013302
:105220001360FFF7CBFD314D4FF0000B2B68304F73
:10523000A34211D93A682F4BD16A14224A439A5893
:10524000022A28BF4FF0010B2B4A1268002A0CBF1C
:1052500058460120BDE8F88FDFF884A0DFF8A09061
:10526000DAF8002012681AB94FF0FF322A60E1E73D
:10527000DAF80020D268D66871688C4201D22960C1
:10528000D8E706F104084046FFF762FEB16A19B19B
:1052900006F11800FFF75CFE01224FF0140CF06AD3
:1052A000D9F8003002FA00F11943124BC9F8001086
:1052B0000CFB00304146FFF7B9FE3868F16AC26A5C
:1052C000914228BF4FF0010BCAE70C4A4FF0000B88
:1052D000136801331360B7E788150020E01500203C
:1052E000E0140020E4140020C4150020C0150020A4
:1052F000DC140020E8140020E415002084150020B0
:105300009015002031492DE9F8430B6843B94FF05F
:10531000500383F31188BFF36F8FBFF34F8FFEE706
:10532000FFF7C8FD0B68013B0B600C6824B100203F
:10533000FFF7ACFDBDE8F883254B1B68002BF6D0CA
:10534000244D254EDFF8A4801FE0EB680127DC68C0
:1053500004F1040904F11800FFF7FAFD4846FFF7CD
:10536000F7FD1420E26A316807FA02F30B4300FBF1
:10537000028049463360FFF759FE184BE26A1B680A
:10538000DB6A9A4201D3164B1F602B68002BDCD1DD
:105390000CB1FFF713FD134D2C6844B10127104EDB
:1053A000FFF71EFF00B13760013CF9D12C600C4BB8
:1053B0001B68002BBBD04FF080520B4B1A60BFF321
:1053C0004F8FBFF36F8F0120B2E700BF8815002019
:1053D00080150020C815002090150020DC14002046
:1053E000E41500208415002004ED00E0E8140020FE
:1053F00008B540B94FF080520A4B1A60BFF34F8F87
:10540000BFF36F8F08BD084B1A680AB1FFF7BCFCE9
:105410001A6801321A60FFF7C3FDFFF773FF002817
:10542000E8D0EFE704ED00E0881500200520FFF745
:10543000DFBF000070B50D4C25680544FFF714FC74
:10544000064656B1FFF710FC0646FFF7EFFF23684C
:105450009D42F6D270BD002EFCD1FFF705FC06463A
:10546000FFF7E4FF23689D42F5D2F3E7E015002043
:10547000064B03EB400000231A4630F8231001339B
:10548000202B0A44F9D1C2F38F007047C4010020D9
:105490002DE9F843174D04462E788946DFF85C80E5
:1054A00056B100270120FFF7E3FF48F82700013736
:1054B000202FF7D1013E2E70B9F1000F0AD0012044
:1054C000FFF7D6FF0C4A137848F82300013303F0A6
:1054D0001F0313700022134658F822100132202AAD
:1054E0000B44F9D158098000B0FBF4F080B2BDE85C
:1054F000F88300BF58010020D8110020DC110020E3
:1055000010B50E4B041E588903DCFFF7C1FF0020C5
:1055100010BDFFF7BDFF55234043B0FBF3F04FF440
:105520008873C0EB0020B0FBF3F0C4EB0424B4FBA1
:10553000F0F0FF2828BFFF20C0B2E9E75415002093
:1055400010B50121FFF7DCFF0A22114B04461A8037
:10555000104B00211870104B5889FFF799FF552305
:105560004043B0FBF3F04FF48873C0EB0020B0FB76
:10557000F3F0FF234443B4FBF3F4E823074A116834
:105580004B43182101FB0434240A146010BD00BFF2
:10559000680B0020D814002054150020941500201A
:1055A00010B50E4B5A79B2B15C7900215889FFF7DA
:1055B0006FFFE4B20234E4B290FBF4F02128B8BFEC
:1055C00021202138092828BF09200430C0B2BDE8B5
:1055D0001040FEF78BBF0F20F9E700BF54150020E5
:1055E00070B50D4B00215889FFF752FF0A25B0FB1B
:1055F000F5F4064601220221A0B2FEF7D6FF0748C5
:10560000FEF7CAFF012205FB1460BDE87040114699
:1056100080B2FEF7CABF00BF5415002019BA0008B7
:1056200008B50020FFF724FFA0F59B536420053B3D
:10563000584340F2E13390FBF3F080B208BD10B55F
:1056400047F66F60FEF7A8FE40F295144443FFF75B
:10565000E7FF0A23B0FBF3F042F21073B4FBF3F45C
:1056600080B22044013810BD10B590B1FFF74AFB5D
:10567000FEF792FE40F295144443FFF7D1FF0A2350
:10568000B0FBF3F042F21073B4FBF3F480B22044A9
:1056900010BD034B1869082390FBF3F080B2E7E7D5
:1056A0003815002010B504460020FFF7DDFF012269
:1056B000032180B2FEF779FF8CB1094B094A1B68C0
:1056C000934207D0084A934204D0BDE8104001201D
:1056D000FEF70CBF0548BDE81040FEF75DBF10BDEA
:1056E000D00F002008B40008E2BB0008F5BE000897
:1056F000064B186910F0800007D0054A5A6002F185
:1057000088325A601869C0F3C01070470020024008
:105710002301674570B40425C66B026C34680368C6
:1057200095402542196832D04D0730D51A68960643
:105730005EBF1A6822F004021A603E4A934219D0F2
:105740001432934218D01432934217D01432934239
:1057500017D01432934217D0143293420CBF4FF437
:1057600080034FF08063344A5360C36A002B5ED0DD
:1057700070BC18470423F6E74023F4E74FF4806336
:10578000F1E74FF48043EEE74FF48023EBE7022587
:105790009540254235D08D0733D51A68940606D436
:1057A0001A6822F00A021A60012280F82120214A98
:1057B000934219D01432934218D01432934217D026
:1057C0001432934217D01432934217D014329342BA
:1057D0000CBF4FF400134FF00073174A53600023BF
:1057E00080F82030836AC1E70223F6E72023F4E73C
:1057F0004FF40073F1E74FF40053EEE74FF400333A
:10580000EBE708259540254211D009070FD5196807
:1058100021F00E011960012303FA02F27260836322
:1058200080F82130002380F82030036B9EE770BCA5
:10583000704700BF0800024000000240F0B590F839
:105840002040012C35D0012490F8215080F82040D0
:10585000A5424FF000064FF0020428D180F8214005
:1058600004688663266826F001062660D0E90F6783
:10587000BD407560636043680568102BC36A0BBF49
:10588000A260A160E160E2604BB1236843F00E03C7
:10589000002023602B6843F001032B60F0BD2368D8
:1058A00023F004032360236843F00A03F0E780F841
:1058B00020600220F2E7436A9A6A42F040029A624C
:1058C000DA6A42F00402DA6270477047436A9A6A01
:1058D00012F0500F18D19A6A42F400729A621A6854
:1058E000926802F46022B2F5602F10D1DA6872B9C2
:1058F0009A6A22F480729A629A6AD20407D49A6AE7
:1059000042F001029A6270471B6A1B6B184770478E
:10591000036810B59A68D40701D4002010BD9A68B6
:1059200022F001029A60094A14689968C907F4D5FF
:105930001168091B0229F8D9836A43F010038362B6
:10594000C36A43F00103C3620120E7E77C1500202E
:10595000002337B5026801939368DB0702D5002066
:1059600003B030BD9368124943F001039360114BBB
:105970001B68B3FBF1F30193019BABB90E490D68B2
:10598000936813F00103EAD10C68641B022CF7D969
:10599000826A80F8243042F010028262C26A42F0C9
:1059A0000102C2620120DBE7019B013BE3E700BF8C
:1059B00040420F00340000207C15002070B50568BF
:1059C000124E6B6913F0400301D000200EE06C69A9
:1059D00014F010040BD06FF010026A6120220364EF
:1059E00080F83C30036380F83D20012070BD3368AF
:1059F0009B1A8B42E5D9036C80F83C4043F02003AE
:105A00000364202380F83D300320EFE77C1500205D
:105A100070B50568134E6B6913F0040301D00020C4
:105A20001FE06C6914F480640FD133689B1A8B42B9
:105A3000F1D9036C80F83C4043F020030364202339
:105A4000046380F83D3003200BE06FF480626A61EC
:105A5000042202642022036380F83C3080F83D2059
:105A6000012070BD7C15002070B50568134E6B6970
:105A700013F0800301D000201FE06C6914F48064EF
:105A80000FD133689B1A8B42F1D9036C80F83C40EC
:105A900043F0200303642023046380F83D30032097
:105AA0000BE06FF480626A610422026420220363C7
:105AB00080F83C3080F83D20012070BD7C1500202E
:105AC000F0B50568144F89B26C6931EA040401D15C
:105AD000204614E06C6914F4806411D02B682022F5
:105AE00043F400732B606FF480636B6104230364E1
:105AF0000023036380F83C3080F83D200120F0BD96
:105B00003E68F61A9642DFD92023046380F83C40B1
:105B100080F83D300320F2E77C150020F0B5DFF877
:105B200044C005680F0C89B2012F0CBF6C69AC69C9
:105B300031EA04040CBF01240024A24201D0002059
:105B40000FE0DCF80040059EA41B9C42ECD900232A
:105B50002022036380F83C3080F83D2080F83E30FE
:105B60000320F0BD7C150020436A1A68116821F4F7
:105B7000806111600021586B59854163986B4163C6
:105B800093F83D0060284FF0200083F83D0083F833
:105B90003E1006D11964136823F001031360FFF768
:105BA00093BA136823F00103136000BEF7E7000007
:105BB00010B590F82130022B03D004238363012019
:105BC00010BD03681A6822F00E021A601A6822F0EB
:105BD00001021A60194A934220D0143293421FD016
:105BE000143293421ED0143293421ED01432934288
:105BF0001ED0143293420CBF4FF480134FF08073C9
:105C00000F4A00245360012380F82130436B80F851
:105C1000204083B1FFF7A8FF2046D1E70123EFE73B
:105C20001023EDE74FF48073EAE74FF48053E7E782
:105C30004FF48033E4E71846C2E700BF0800024093
:105C40000000024010B5444C94F83D202368293AE6
:105C5000012A36D800222263282284F83D201A68BF
:105C600022F400621A605A6812F4006251D05A6835
:105C700022F400625A60606B90F82130012B374BA0
:105C80002ED04363FFF794FF50B12268136823F0CE
:105C9000010313602023606B84F83D30436B984709
:105CA00094F83D30282B0BD1236C5B0708D52C4B87
:105CB0002022E3620023236384F83D2084F83E30F1
:105CC00010BD94F83D20602A05D05A6812055CBFCB
:105CD000202284F83D200022226384F83E20BEE783
:105CE000A06B4363FFF764FF0028D9D023685A698B
:105CF000500604D51A69636A591C61621A702268D9
:105D0000136823F0010313602023A06B84F83D3057
:105D1000C4E794F83D10602913D1202184F83D1088
:105D200022645A69510604D51A69636A591C616272
:105D30001A702268136823F001031360FFF7C4F997
:105D4000AEE75A69520604D51A69636A591C616242
:105D50001A7000BEF2E700BF90130020695B0008D4
:105D60000000FFFF436A19680A6822F480620A6033
:105D7000002220215A8583F83D1083F83E201A6CBA
:105D800042F010021A6400BEFFF79EB9426A92F810
:105D90003D1092F83E00C9B22129C0B2136803D069
:105DA00022290CD120280AD1596821F400615960B8
:105DB000002151855A6842F440725A607047196850
:105DC00021F480611960196841F400711960596803
:105DD00021F480515960596821F400615960002311
:105DE0005385136C13B100BEFFF76EB9202182F802
:105DF0003D1092F83E1082F83E30F5E7012310B5D1
:105E000080F824300446FFF7A3FD00283FD1A36AA1
:105E1000214A23F4405323F0010343F48053A36247
:105E20002368934205D1A2F58062526812F4702F64
:105E300025D1A26A22F48012A262A26A12F48072B0
:105E400008BFE262002284F824206FF004021A6086
:105E50005A68520512D49A6802F4E042B2F5E04F53
:105E600011D10D4A934205D1A2F58062526812F415
:105E7000702F08D19A6842F402129A6010BDA26A8B
:105E800042F48012D8E79A6842F40042F5E7002312
:105E900084F82430F2E700BF00280140F7B502463D
:105EA000002092F824300190012B00F0D1800127CE
:105EB000D2F808C082F82470D1E900561368BCF10A
:105EC000000F7AD1BE4272D160469C6BA40DA4052E
:105ED00044EAC5349C639C68E40707D49C68CF6996
:105EE00024F4E04424F001043C439C608C69012CC0
:105EF0000DD1CF69B7F5E04F17BF906A5F6840F0EA
:105F00002000906212BF204647F480675F604F69AF
:105F1000012F05D1002C70D15C6844F480545C6082
:105F2000092D05EB4504D1F808E04FF007076AD9C1
:105F3000D3F80CC01E3CA7402CEA07070EFA04F465
:105F40003C43DC60A5F11004012C98BF9F68DFF88A
:105F500010C19CBF47F400079F60022ECF685CD041
:105F6000032E60D0012E64D1596901EA0C01394336
:105F70005961012C16D837498B4263D199680902BF
:105F800010D49968102D41F4000199600AD1324B68
:105F900032491B68B3FBF1F10A234B430193019B88
:105FA000002B4CD1002382F8243003B0F0BD946A5A
:105FB000384644F0200494628DE71F27D1F810C0C2
:105FC000A6EB0C0404EB84040F34A74047F44017FD
:105FD000B4456FEA07070CD3D3F838E00CF1FF3C67
:105FE00005FA04F444EA0C540EEA07073C439C63A8
:105FF00071E79C6B27409F636DE7906A40F020003B
:10600000906238468CE7D3F810C0A7402CEA070707
:106010000EFA04F427431F6194E7996901EA0C0121
:1060200039439961A5E7D96901EA0C013943D9617E
:106030009FE7196A01EA0C013943196299E7019B4C
:10604000013BABE7936A012043F020039362A9E789
:106050000220AAE7002401403400002040420F0043
:1060600000F0FFFF002337B5019390F82430044679
:10607000012B5FD0012380F82430FFF749FC05464F
:10608000002839D1A36A2C4823F4885323F0020353
:1060900043F00203A362294B1A68294B59685B68D5
:1060A000C1F3C221415CC3F38133013322FA01F110
:1060B0005B00B1FBF3F3B2FBF3F252000192019BE0
:1060C000F3B92046FFF744FC23689A6842F00802BF
:1060D0009A601C4A10689968090715D4996841F0BC
:1060E000040199601068996849071ED4A36A23F0D7
:1060F000030343F00103A362002384F8243011E07A
:10610000019B013B0193DAE71168091A0A29E2D9D8
:10611000A36A012523F0120343F01003A3620023B6
:1061200084F82430284603B030BD1168091A0A29C2
:10613000D9D9EDE70225F5E7D4AB000834000020FB
:10614000001002407C150020034B013019681A68CA
:10615000521A8242FBD370477C1500202DE9F0478C
:106160004AF6AA242D4E2E4D33681C603523EB6071
:10617000FFF7BEFA0A20FFF7E7FF33681C60294CDF
:10618000237E012B17D001232376FEF70FF880B969
:10619000E0612B6943F002032B61234B6B612B6998
:1061A00043F040032B61FEF701F82B6923F0020353
:1061B0002B6100232376FFF79BFA1B4DDFF86C90D1
:1061C000174FDFF86C804AF6AA2233681A6005F18F
:1061D0007843A3F57C4339F803A0237E012B13D029
:1061E00001232376FDF7E2FF60B9E0613B6943F0EC
:1061F00001033B61A5F800A0FDF7D8FF3B6923F040
:1062000001033B610023237602354545DBD1044A77
:10621000136943F080031361BDE8F087E4130020A5
:1062200000200240B814002000FC00085415002093
:1062300020FC00081A4A036890420AD0B0F1804F4F
:1062400007D0A2F59432904203D002F580629042CA
:1062500015D14A6823F070031343114A90420AD0C3
:10626000B0F1804F07D0A2F59432904203D002F5EE
:106270008062904203D1CA6823F4407313434A6991
:1062800023F08003134303608B68C3620B6883624F
:10629000034B984204BF0B690363012343617047BA
:1062A000002C014013B590F83D30044603F0FF0286
:1062B00000687BB9144B84F83C20984216D103F552
:1062C0000333DA6942F00202DA61DB6903F00203A8
:1062D0000093009B0223211D84F83D30FFF7AAFFA5
:1062E0000123002084F83D3002B010BDB0F1804F92
:1062F000F0D1064BDA6942F00102DA61DB6903F0A2
:1063000001030193019BE5E70004004000100240F7
:1063100013B519200021FDF7DBFF4FF000721C4B75
:106320001C4C1A601C4B20469A6942F400629A6128
:106330009A6902F400620192019A5A685A685A688E
:106340005A68164A12685B68154AC3F3C223D25CC6
:10635000144B1B68D340144AB3FBF2F3134A013BBE
:106360002260636040F2E7320023E2602361A360B1
:10637000FFF798FF50B92368DA6842F00102DA604B
:106380001A6842F001021A6002B010BD0120FBE75A
:1063900000E100E0F0130020001002400020024065
:1063A000D4AB00083400002040420F00002C014014
:1063B00010B5036804461A6991070ED5DA6892078A
:1063C0000BD56FF002021A61012202779B699B07CD
:1063D00001D1FEF7D3FC0023237723681A69500705
:1063E00010D5DA6851070DD56FF004021A61022248
:1063F00022779B6913F4407F02D12046FEF7BEFC52
:106400000023237723681A6912070FD5DA6810076B
:106410000CD56FF008021A6104222277DB69990714
:1064200002D12046FEF7AAFC0023237723681A69CD
:10643000D20610D5DA68D0060DD56FF010021A61B9
:1064400008222277DB6913F4407F02D12046FEF751
:1064500095FC0023237723681A69D1071CD5DA68D5
:10646000D20719D56FF001021A612368B3F1804F8A
:1064700034D11E4A1E4913880968013B9BB2138020
:106480001C4B1B78DBB20B640B6C23B313889BB2E1
:106490000BB31948FDF704FF23681A69100605D5E8
:1064A000DA68110644BF6FF080021A6123681A6926
:1064B000520605D5DA68500644BF6FF040021A61F3
:1064C00023681A69910605D5DA68920644BF6FF011
:1064D00020021A6110BDFDF7B3FEDDE7074A9342C3
:1064E00001BF074A136801331360D5E7680B00202A
:1064F00030140020D814002070140020002C01401B
:106500007C15002010B590F83D30044603F0FF02E2
:106510000BB980F83C200223206884F83D30211D0F
:10652000FFF788FE0123002084F83D3010BD0000F5
:106530002DE9F74F00221646654BDFF8A4C1DFF8BE
:10654000A4E14FF001080C6808FA06F808EA040410
:10655000A0457ED14D68122D00F0AE8000F28780FC
:10656000022D00F0A6807BD8002D00F08D80012D3B
:1065700000F09D804FF00F09FF2C93BF824606F17B
:106580008045083DD0F800B092BFB500D0F804B007
:10659000AD0009FA05F82BEA080802FA05F588BFEC
:1065A00000F1040A48EA0505CAF80050D1F804A031
:1065B0001AF0805F4DD0474F26F00308BD6908F1FF
:1065C000804845F00105BD61BD6908F5803805F0DA
:1065D0000105019506F0030B019D4FEA8B0BD8F8DE
:1065E000085009FA0BF925EA09093B4DA84268D081
:1065F00005F58065A84266D005F58065A84264D09F
:1066000005F58065A8420CBF0325042505FA0BF5A6
:1066100045EA0905C8F808501D681AF4803F14BF00
:106620002543A5431D605D681AF4003F14BF254350
:10663000A5435D609D681AF4801F14BF2543A543E0
:106640009D60DD681AF4001F14BF2C4325EA040482
:10665000DC600136102E7FF474AF03B0BDE8F08F1C
:10666000032D22D0112D85D1CA68043282E71B4F39
:10667000BD4209D012D8DFF870904D4504D009F51D
:1066800080394D457FF476AF8A68C2B1012A0CBFCC
:10669000C0F81080C0F8148008226BE76545F3D07D
:1066A0007545F1D0DFF84490EBE7002262E7CA6855
:1066B00060E7CA6808325DE7CA680C325AE704220C
:1066C00058E70025A2E70125A0E702259EE700BFC5
:1066D00000040140001002400008014000002110A9
:1066E00000003110000032100000111000002210D4
:1066F00070B5816A86B00446002941D10268624BB8
:10670000C1629A4280F8241003F56C439A6940F004
:106710008C8042F400729A6180254FF480729B69EC
:106720004FF4806C03F400730293029B574B58485C
:10673000C3E903522022C3E905C24FF44052C3E922
:106740000001DA61534A19649960DA63026822F43D
:106750007F5222F0300242F4565242F02002026090
:106760000122996383F8212083F8201023625C6260
:106770000F211220FDF7ACFD4FF48022464B1A602A
:106780002046FFF7C5F8A36A13F0100FA36A76D16D
:10679000002874D1E16923F48853626823F002036E
:1067A00043F002030A43A168A362E368B1F5807F66
:1067B00042EA43024AD0012914BF06464FF48076CC
:1067C0006569012D07D1002B42D1A369013B46EA3F
:1067D000433545F400662368B1F5807F5D6825F494
:1067E000694545EA06055D609E682C4D05EA06058B
:1067F00045EA02059D6001D0012932D121690139A4
:106800000905DD6A25F470052943D9629968244B8E
:106810000B409A4227D10023E362A36A23F00303CB
:1068200043F00103A36206B070BD42F480629A6136
:106830009B69012203F480630193019B032302A956
:106840001848CDE90223FFF773FE91E70E46B7E73C
:10685000A36A43F02003A362E36A43F00103E36207
:10686000B9E70021CDE7A36A23F0120343F0100338
:10687000A362E36A43F00103E3620120D3E743F03C
:106880001003A362F9E700BF00240140C4120020F6
:10689000080002400000024000E100E0FDF7E1FFD7
:1068A000FE0E1FFF000C0140F0B5044687B010B982
:1068B000012007B0F0BD90F83D306B4E03F0FF05AE
:1068C000002B61D1C02212230127CDE9022302232C
:1068D00080F83C5002A96548CDE90473FFF728FE13
:1068E0004FF0800E1821F369614843F40013F361FF
:1068F000F369604A03F400130193019B5E4BDFF8D8
:10690000A0C1C3E903E5C3E90005C3E90555C3E92F
:106910000F219D60DD61016801EA0C0141EA0E0171
:10692000016010209D63554983F82050A36383F8CC
:1069300021705C62524BC3E900104FF48050D86163
:106940001420C3E9025EC3E90455C3E90F209D6129
:106950000A681F2002EA0C0242F4845242F010023C
:106960000A609D630F21636383F8205083F82170D0
:106970005C62FDF7ADFC4FF00043424D0F212B60F0
:106980002020FDF7A5FC6F602423206884F83D30AB
:1069900003683D4A23F00103036073683B49C3F376
:1069A0000223D35C3A4A1268DA4063688B4230D8DB
:1069B00038498A427FF67CAF3749B2FBF1F141603A
:1069C000013101623149013A8B4232D85B00B2FB9E
:1069D000F3F2531CC3F30B03042B38BF0423C3612E
:1069E000D4E9073213430360D4E9032313438360DC
:1069F000D4E905321343C360036843F00103036025
:106A000000202023206484F83D30206384F83E0079
:106A10004FE722498A427FF64BAF1F4D4FF49671E4
:106A2000B2FBF5F5694345604FF47A75B1FBF5F1BA
:106A3000C6E7A16851B903EB4303B2FBF3F301339B
:106A4000C3F30B036BB143F40043C8E719214B4375
:106A5000B2FBF3F30133C3F30B0313B143F440432D
:106A6000BDE70123BBE700BF00100240000C01405E
:106A70008000024000000240081300206C00024029
:106A80004C13002000E100E0D4AB0008A086010018
:106A9000340000207F841E0040420F00FF083D00AC
:106AA0000FC0FFFF2DE9FF412E4F11203B6840250D
:106AB0001A684FF0800813682B4C23F00103136011
:106AC0000123CDE90103022304AE46F8105D3146EF
:106AD00020460393FFF72CFD2561CDF80080FFF7DA
:106AE00027FD65234FF48002C4F81080A1680906D1
:106AF0002ED5122201234FF04008CDE901230223B5
:106B00008025314618480393CDF80080FFF710FD2B
:106B100015480095FFF70CFDC4F8108025613B680F
:106B20001A68136843F40043136000BF3B681A6897
:106B3000136823F40043136000BF386802681368C9
:106B400043F001031360FFF7AFFE04B0BDE8F0812E
:106B5000226100BF00BF00BF00BF013B2561C5D15E
:106B6000F3E700BFCC110020000C0140F0B590F815
:106B70003C30012B4FF0020337D080F83D300368E2
:106B80000E681A6A22F001021A621A6A5D689C692C
:106B900022F0020224F0730434438E683243144E10
:106BA000B3420BD1CE6822F00802324325F440757F
:106BB000D1E905673E4322F0040235435D609C61E4
:106BC0004C6809695C631A629A6942F008029A612A
:106BD0009A6922F004029A619A690A439A61012330
:106BE00080F83D30002380F83C301846F0BD00BFEF
:106BF000002C01402DE9FF419846594B04461D6881
:106C000090F83D300E46202B174603D0022004B0EA
:106C1000BDE8F0810095192301225249FEF77EFF5D
:106C20000028F3D194F83C30012BEFD0012384F8F5
:106C30003C30236801211A682046D2075EBF1A68DB
:106C400042F001021A601A6822F400621A602122DE
:106C500084F83D20402284F83E2000222264618591
:106C6000A1F10111E162618DC4F8248021851968C8
:106C700041F48071196000950A9B4FF00111FEF7F5
:106C80004DFF58B9236806F0FE061E610A9A2B468E
:106C900035492046FEF714FF48B1236C236C042BC2
:106CA0004FF0000384F83C3034D10120AFE7236873
:106CB00003905A690A9903929B692A4603932046D6
:106CC000039BFEF7D1FE40B1236C042BE6D1226872
:106CD000136843F400731360E0E723681F61238D9A
:106CE0002A460A9920467BB9FEF792FE78B92268B7
:106CF000136843F400731360202384F83C0084F885
:106D00003D3084F83E0082E7FEF7AEFE20B1236CF2
:106D1000042B1FD003207AE7616A26684B1C63624C
:106D20000B78228D3361638D501E013B9BB26385CE
:106D3000736980B25B072085D1D50028CFD08B1C2A
:106D400063624B78023A3361638D2285013B9BB2CB
:106D50006385C4E72268136843F400731360A4E7F3
:106D60007C15002002001000020001002DE9F04314
:106D70009946A34B89B01D6890F83D300446202BFE
:106D80000E469046119F04D00226304609B0BDE859
:106D9000F0830095192301229A49FEF7BFFE0028CF
:106DA000F2D194F83C30012BEED0012384F83C3032
:106DB000236820461A68D10758BF1A68BDF84010EA
:106DC0005CBF42F001021A601A6822F400621A6085
:106DD000222284F83D20402284F83E2000222264B2
:106DE00061858949C4F82490E162618D2185196823
:106DF00041F480611960196841F48071196000954F
:106E00003B464FF00111FEF789FE10BB2368F6B236
:106E100006F0FE021A617D492B463A462046FEF7EF
:106E20004FFE08B1236C14E0236807905A69394675
:106E300007929B692A4607932046079BFEF714FE9C
:106E400080B1236C042B04D12268136843F40073CF
:106E50001360236C042B4FF0000384F83C304FD1B7
:106E6000012692E723682A46C3F810802046FEF7E1
:106E7000FBFD02460028E4D1216820460B6843F45C
:106E800080730B6000953B464FF00111FEF746FE04
:106E90000028DED1236846F001061E613A462B46E3
:106EA0005A492046FEF70CFE06460028BAD1228D2C
:106EB00023683AB3012A38D11A6822F480621A6032
:106EC00072B6236805905A6905929A690592059AE7
:106ED0001A6842F400721A6062B6DFF83481238DBA
:106EE000D3B1032B00F29680012B3AD12A463946C2
:106EF0002046FEF763FD002852D0236C202BAFD133
:106F0000032642E706905A6906929A690692069A03
:106F10001A6842F400721A60202384F83D3000237E
:106F200084F83E3084F83C302FE7022A1A680ED1EC
:106F300042F400621A6072B6236804905A6904929F
:106F40009A690492049A1A6822F48062C3E742F4B0
:106F500080621A6003905A6903929B690393039BB2
:106F6000BBE7022B00953B464FF00002414620460E
:106F700024D1FEF7D3FD0028C2D172B623681A6867
:106F800042F400721A601A69636A591C61621A70CD
:106F9000238D013B2385638D013B9BB2638562B6E4
:106FA00023681A69636A591C61621A70238D013B58
:106FB0002385638D013B9BB2638590E7FEF7AEFDB1
:106FC000024600289CD121680B6823F480630B6083
:106FD00072B623681969636A581C60621970238D40
:106FE0000095013B2385638D4146013B9BB2638540
:106FF00020463B46FEF792FD0028BFD080E700BF49
:107000007C150020020010000000FFFF02000100BC
:10701000040001002A4639462046FEF7CFFC00282E
:107020007FF46BAF23681A69636A591C61621A7036
:10703000238D013B2385638D013B9BB263852368D0
:107040005A6952077FF54BAFABE700BF0026394DB9
:1070500080B50020FEF774FA374F2A68374BDFF807
:10706000F490DFF8F4803E601A60FDF723FF2B6890
:107070005B6D7BB901222B684FF4FA6083F85820CE
:10708000FDF78EFF4FF08053C9F80030BFF34F8FEC
:10709000BFF36F8FFDF7FAFEFDF70CFF2B68596DFC
:1070A00009B12B685E652B6883F85860FDF7EEFE2A
:1070B000002939D00120FEF7D7FA82463868B0B1EE
:1070C000B0F5E17F28BF4FF4E1700446FEF7B7FA50
:1070D000A04202D2FEF7B3FA0446194BCAF1010AE4
:1070E00018682D23544404F30F0403FB0400082202
:1070F000144B1B6993FBF2F347F669729BB2934200
:1071000088BF0020104B5A7C32B10A219A7C4A4336
:107110008242BCBF987C4843FEF712FA4AF6AA2284
:107120000A4B1B681A60A0E70A23A8F80030084B36
:1071300019709AE7DC14002060120020C80F0020AC
:10714000941500203815002054150020E413002069
:10715000D814002004ED00E0680B00200023F0B5F7
:1071600085B00193044640B94FF0500383F3118872
:10717000BFF36F8FBFF34F8FFEE7016C41B14FF04C
:10718000500383F31188BFF36F8FBFF34F8FFEE778
:10719000FDF704FE50B9019941B14FF0500383F35C
:1071A0001188BFF36F8FBFF34F8FFEE76E4E6F4FA7
:1071B0006F4DB1E06568B5B9002500226260626A72
:1071C0000136A663002A65D004F12400FDF73AFFDA
:1071D000002861D04FF08052654B1A60BFF34F8F8B
:1071E000BFF36F8F58E0634B1B689D4208D04FF090
:1071F000500383F31188BFF36F8FBFF34F8FFEE708
:107200002B6D43B94FF0500383F31188BFF36F8F99
:10721000BFF34F8FFEE7E96AEA6C013B91422B65B1
:10722000CAD0002BC8D12F1D3846FDF791FEDFF8DC
:1072300050C1514A70B91420D5F82CE000FB0EF073
:107240005CF8003033B90121136801FA0EF123EA2A
:1072500001031360EB6CC3F10401EB62A96101252A
:10726000116805FA03F0084310601420394600FB4A
:1072700003C0FDF7DBFEA0E70021A06803F038FCA7
:10728000A368226C13446268A360934224BF2368FE
:10729000A3604FE0002D9DD1FDF7F8FD012005B062
:1072A000F0BD019810B9FDF7F1FDF8E719B93368A1
:1072B00002933B680393FDF7E9FD304A13680133FD
:1072C0001360FDF7F7FD94F84430FF2B04BF002353
:1072D00084F8443094F84530FF2B04BF002384F831
:1072E0004530FDF7D3FD01A902A8FDF7FFFD98BBCE
:1072F000FDF7E0FDA26BE36B9A421DD1FDF7C6FDE1
:10730000019904F11000FDF783FE2046FDF726FFEA
:10731000FDF7F8FFC0B10121FDF7CCFDA26BE36BD7
:107320009A42BED2226CA66B002AA5D12368002BFC
:107330003FF440AF002542E7FDF7A8FD2046FDF7EA
:107340000DFFFDF7DFFFE6E74FF080532B60BFF343
:107350004F8FBFF36F8FDEE72046FDF7FFFEFDF78F
:10736000D1FF00209BE700BFC4150020E0150020DE
:1073700004ED00E0DC1400209015002088150020AA
:10738000E814002032232DE9F04F85B00193044624
:1073900040B94FF0500383F31188BFF36F8FBFF3F1
:1073A0004F8FFEE7016C41B14FF0500383F311881A
:1073B000BFF36F8FBFF34F8FFEE7FDF7EFFC50B9C0
:1073C000019941B14FF0500383F31188BFF36F8FE0
:1073D000BFF34F8FFEE76F4F6F4E91E0019B1BB9DC
:1073E000FDF754FD0020C0E029B96C4B1B680293E7
:1073F0006B4B1B680393FDF749FD6A4A1368013321
:107400001360FDF757FD94F84430FF2B04BF0023B1
:1074100084F8443094F84530FF2B04BF002384F8EF
:107420004530FDF733FD01A902A8FDF75FFD0028F7
:1074300040F0A280FDF73EFDA36B002B58D1FDF775
:1074400025FD2368002B40D1FDF734FD6568002D34
:1074500039D03268EB6AD26A934234D24FF01408C2
:10746000AA69DFF848B1002AA8BF326808FB03B355
:10747000A8BFD26AD946A4BFC2F10402AA616A6950
:107480009A4275D105F1040A5046FDF761FD464A5E
:1074900058B9E86A08FB00F85BF808302BB90121FD
:1074A0001368814023EA0103136033681168D86AC6
:1074B000012383400B4313601423E862514603FB0E
:1074C0000090FDF7B3FDFDF7E1FC019904F1240004
:1074D000FDF79EFD2046FDF741FEFDF713FF70B955
:1074E0004FF080533B60BFF34F8FBFF36F8F06E0C9
:1074F000FDF7CCFC2046FDF731FEFDF703FF01212F
:10750000FDF7D8FCA56B002D3FF468AF226CE36853
:1075100062B1616813448B42E36028BF23684FF077
:10752000000028BFE360E16803F0E2FA2368013D50
:10753000A56343B9184B1A681AB119680A6D01326C
:107540000A651B686360236963B104F11000FDF7ED
:1075500079FD38B14FF080520E4B1A60BFF34F8F58
:10756000BFF36F8FFDF792FC012005B0BDE8F08FEF
:107570003368DB6AEB62A6E72046FDF7EFFDFDF717
:10758000C1FEFDF797FCA36B002B3FF429AFFDF77D
:107590007DFCB4E704ED00E0DC140020C4150020FD
:1075A000E01500208815002090150020E814002028
:1075B000F0B5A14D0646286885B00F46002840F07A
:1075C000BB809E4B1C689E4B1D6894F83D30202B61
:1075D00040F08B800095192301229A492046FEF73E
:1075E0009DFA002840F0818094F83C30012B7CD03B
:1075F000012384F83C3023681A68D2075EBF1A68FA
:1076000042F001021A601A6822F400621A60212313
:1076100084F83D30102384F83E3000232364A3F522
:1076200080336785E362638D66622385E36A042B9A
:1076300004D0012B02D013F5803F05D122681368D6
:1076400043F48073136002E0236B122BF6D0009595
:1076500041F2883300224FF001112046FEF75EFA16
:1076600068BB22692368B2F5804F1DD17822764924
:107670001A6120462B4641F28832FEF721FAE8B91A
:10768000236802905A6902929B690293029B238DA0
:10769000E3B921680A6842F400720A60202284F883
:1076A0003D2084F83E300CE0F02268491A61204603
:1076B0002B4641F28832FEF703FA28B1236C236C83
:1076C000002384F83C3010E02368CFE72A4641F2DB
:1076D00088312046FEF7C8F948B1236C042B04D149
:1076E0002268136843F40073136005B0F0BD616A4B
:1076F00020684B1C63620B780361638D228D013B14
:107700009BB26385531E9BB22385466976070AD5D3
:107710004BB18B1C63624B78023A0361638D228507
:10772000013B9BB263852A4641F288312046FEF731
:107730006FF90028ABD0D0E7FFF724FE0128D4D1A1
:107740003E4B1C680023039394F83D30202B12D14C
:1077500046F2A8123E4B1B68B3FBF2F219235343C7
:107760000393039B5A1E03926BB92022236384F870
:107770003C3084F83D20FFF795F9286805B0BDE856
:10778000F040FFF7EBBC226893699907E9D494F8BD
:107790003C30012BEFD0012384F83C3013680025E6
:1077A000DB0758BF13684FF078015CBF43F001035B
:1077B0001360136823F400631360212384F83D30C1
:1077C000102384F83E30234B25646785E362638D84
:1077D00066629BB223856164F3B1606B1E4910320F
:1077E00081621E494563C0E90B513146FEF726F818
:1077F00023681A6842F480621A601A6842F4807240
:107800001A6084F83C505A6842F440725A605A68D0
:1078100042F400625A6068E7116841F480611160C7
:10782000116841F48071116084F83C30536843F46E
:10783000E063536059E700BF80110020CC110020A5
:107840007C15002002001000020001000800010069
:10785000340000200000FFFF8D5D0008655D00081A
:1078600010B5104B0446C0B1C822DA72A1223221F1
:107870000C48DA74FFF79CFE002C14BF0022202273
:10788000094B1C70094B5A7114BF5F227F22DA71B9
:1078900014BFC822C0225A7210BDC022DA72A022C0
:1078A000E5E700BF00000020B8100020D40F002042
:1078B0000E4B99799A79013161F3010203219A7192
:1078C0009A7902F0030292FBF1F101EB4101521AA5
:1078D000997962F301019971987910F0030002D04F
:1078E000012800D07047FFF7BBBF00BF5415002030
:1078F000D1210148FFF75CBED40F00202DE9F341F0
:10790000184C054620680E461746984668B941F25D
:107910008833CDE900831448134600680A46294697
:10792000FFF724FA02B0BDE8F081FFF72BFD012834
:10793000F8D14FF4FA73CDE900830B483B46324649
:1079400029460068FFF712FA28B12568FFF7AAF860
:107950002846FFF703FC206802B0BDE8F041FFF7BE
:10796000FDBB00BF80110020CC110020F7B5164CE4
:10797000054620680E46174658B941F28833134829
:107980000093006813460A462946FFF733F903B00F
:10799000F0BDFFF7F7FC0128F9D14FF4FA730B485B
:1079A000009332463B4629460068FFF723F928B189
:1079B0002568FFF777F82846FFF7D0FB206803B06B
:1079C000BDE8F040FFF7CABB80110020CC110020B9
:1079D0002DE9F0410746DDE9060488461D4640B919
:1079E0004FF0500383F31188BFF36F8FBFF34F8FB6
:1079F000FEE744B94FF0500383F31188BFF36F8F54
:107A0000BFF34F8FFEE796003246A521206303F0B7
:107A100093F8226B043E324408F1FF3322F0070250
:107A200004F1340108F1170813F8010F01F8010BF4
:107A3000187808B14345F7D1032D28BF0325C5F1B8
:107A400004030021A3614FF08073E562C4E9135180
:107A5000616584F84B106161A1622461646284F8FD
:107A6000581042F8043C444B27F0010742F80C3C04
:107A700042F8087C42F8201C403A2260FDF71AFACE
:107A80003E4A3F4E1368DFF82081013313603568AA
:107A90003C4BD4F82CC0002D63D134601268012A0D
:107AA00039D14FF0FF3703F108025A60C3E902727F
:107AB0001A611A4642F81C5B3349C3E90627C3E939
:107AC000082203F13002C3E90B27C3E90D2203F1B9
:107AD0004402C3E91027C3E9122201F10802C1E9F7
:107AE0000127C1E90322294A0D6002F10800C2E919
:107AF0000107C2E9030026485D6100F1080EC0E9F4
:107B000001E79D62DD631560C0E903EE0560214871
:107B1000016021490A6021490A6801320A60012294
:107B20001F4902FA0CF20868024314200A6000FBA5
:107B30000C30211DFDF77AFAFDF7A8F9D8F80030CE
:107B400063B13368DA6AE36A9A4207D24FF080522F
:107B5000144B1A60BFF34F8FBFF36F8F2046BDE801
:107B6000F081D8F80020002AD5D13268D26A624567
:107B700098BF3460CFE700BF69430008801500203C
:107B8000DC140020E814002098150020AC1500201B
:107B9000C8150020E0140020E41400208C150020FB
:107BA0009015002004ED00E0DC15002037B5D0E989
:107BB00000148569B0F90830026901954069842B89
:107BC000009014BF033300232046FFF701FF03B0EA
:107BD00030BD000038B5244C20220021204602F0A0
:107BE000ABFF962363803C2323714FF496731E21D1
:107BF00023800023012007256371E174227A63F357
:107C0000C3022272227A63F382022272A27960F3A3
:107C10000102A271A27965F38502A2710A2540F2E0
:107C2000D3126281E571227A024322724FF4D2723A
:107C3000A281A27963F38712A271227A42F0020232
:107C40002272227A42F01002227263744FF461733E
:107C5000E381462323740523A1742076A3836583DF
:107C6000BDE83840FEF77ABA54150020024BC02216
:107C70000021186802F060BFB01000202DE9F0412B
:107C80000020FCF7E3FB4FF00005FFF7EFFF294E64
:107C9000294F2A4C002160894FF00A0835803D8029
:107CA000FDF7F6FBB0FBF8F00122022180B2FCF7F1
:107CB0007CFC2348FCF770FC00216089FDF7E8FBA1
:107CC000B0FBF8F303FB18000022012180B2FCF79F
:107CD0006CFC1C48FCF760FCFCF7C6FF01380F2861
:107CE0000DD8DFE800F008190C1C0C0C0C1C0C0C57
:107CF0000C0C0C0C0C1C638901339BB26381FFF7E5
:107D0000F7FD0420FDF774FB6389B3F5B47F0AD255
:107D10004FF4B4736381BCE76389013BEDE7BDE8D1
:107D2000F041FEF71BBA6389B3F5027FB1D94FF476
:107D30000273EFE77A1100207C1100205415002017
:107D400019BA000895BE00082DE9F84F0024264610
:107D5000A046524D524B2F68DFF860B11C60514B6A
:107D6000ABF80080A3F80080FFF780FF0020FCF74D
:107D70006DFBFCF779FF002832D001382F680F28FF
:107D80002ED8DFE800F079142D1C2D2D2D082D2D77
:107D90002D2D2D2D2D892A68A31B13441E2B1FD991
:107DA000414B1A7E598BA2B11A880A4413E03E4B0C
:107DB0001A7E998B002A64D01A880A4463E02A68E4
:107DC000A31B13441E2B0BD9374B1A7E598B002A49
:107DD000EAD01A88521A92B21A8003342E68E4B29A
:107DE000DFF8C4A0C4F11E03BAF80020092BD8BFE5
:107DF0001424B2F5E17F84BF4FF4E172AAF80020A9
:107E0000BAF80020312A9CBF3222AAF800202A6842
:107E1000D21BC82A40D8254A9AF8180092F8009038
:107E2000B9F1000F32D02249224A002814BF084677
:107E30001046FCF7B1FB2048FCF7AEFB0122032102
:107E4000BAF80000FCF7B1FB0120FCF74FFB1A4821
:107E5000FCF7A2FB9AF81800B9F1000F19D0154AE7
:107E6000134B002814BF10461846FCF795FBFFF78C
:107E70003FFDFDF7DBFA72E70B4B1A7E998B002A68
:107E80009AD01A88521A92B21A80A9E70949084A68
:107E9000CBE7074A074BE4E7BDE8F88FE015002081
:107EA000601200207A11002054150020B810002024
:107EB00093BE0008F7BF000847BF00087C110020F0
:107EC000F8B52A4D00216889FDF7E2FA284B1B68B6
:107ED000962B47D96A7902F0FF03002A33D003EBCF
:107EE00043134233DBB283424FF000043CD9214FAD
:107EF000FDF79CFAFFF7BAFE3C80287A1E4EC0F3CD
:107F0000C000348008B30120FCF7A0FA1B48FCF73E
:107F100043FB08231A4833803C80FCF73DFBFDF708
:107F20005FFB1848FCF738FBFFF7E2FC0022164B1A
:107F30001A60FCF799FE04465CB1FCF795FE044616
:107F4000FDF774FAF8E75A23CDE7FCF77FFA0F48FC
:107F5000E8E7FCF789FE0446FDF768FA002CF8D044
:107F60000120F8BD0020FCE72046FAE75415002068
:107F7000E01500207A1100207C1100202EBE0008A0
:107F80003CBE000895BE00086012002048BE0008F4
:107F90002DE9F74F0646414D414FFCF765FE00289D
:107FA00078D12B68642B0DD93B782BB13D4A2B68D7
:107FB00012689B1A632B6ED93B4A2B6812689B1A76
:107FC000632B67D9FFF77CFF00284ED1374C26B9C9
:107FD00063882088984228BF1846DFF8F0804FF069
:107FE0000009C8F800000020FDF73EFB1FFA80FAE8
:107FF000FFF73CFE2E4BDFF8D8B0A3F80090207AB4
:108000000193C0F3C000ABF8009080B30120FCF7EF
:108010001DFA2848FCF7C0FA019B2748A3F80090F6
:108020000823ABF80030FCF7B7FA012203215046D1
:10803000FCF7BBFA2148FCF7AFFA2148FCF7ACFA91
:10804000FDF7CEFA1F48FCF7A7FAE379EBB1154B21
:108050001968D1B141F270732A68E079521A43432A
:108060009A4212D90023C8F80030012013E0FCF72F
:10807000EDF91548FCF790FA504601220321FCF770
:1080800094FA0120FCF732FADFE7FFF731FCFDF745
:10809000CDF982E7002003B0BDE8F08FE0150020A5
:1080A0005C120020B4140020B014002054150020ED
:1080B0007A11002097BE0008A4BE0008F5BE000893
:1080C00047BF000895BE0008AABE00086012002045
:1080D0007C1100202DE9F047894C2379052B89BFBD
:1080E00025794FF47A756B1F41F2707598BF23792B
:1080F0005D4390B90026834FDFF84082FCF7B4FD62
:10810000102818D8DFE800F0169B9B179517171753
:1081100014171717171717171400831E58425841C2
:10812000FFF736FF0028E5D0774B1A68774B1A60C7
:10813000BDE8F08700264FF00009A7F80090A8F8E6
:108140000090FFF793FD4846FCF780F9237ADFF8AB
:10815000F09113F0080F00F08A804FF00A0A012016
:10816000FCF774F96A48FCF717FAD9F80000012205
:10817000B0FBFAF0022180B2FCF717FA6548FCF771
:108180000BFAD9F800300122B3FBFAF00AFB1030E9
:10819000114680B2FCF709FA5F48FCF7FDF9A379B4
:1081A00013F03C0F20D02379F3B15C48FCF7F4F9CD
:1081B0005549564B5A4A08681B681268281A9A4251
:1081C0002CBF8018C01842F2AC63984244DD41F2E3
:1081D000707390FBF3F0013080B201220221FCF7B2
:1081E000E4F95048FCF7D8F900233B8008234E48B7
:1081F000A8F80030FCF7D0F90120FDF753FA474802
:10820000FCF7CAF9FDF7ECF94848FCF7C5F9FFF7A8
:108210006FFB474B002E5CD0A2891A60FFF750FE1F
:10822000002881D1A37913F03C0F54D1FDF7FEF85B
:1082300064E7237A13F0010F18BF01267BE7B4F837
:108240000090FFF781FD23881FFA89F999453FF4D3
:1082500072AFFDF783FF6EE7642390FBF3F001300C
:1082600080B201220221FCF7A0F93248BAE7324B72
:108270001978B9B1FDF794F92848FCF78DF9012078
:10828000FDF710FA56B10220FCF730F90021D9F8B9
:108290000000FDF735F9FCF745F9B8E71F48FCF792
:1082A0007BF9F3E7D9F80000FDF72AF9FCF73AF972
:1082B0005EB10220FCF71AF90120FDF7F3F9174827
:1082C000FCF76AF9FDF76CF9A1E71448FCF764F9CB
:1082D000F2E72288A1E72379002BA7D00A4A1049A8
:1082E000136809685B1AAB42A0D91368074A126881
:1082F0009B1AAB429AD9FFF74BFE002896D017E79E
:10830000541500207A110020E0150020B014002040
:1083100023BE000819BA0008F2BE000847BF0008D3
:10832000B4140020FBBE0008A4BE000895BE0008DF
:108330006012002007BF0008B81000207C11002048
:108340009415002000242DE98048764D91B001203D
:10835000FFF786FA1920FDF74BF8A879724E00F066
:1083600001000DF1300AFFF77BFA2146102250463A
:10837000346002F0E1FB2146102208A802F0DCFB89
:108380001022214600240DEB020002F0D5FBAB7950
:108390000196C3F38303092B88BF0922274626468B
:1083A0004FF0030BA04682BFAB7962F38503AB713C
:1083B000C82140F6E440AA79C2F3830201FB12030C
:1083C00000935A4B93F80090B9F1020F49D106235C
:1083D00002AAA8213220FFF791FA012302AAB521AF
:1083E0003220BDF90840BDF90A70BDF90C60FFF7F5
:1083F00085FA9DF808309B10013B5FFA83FBAA7950
:1084000002F00302022A07D1BBF1030F04D0BBFA2A
:108410008BF04009FFF724FA10AB03EB4802444B02
:1084200022F8104C22F8207C22F8306C1A78002AAE
:108430003BD108F1010C4FEA4C0108AB03EB010EF4
:1084400004AB0AEB010919440CEB0200C0B2072887
:1084500028D829F812402EF8127021F81260013243
:10846000F2E7B9F1010FCAD1062302AA49463A2020
:10847000FFF744FA4B4602AA10213A20BDF8084003
:10848000BDF80A70BDF80C60FFF738FA9DF80830A7
:10849000E4BA1A06FFBAF6BA4CBFC3F3410B4FF069
:1084A000030BACE70122224B1A70002108468C46D0
:1084B0000A4608F1010808F007080DF110093AF919
:1084C00011E008AB724433F911E0F44439F911E0DA
:1084D000013108297044F2D192FBF1F29CFBF1FCCE
:1084E00090FBF1F1121BACEB070C891BBCF1000FE8
:1084F00082EAE27EB8BFCCF1000CAEEBE27E00294E
:10850000009BB8BF49420EEB0C020A449342BEBF27
:10851000084A019B12684FF00A00B8BF1A60FCF7C6
:1085200067FF45E754150020B4140020040900201B
:108530005C120020E01500202DE9F04F0026314BA1
:1085400087B01A68029003920493049B039A1B68F5
:1085500032219B1A642201935343B3FBF1F3DBB244
:10856000C3F196045B436400634342F2107493FBCF
:10857000F4F36024DBB25C4394FBF2F4602CA8BFFC
:108580006024029BE7B2C7F16005EDB29BBBB84621
:108590009946DFF87CB0C4F16003DBF80000DFF837
:1085A00074A081191A464044059302F0ACFADAF837
:1085B0000000059B81191A46404402F0A4FA124BB0
:1085C000DBF8000059192246484402F09CFA0F4B90
:1085D000DAF8000059192246484402F094FAFFF7ED
:1085E00087F90420FCF704FF019B3E46322BACD9EF
:1085F00007B0BDE8F08FA9460025BE1BF6B2A8461D
:10860000C7E700BFE0150020B910002019110020B5
:10861000B0100020B41000200122B34B2DE9F04F20
:108620001A70002287B0CDE9022307460C22029B74
:10863000591C9DF8083002FB03739C68002C7DD107
:10864000BB68BBB1A94EAA4BAA4D2046336060332C
:108650002B60FBF7FBFEA84B1C80A84B1C80FFF790
:1086600005FBBB689847A64B0120336060332B6045
:10867000FFF762FF00254FF0FF330126AB46AA4605
:108680002C46CDE9005504934FF00C09009B09FBE3
:1086900003F907EB0908D8F80810002900F06E81EB
:1086A000BAF1000F40F06A815046FBF7CFFE924BC3
:1086B0009249A3F800A09348934BA1F800A000684A
:1086C0001968091AB1F5967F3AD357F809000028BE
:1086D00036D0BBF1000F01D1D3F800B0FBF738FD65
:1086E00000EB4000810054310FFA81FC8748864935
:1086F000049B0968007AA1EB0B0110F0100F14BF66
:1087000001200220B1FBF0F108B290FBFCF10CFB60
:1087100011010FFA81FA5345059133D0FFF7A6FAFC
:1087200000200599744BC1F160011980734901263D
:10873000088057F80900FBF72FFF23E0029176E746
:10874000FFF794FAD8F80810884710209DF8081011
:10875000012690FBF1F04FF0FF3A06FA00F1009B82
:1087600001391FFA81FC00FB03F16048C9B20068BF
:108770000CFA01F180F85F105E48C1F30721006830
:1087800080F85F10FCF770FA8542DFF87C9140F0CA
:10879000CF80691E0F2909D8DFE801F02A5E086939
:1087A0000808087E08080808080808924FF0000822
:1087B000C4F11E010929D8BF142426B1FFF798F887
:1087C0000420FCF715FE4F48D9F800100068CDF8DA
:1087D00010A0091A40F6B830814288BF4FF0000B54
:1087E0004FF0000694BFC2464FF0010A4CE7002448
:1087F000BBF1000F69D1D8F80430002B69D0039A7F
:1088000082F800B09847039B1B78EBB1384A374B8E
:10881000384D1A605846049302F160032B60FBF751
:1088200015FE354B3549A3F800B0A1F800B0FFF7AD
:108830001DFAD8F8081088473149049B584619603A
:1088400060312960FFF778FE0123039A4FF000089A
:1088500013701D46ACE70024BBF1000F3BD1009D17
:10886000D8460135EBB200930225A1E70024D9F8E0
:108870000030019A9B1A23441E2B30D9D8F80430BB
:1088800004254FF000089847D9F8003003340193CD
:10889000E4B2C3468CE70024D9F80030019A9B1A51
:1088A00023441E2B34D9009D03340135EBB20093D1
:1088B000D9F80030E4B201934FF000080825E8E74A
:1088C0004FF0000B4FF0010872E74FF00008012550
:1088D000DFE70125F6E74FF000080225D9E74FF062
:1088E0000008042564E700BF59010020B0100020F3
:1088F000B9100020B41000207A1100207C11002053
:10890000E50F0020B0140020E015002054150020D1
:108910004FF0000808254BE74FF0000B05464FF0DD
:1089200001085C4644E74FF000080546444644E72A
:10893000431E0F2BF7D801A252F823F0EF8700084F
:1089400057880008278900086D88000827890008D3
:1089500027890008278900089788000827890008C8
:108960002789000827890008278900082789000827
:1089700027890008278900081989000807B0BDE881
:10898000F08F00BF0148FFF747BE00BF380000204E
:108990000148FFF741BE00BFE00000200148FFF79B
:1089A0003BBE00BF1C0100200148FFF735BE00BFE1
:1089B000980000202DE9FF4848230593059B482B8C
:1089C00008D04FF0500383F31188BFF36F8FBFF3CC
:1089D0004F8FFEE700210123AE48AF4FC0E90F31B2
:1089E0000060FCF767FAD0E90F34634302688163E3
:1089F000D5181B1B1344C360FF2382604FF0FF3266
:108A000080F8443080F8453000F11803C0E90623AF
:108A10004361036200F12C03C0E90A320161416243
:108A20004560C0E90C33FCF731FA9C4D9C4B9D4EE0
:108A30001860FEF793FBFCF765F9A879DFF8A882C8
:108A400000F00100FEF70CFF3C68DFF8A09204F58F
:108A5000C8743B689C423BD9934B1B78552B35D14E
:108A60003378AA2B32D198F800300D2B2ED199F8FB
:108A70000030F02B2AD18D4BDFF874E21A68002306
:108A8000DFF870C213F80E10D15413F80C00D1188F
:108A90000233602B4870F5D1854BDFF85CE21A6831
:108AA0000023DFF858C213F80E10D15413F80C004D
:108AB000D1180233602B4870F5D1FEF719FFFCF78F
:108AC000D3F800B13C68FCF7B1FCC2E73C68F6E7BC
:108AD000784BDFF82C821B78DFF8289293B1FFF7F0
:108AE000C5F80120FBF7B2FC00237348A8F800305A
:108AF000A9F80030FBF750FDFEF7FAFE4FF47A704C
:108B0000FCF798FCAC79A40906D0AC79A409012C37
:108B100056D10020FFF7DEFA4FF0000B5E46FCF75F
:108B2000A3F8824600285CD10024644B00216889A8
:108B30001E60FCF7ADFC0020FCF796FDAF231FFA8A
:108B400080FA5F4ABAF1310F537014D8AB7913F041
:108B50003C0F10D05B4A3B6812689B1A41F270725E
:108B6000934208D958493B6809685B1A934282BF0F
:108B7000AE23534A5370FFF779F8A8F80060A9F8BC
:108B80000060297AC1F38001002900F012810120E0
:108B9000FBF75CFCBAF5EB7F40F2FC804B48FBF73F
:108BA000FBFC08234A48A9F80030A8F80060FBF74E
:108BB000F3FCFCF715FDFEF79BFEFCF737FCAEE778
:108BC000AB799B09022B04D10120FFF783FA012422
:108BD000A2E7AB799B09032B01D10220F5E7002422
:108BE0009AE7AF23364A00205370FBF72FFC002C86
:108BF0009BD10AF1FF3ABAF1070F96D801A353F8B7
:108C00002AF000BF7F8D0008898D00082B8B00089B
:108C1000758D00082B8B00082B8B00082B8B000810
:108C2000258C00080024FFF721F80120A8F8006037
:108C3000A9F80060FBF70AFC2648FBF7ADFC082307
:108C4000A9F80030244BA8F8006053F82400FBF783
:108C5000A3FC631E092B68D8DFE803F0050F11138E
:108C600018567B7F84871D4B1868FCF7B9F80122E2
:108C7000052180B2FBF799FC57E0194BF4E7194B3B
:108C8000F2E738686423B0FBF3F0F0E70D4B1868A7
:108C9000F8E700BF84110020E015002054150020E3
:108CA0008011002001F8000800F80008B010002032
:108CB000B4100020501500201BBA000860120020DC
:108CC000D40F0020B4140020B014002047BA0008CC
:108CD0003CBE000839BA0008DCAB0008A006002042
:108CE00000090020640B002002F8000803F80008C7
:108CF00005F8000804F8000865F8000864F80008A2
:108D00007A1100207C110020EB891FFA83FA4FF0C2
:108D10000003EB81FBF7F6FFFBF73EFB0122062188
:108D200080B2FBF742FCA5F80EA0FEF7E1FDFBF7D1
:108D30009BFF02283FF4F8AE012807D10B22013433
:108D4000E4B2B4FBF2F302FB1344E4B2FCF76EFBB3
:108D500069E70120FCF788FC89E7FCF761FC012248
:108D6000032187E7FCF73CFCDFE70122484B114673
:108D700018787FE7FEF7E8FFFDF7F0F9D5E6002069
:108D8000FFF7A8F90124D0E64248FFF745FCFDF7BC
:108D9000E5F9F7E74048FBF7FFFB0020FCF782FC12
:108DA0003E48FBF7F9FB288801220321FBF7FDFB76
:108DB000F7E608460391FBF749FB394B1878002882
:108DC0003ED0384B54220093039910230C20FBF71C
:108DD000F7FAFCF7E5FBBAF1370F56D8BAF12C0FCA
:108DE00050D9BBF1000F3FF4E6AE2D4A2E4B12785E
:108DF0001B68B2B303F136025F3302F8016F9A4287
:108E0000FBD12A4B1B6803F136025F3302F8016F76
:108E10009342FBD13823A8F80030A9F800602B7AE0
:108E20009B0707D519223968B1FBF2F302FB131334
:108E30000F2B02D90020FCF735FC4FF0010BBAE6EE
:108E40001B4B5422009301461023FBF7B9FA54231D
:108E5000A8F80030FCF7A4FBBAF1370FBED9124BCB
:108E60001B685A1E283302F8016F9342FBD10F4B47
:108E70001B685A1E283302F8016F9A42FBD1A8F8EA
:108E80000060CAE74FF0000B95E6074B1B68B1E79F
:108E9000040900205C01002054BA000859BA0008F7
:108EA000B810002060BA0008B0100020B4100020F4
:108EB0003ABB00082DE9F74F8246FBF749F9244EEB
:108EC00000EB40003368840000200093FBF7BEFAFB
:108ED000204B002501224FF0FF3198461E4F54349D
:108EE000A4B23D801D80336800981B1A1B48007A8D
:108EF00010F0100F14BF01200220B3FBF0F31BB2DF
:108F000093FBF4F004FB103B0FFA8BF949450AD0B0
:108F1000FEF7ACFECBF1600350463B80A8F8005052
:108F2000FBF73AFB01220192FBF79EFE019A40B942
:108F300022B1FEF7DDFC0420FCF75AFA0022494674
:108F4000D1E7431E5842584103B0BDE8F08F00BF3F
:108F5000E01500207C1100207A110020541500201B
:108F60002DE9F74F2A48FFF7A5FF00284DD0002331
:108F7000284DDFF8A880284FDFF8A490EB81EC891A
:108F80000026A4B264BB2646A346FBF7BBFE4FF007
:108F9000000A0644FEF76AFE4846A8F800B0A7F8A3
:108FA00000B0FBF7F9FAC4F385035FFA8AF29A423C
:108FB000019306D24846FBF7EFFA0AF1010A019B3A
:108FC000F3E7FEF795FC01340A20FCF711FA102CA8
:108FD000DBD1C6F30F10FBF7DFF980B2E881CEE7F3
:108FE000FEF744FE1020A8F800603E80FBF77EFAF2
:108FF000E88901220421FBF7D8FAFEF779FC7820F2
:1090000003B0BDE8F04FFCF7F3B903B0BDE8F08F53
:1090100051BE0008541500207C1100207A11002058
:1090200019BA000808B50C48FFF744FF98B1FEF7DD
:10903000D1FD0020FBF70AFA0023084A08481380F4
:10904000084A1380FBF7A8FAFEF752FCBDE8084077
:10905000C820FCF7EFB908BDAFBE00087A110020A8
:10906000E9BE00087C1100202DE980484FF6FF077B
:10907000454A464D1368464E43F010031360EA68B4
:10908000444C3A403243ABB0EA60FDF741F9A26983
:10909000002142F00102A261A2696FF00B0002F010
:1090A00001020692069BEB68DFF8F8803B403343F1
:1090B000EB60FBF70DF900216FF00A00FBF708F9F0
:1090C00000216FF00900FBF703F900216FF00400A5
:1090D000FBF7FEF800216FF00300FBF7F9F80F2112
:1090E0006FF00100FBF7F4F80F214FF0FF30FBF7B2
:1090F000EFF8636813F00C0F07D0636803F00C03FC
:10910000082B51D16368DD034ED423680122236804
:1091100023F0F80343F0800323601F4B1A60D8F854
:109120000020636A990740F188834FF4FA521B4B81
:109130001B68B3FBF2F30B9300BF0B9A531E0B9308
:10914000002AF9D1636803F00C03082B39D0144BC3
:109150001A601A46D8F8001023689B0100F1748346
:10916000636823F4741343F4601363600123136092
:10917000D8F8002023689F0123D4D8F800309B1A28
:10918000022BF7D91DE000BF0020024000ED00E0F7
:109190000003FA050010024080044242340000201F
:1091A000600042427C1500200122BD4B1A60D8F8B5
:1091B000002023689807A9D4D8F800309B1A022B06
:1091C000F7D9B84A136803F00703012B40F2438331
:1091D000636843F4E0636360636843F4605363600F
:1091E000636823F0F003636023689E0100F140830D
:1091F0004FF47A726368AC4F23F4404343F4004366
:1092000063603B68B3FBF2F3013BB3F1807F09D2AB
:10921000F021A64A5360A64B83F8231000239360E5
:1092200007231360A14A0F2113684FF0FF3043F06A
:1092300004031360FBF74CF84FF080729D4E4FF023
:1092400003094FF0020B73689B4D23F0E06343F07A
:1092500080637360A3691EA943F02003A361A3691F
:10926000964803F020030A930A9BA3694FF4807A7F
:1092700043F00403A361A36903F004030993099B6A
:10928000A36943F00803A361A36903F008030893EB
:10929000089B2A610292CDE91E99CDF884B0FDF7B2
:1092A00047F973681EA943F0E06343F40043736019
:1092B00048F2FF732846CDE91E39FDF739F94FF61C
:1092C000FF731EA97E4801261E93FDF731F94FF466
:1092D000F04328461EA9CDE91E36CDF88490FDF74F
:1092E00027F94FF000632B614FF080532B614FF053
:1092F00000532B614FF080434FF000092B614FF476
:1093000010731EA9CDE91E392096FDF711F91EA98B
:10931000CDE91EA6CDF884B0FDF70AF9029A1E2009
:109320002A612A61FCF710FFC5F810A063690521C6
:109330003343636163690B2033400793079BFAF75C
:10934000C7FF4FF400635F4C052123601020FAF73C
:10935000BFFF4FF48033052123601120FAF7B8FFD7
:109360004FF40033584A23605848594BC2E90299D8
:10937000C2E900034FF480431046C2E90439C2E950
:109380000699C2F820900392FDF78EFA4FF46021FF
:10939000504C514B2046C4E902A6C4F81490E16138
:1093A000C4F8049023600293C4F810B0FDF7A0F94C
:1093B00094F82410039AB142A946924618D0226824
:1093C00084F824609168C90700F1BA82434989682A
:1093D000CB0700F1B582029B9A4240F0B1825368FC
:1093E00023F4702343F480335360002384F8243043
:1093F000002194F824300D91012B11D00123226813
:1094000084F82430536B23F01F0343F007035363A6
:10941000136923F4600343F44003136184F82410B8
:10942000002194F824300C91012B11D001232268E3
:1094300084F82430536B23F4787343F490735363AC
:10944000136923F0605343F04053136184F82410F0
:109450004FF0080E01230025CDE91EE304262093DA
:109460004FF440531EA91B48CDE924532395219561
:109470002296FCF713FD02231EA9164820951F9380
:10948000FCF70CFD03231EA912481F93FCF706FDF1
:109490001EA910481F96FCF701FD226820E000BFBE
:1094A00000004242002002403400002010E000E0B2
:1094B00000ED00E000000140000801400014014000
:1094C000000C014000E100E0901300200054004037
:1094D000F82401006412002000240140002801400B
:1094E000C04D536843F0800353602846FCF7BAFD33
:1094F00006460028F9D1BC4DBC4B4FF0010B2B6048
:109500004FF48073C5E9023B4FF46023EB61022303
:109510006861686028462B61FDF7EAF895F8243009
:109520000F965B4510D02A6885F824B0536B23F062
:109530001F0343F008035363136923F0E06343F010
:10954000C063136185F82460002195F824300E91E2
:10955000012B11D001232A6885F82430536B23F4A2
:10956000787343F490735363136923F0605343F0AB
:109570004053136185F82410012308200026CDE90B
:109580001E034FF0040B20934FF440531EA996483E
:10959000CDE9246323962196CDF888B0FCF77EFCB4
:1095A00002231EA9904820961F93FCF777FC032303
:1095B0001EA98D481F93FCF771FC1EA98A48CDF89F
:1095C0007CB0FCF76BFC884E3046FCF74BFD8346C5
:1095D0000028F9D10823864E864A6421C6E9002373
:1095E0004FF40073C6E903138023B0603046B361C3
:1095F000FCF758FE96F83C30012B14D001210223D1
:10960000326886F83C1086F83D30936823F47F4337
:1096100023F077039360936823F00703936086F841
:109620003D1086F83CB04FF0000B7148FCF76AFF24
:109630006F48FCF767FF10A96D48CDE910BBFAF73A
:1096400075FE60205023CDE91E0304231EA968483F
:1096500022931026CDF880B0FDF788FA022303226A
:1096600017A96548CDE9176302931A92FCF760FFCA
:1096700062495F484A68624E22F4406242F0E0620A
:1096800042F400624A60FAF70BFE4FF0804C4FF450
:109690007A624FF4887EC6E900C24FF40072304609
:1096A000C6E903E2C6F808B0C6E905BBFCF7FAFD57
:1096B00096F83C20012A14D00121029B326886F8DA
:1096C0003C1086F83D30936823F47F4323F0770302
:1096D0009360936823F00703936086F83D1086F843
:1096E0003CB04FF0000B4648FCF70CFF4448FCF739
:1096F00009FF17A94248CDE917BBFAF717FE602109
:109700004FF48673CDE91E1304231EA93C4822930F
:10971000CDF880B0FDF72AFA96F83C30CDF87CB051
:10972000012B2CD0012386F83C30022386F83D30F3
:1097300033681A6A22F480521A621A6A5968D86920
:1097400022F4005220F4E64C1E984CEA002C20989B
:1097500042EA00322B48834202BF21F48040239921
:1097600040EA81115960C3F81CC01F9919641A623C
:109770000122234B83F83D20002283F83C203368EC
:109780001F48DA6842F00102DA601A6842F001020A
:109790001A60FAF785FD33680F21DA681C2042F061
:1097A0001002DA601A6A184E22F480521A621A6A9B
:1097B00042F480521A62134A934202BF5A6C42F436
:1097C00000425A641A6842F001021A60FAF780FDFA
:1097D0004FF080520D4B06211A604CF6CC406422AB
:1097E00016E000BF641200209412002000280140FF
:1097F0007014002000040040000C014000000140F3
:1098000030140020002C0140E413002000E100E0AF
:10981000894BB260C6E90031186045F255501860B6
:1098200059609A60D8F800103268D368002B40F075
:109830008C804AF6AA2313608DE0D8F800309B1A7A
:10984000022B7FF66EACBCE4D8F800305B1A022B1A
:109850007FF682ACB5E4136823F0070343F00203FC
:109860001360136803F00703022B7FF4C1ACAFE46D
:1098700041F28831636823F0030343F0020363601D
:10988000D8F80020636803F00C03082B24D16B4A3E
:10989000136803F00703022B24D863681EAD43F45A
:1098A000E0636360636823F460536360644B03F1B7
:1098B00010062A4618685968083303C2B342154691
:1098C000F7D140F20123ADF85C30626802F00C037E
:1098D000082B14D05B4B25E0D8F800309B1A8B4244
:1098E000D0D985E4136823F0070343F00203136023
:1098F000136803F00703022B7FF47AACCDE72AA9A3
:10990000C2F383430B44D50313F8301C15D56268AA
:109910004C4BC2F340424B432AA90A4412F84C2C48
:10992000B3FBF2F362684849C2F303128A5CD34086
:10993000464A1360FCF7ECFC5AE4454B4B43F1E715
:10994000A36A43F02003A3624FE5D8F800305B1A06
:10995000302B7FF66AAF95F82430012B46D00123D7
:109960003C4885F82430FBF7F3FF00285FD1AB6A51
:10997000394A23F4407323F0010343F48073AB624C
:109980002B68934204D135494A6812F4702F44D1B0
:10999000AA6A22F48012AA625A68520541BFAA6AD2
:1099A00022F4405242F48052AA62AA6A12F480520F
:1099B0001CBFEA6A22F00602EA62002285F824202F
:1099C0006FF002021A609A6802F46022B2F5602F0A
:1099D00029D1214A934205D1A2F58062526812F43E
:1099E000702F20D19A6842F4A0029A6094F8243033
:1099F000012B77D0012384F82430174B1E939B68EA
:109A000003F46023B3F5602F2AD0A36A43F0200348
:109A1000A362002384F8243064E0AA6A42F480122E
:109A2000AA624A68B9E79A6842F48012DDE7002327
:109A300085F82430DAE700BF003000400020024003
:109A400060AB000800127A00C4AB000834000020AC
:109A500000093D009412002000280140002401402C
:109A6000B548FBF775FF0028D3D11EA8FBF770FFA0
:109A70000028CED1A26AB14B2168134043F4807311
:109A8000A3624B68206A5B0548BFA36AAC4A42BF29
:109A900023F4405343F48053A3620023E36284F829
:109AA0002430A84B4C318362A74BC362A74B03639E
:109AB0006FF0020341F84C3C51F8443C43F480738E
:109AC00041F8443C4023FBF7B9FE23689A6802F44E
:109AD0006022B2F5602F9A680CBF42F4A00242F4F3
