:020000040800F2
:104000000050002061410008AFAE0008B7AE0008C4
:10401000B5AE0008B3AE0008B1AE00080000000065
:1040200000000000000000000000000051A4000893
:10403000ADAE00080000000001A4000879AE000841
:10404000A9410008A9410008A9410008A9410008A8
:10405000A9410008A9410008A9410008A941000898
:10406000A9410008A9410008A94100086DAE000857
:10407000A9410008A9410008A9410008A941000878
:10408000CDA40008C1A40008CDAC0008A9410008D7
:10409000A9410008A9410008A9410008A941000858
:1040A000A9410008C1AC0008A9410008A9410008C5
:1040B000A9AC0008B5AC0008A941000809A6000891
:1040C000D9A40008A9410008A9410008A941000895
:1040D000A9410008A9410008A9410008A941000818
:1040E000A9410008A9410008A941000800000000FA
:1040F00000000000000000000000000000000000C0
:0C41000000000000000000005FF8E0F18B
:1041100010B5054C237833B9044B13B10448AFF301
:1041200000800123237010BDB801002000000000B2
:1041300058AF000808B5034B1BB103490348AFF360
:10414000008008BD00000000BC01002058AF00083E
:10415000034613F8012B002AFBD1181A01387047C7
:10416000002103E00B4B5B58435004310A480B4BD2
:1041700042189A42F6D30A4A02E00023136004323E
:10418000084B9A42F9D306F075F906F095FE05F052
:1041900095F9FEE734C7000800000020B4010020B4
:1041A000B80100209C150020FEE70000214B30B52F
:1041B00019464CF25035204A1468D868C00733D4E9
:1041C000DA68920644BF2022DA60CB68DD0606D4A6
:1041D000CB69DC0703D4C86810F0040023D0154A6B
:1041E000D36813F0100305D01449CB6943F00203E0
:1041F000CB611023D268500706D5104943F0040361
:10420000CA6942F00102CA610A4AD169C90708D5E0
:104210000A48C16941F00401C161D16921F001017D
:10422000D1610120D36030BD1068001BA842C4D901
:104230000320F8E700200240301500206814002019
:1042400015490B681A6A22F001021A621A6A1A6288
:10425000124A93420DD141F21112186A104208D14C
:1042600040F24442186A104202BF5A6C22F40042E3
:104270005A6441F21112186A104208D140F24442C5
:10428000186A104202BF1A6822F001021A60012364
:10429000002081F83D30704720140020002C0140A0
:1042A000036800201A6A22F001021A621A6A42F0B8
:1042B00001021A62054A934202BF5A6C42F400425C
:1042C0005A641A6842F001021A607047002C0140DB
:1042D000144B10B5DB68C3F30223C3F107041A1DA6
:1042E000042C28BF0424062A88BFDA1E4FF0FF33AF
:1042F00098BF0022A34021EA0303002803FA02F337
:10430000A8BF00F160404FEA0313B8BF064ADBB212
:10431000B5BF00F00F0000F56140135480F8003382
:1043200010BD00BF00ED00E014ED00E090F83C305F
:10433000012B4FF0020314D080F83D3003685A6817
:1043400022F070025A605A685A609A6822F080021D
:104350009A609A689A60012380F83D30002380F8C3
:104360003C301846704700000A4B1B68013308D0E8
:104370004FF0500383F31188BFF36F8FBFF34F8F5C
:10438000FEE74FF0500383F31188BFF36F8FBFF345
:104390004F8FFEE7B001002048F2E803434364205A
:1043A000DB0B58435B23B0FBF3F0044B1A8A9042BB
:1043B00026BF1B8AC01A0020704700BF04150020CA
:1043C000F0B55442A042059E15463ADD602838DC1F
:1043D000002800EB0207BABF4442E4B20024602F79
:1043E000C4BFC0F16002D2B241BB164F00EB040C57
:1043F0003F6806EB040E674404EB010C5FFA8CFC8B
:10440000624515D8102B1CD1102B08BF29460E4B26
:1044100018BF00211D680023214420443144284452
:10442000E518EDB2AA420CD9CD5CC5540133F7E7CB
:104430001EF801C007F801C00131DDE70829E3D00B
:10444000E0E7F0BDC0100020C4100020012808499A
:10445000084A094B06D10948086008211170062254
:104460001A70704706480860102111700C22F7E797
:10447000E00F0020DC0F00208E110020C0B80008E3
:10448000F8B000080128F7B509D1134BB3F90020A3
:104490003AB912490A8008221A8003B0F0BD0028F8
:1044A000FBD00F4B0C4A1C780E4B92F900101B7876
:1044B0000D4FDA0862433F68023880B200FB027099
:1044C000064D0090B5F90060224630463444FFF7AF
:1044D00077FF2C80E1E700BF8C1100208A110020BB
:1044E0008E110020DC0F0020E00F002008B5094AE3
:1044F000094B02301A601022084BC0B21A700C220D
:10450000074B1A70FFF7BEFFBDE808400020FFF719
:104510009DBF00BFA4C10008E00F0020DC0F0020F9
:104520008E110020F8B51A4B04460E201D78FFF7B7
:10453000DDFF1F20B4FBF0F0C0F10A00C0B2154B44
:1045400005F10C01C608C9B21A680AD02B4600272B
:104550006C1E1444994204D9013304F8017FDBB284
:10456000F8E7FF23602400F0070003FA00F00023BF
:1045700004FB065460F0FF002244EC18E4B2A142B0
:1045800004D9D45C0440D4540133F6E7F8BD00BF2D
:104590008A110020C010002010B5441E14F8010F2D
:1045A00010B1FFF76FFFF9E710BD002337B50429FD
:1045B0000093CDF8033032D90A23B0FBF3F403FBA8
:1045C000140502358DF80550B4FBF3F505FB1343D4
:1045D00002338DF804306423B0FBF3F00A23B0FB00
:1045E000F3F403FB140002308DF80300A0B20A2399
:1045F000B0FBF3F403FB140002308DF80200A0B20C
:104600000A23B0FBF3F403FB140002308DF8010021
:10461000A0B209E06846FFF7BFFF03B030BDDDD0B0
:104620000329E4D00129EBD10A24B0FBF4F304FB05
:10463000130002308DF80000002AEBD000230C227A
:1046400001399942E6DD1DF803000228E2D10DF898
:1046500003200133F5E7000037B5002405460120AB
:10466000FFF7F4FE0A4B1C800A4B1C800A4B53F8E0
:104670002500FFF791FF102308481A4600EB45106C
:10468000009021464E20FFF79BFE03B030BD00BFD7
:104690008A1100208C11002018B0000865C30008A2
:1046A0000320FFF7D9BF0220FFF7D6BF0120FFF795
:1046B000D3BF0020FFF7D0BF054AD38B0A339BB28C
:1046C000D383D38B642B84BF0A23D383704700BF6B
:1046D00004150020054A138C05339BB21384138CF8
:1046E000322B84BF05231384704700BF04150020BC
:1046F000034A137FB3FA83F35B091377704700BF54
:104700000415002005490B7A0A7AC3F3400383F0AD
:10471000010363F341020A72704700BF04150020D1
:10472000074B9A7999799209013262F3871199714D
:1047300099799A79890961F387129A71704700BF54
:10474000041500200C4B5A7A62B140F25231DA89DA
:10475000143292B2DA81DA89914202D24FF4F072C5
:10476000DA817047DA890A3292B2DA81DA89B2F5EF
:10477000E17FF6D9FA22F3E70415002005490B7A08
:104780000A7A03F0010383F0010363F300020A7263
:10479000704700BF04150020054B9A7A12F0010FF4
:1047A0009A7A0CBF42F001026FF300029A727047CE
:1047B00004150020044A137D1D2B8FBF0223137D97
:1047C0000233DBB21375704704150020034AD37C13
:1047D000B3FA83F35B09D374704700BF041500205C
:1047E00005490B7A0A7AC3F3800383F0010363F36C
:1047F00082020A72704700BF0415002005490B7A37
:104800000A7AC3F3C00383F0010363F3C3020A729D
:10481000704700BF041500200A200A4B9A79997945
:10482000C2F38302013262F3850199719A79C2F36E
:10483000830292FBF0F100FB11219A7961F385026A
:104840009A717047041500202B4B5A7AB2FA82F203
:1048500052095A725A7A002A38D00520DA8902EBB6
:10486000C201A03191FBF0F189B2D981198801EB25
:10487000C101A03191FBF0F189B219805A8802EB95
:10488000C202A03292FBF0F20A2192B25A80DA8977
:10489000B2FBF1F2DA81DA8902EB8202520092B2C3
:1048A000DA811A88B2FBF1F21A801A8802EB8202CE
:1048B000520092B21A805A88B2FBF1F25A805A889A
:1048C00002EB8202520092B25A8070470920DA89C4
:1048D000203A02EB820191FBF0F189B2D98119886B
:1048E000203901EB810191FBF0F189B219805A88DE
:1048F000203A02EB8202C5E704150020084BDA7962
:104900000132D2B2DA71DA793C2A84BF0022DA713C
:10491000044A1278032A04BF0022DA71704700BFEC
:104920000415002014090020084B1A790132D2B274
:104930001A711A790F2A84BF00221A71044A127858
:10494000032A04BF00221A71704700BF041500201B
:10495000140900200B4B5A7A52B15A88143292B281
:104960005A805A88B2F5117F01D978225A8070474F
:104970005A880A3292B25A805A88B2F5967FF6D98E
:104980003222F3E704150020034A5379013303F080
:1049900001035371704700BF04150020002814BFA5
:1049A00010201120FFF7A2BD054B1B785843054B83
:1049B0001880054B1B785943044B1980704700BF82
:1049C0008E1100208A110020DC0F00208C110020A5
:1049D00070B5054601200E46FFF738FD0021104C4A
:1049E0000846FFF7E1FF54F83500FFF7D5FD04EB6B
:1049F000C50401210020FFF7D7FF6068FFF7CCFD59
:104A00000020FFF723FD002130B2FFF7CDFF054A5C
:104A10001388023B13800022034B1A8070BD00BF35
:104A200028B000088A1100208C11002005210E20DA
:104A3000FFF7CEBF08B505211920FFF7C9FF044BCA
:104A40000122D88B0321BDE80840FFF7AEBD00BFAF
:104A50000415002008B505211820FFF7B9FF044B05
:104A60000122188C0321BDE80840FFF79EBD00BF5E
:104A70000415002008B517200721FFF7A9FF044BF4
:104A8000187FBDE80840003018BF0120FFF786BF3F
:104A90000415002005210C20FFF79ABF07210D20E7
:104AA000FFF796BF08B50B200721FFF791FF044BD6
:104AB000187ABDE80840C0F34000FFF76FBF00BFA1
:104AC0000415002008B507210A20FFF781FF094BD4
:104AD0009B799B09022B08D009D8012B14BF0648EB
:104AE0000648BDE80840FFF757BD0548F9E7054807
:104AF000F7E700BF0415002093C4000895C4000820
:104B000097C4000899C4000808B505210920FFF7DB
:104B10005FFF044B0122D8890321BDE80840FFF75D
:104B200044BD00BF0415002008B508200721FFF789
:104B30004FFF044B187ABDE8084000F00100FFF772
:104B40002DBF00BF04150020072108B50846FFF758
:104B50003FFF084B9B7903F00303012B06D0022B88
:104B600006D00548BDE80840FFF716BD0348F9E741
:104B70000348F7E7041500208FC4000891C400081B
:104B800011C0000808B510200721FFF721FF064BD0
:104B900006489B7A13F0010F054B08BF1846BDE885
:104BA0000840FFF7F9BC00BF0415002097C40008B7
:104BB00087C4000808B505211620FFF709FF054B3B
:104BC0000122187D0221FFF7F0FCBDE808400248F1
:104BD000FFF7E2BC0415002083C4000808B51520C7
:104BE0000721FFF7F5FE044BD87CBDE808400030F4
:104BF00018BF0120FFF7D2BE0415002008B506201B
:104C00000721FFF7E5FE044B187ABDE80840C0F322
:104C10008000FFF7C3BE00BF0415002008B50F20B9
:104C20000721FFF7D5FE044B187ABDE80840C0F312
:104C3000C000FFF7B3BE00BF0415002008B5072170
:104C40000420FFF7C5FE054B002298790121BDE83D
:104C50000840C0F38300FFF7A8BC00BF0415002084
:104C600008B505200721FFF7B3FE064B064A587A20
:104C7000064B002814BF10461846BDE80840FFF751
:104C80008BBC00BF0415002099C40008F0C30008C5
:104C900008B505210320FFF79BFE074BDA7922B9FF
:104CA0000648BDE80840FFF777BCD8790122022109
:104CB000FFF77BFC0248F4E70415002089C40008D4
:104CC0008DC4000808B505210220FFF781FE0E4BB8
:104CD0001A7922B90D48BDE80840FFF75DBC1A7982
:104CE0001879052A08D8012200EB800090400221A3
:104CF000FFF75BFC0648EEE7053880B2012202218F
:104D0000FFF753FC0348E6E70415002089C40008B8
:104D100095C400088DC4000808B505210120FFF7DF
:104D200057FE044B012258880321BDE80840FFF7D5
:104D30003CBC00BF0415002008B505210020FFF78A
:104D400047FE0A4B5B7903F0FF0213B1012A0AD038
:104D500008BD012202210920FFF727FCBDE8084019
:104D60000348FFF719BC02210C20F5E704150020C9
:104D700085C4000870B5214A9368926883F00203E5
:104D800012F0010F0CBF02220022C3F340031A43AA
:104D9000D3B21AB11A4A11681A4A11601A4A107825
:104DA00098420ED133B3164A184912680968521A4C
:104DB000282A1FD9012B1FD0022B14BF0020082046
:104DC00070BD0F4D114C3BB1032808BF03230020D9
:104DD00013702B682360F3E729682668891B27294D
:104DE00006D80128F4D002280CBF02201020EFE7DB
:104DF0001846EDE70020E3E70420E1E7000C01405E
:104E00009415002060140020E0110020E41100201F
:104E10001FB50020194B1B68DA6BADF800201A6C27
:104E2000ADF802205A6C9B6CADF80420ADF806304A
:104E3000134B1B68DA6BADF808201A6CADF80A202A
:104E40005A6C9B6CADF80C20ADF80E3003463DF863
:104E5000132001331044082B80B2F8D1094A137D86
:104E6000116932F8134022F81300091B0133014481
:104E700003F007031161137504B010BD1412002074
:104E800044120020E8140020037F082B01D1FFF713
:104E9000D7B970474FF0500383F31188BFF36F8F7A
:104EA000BFF34F8FFEE70000054B1B6833B1054B86
:104EB0001B68002B0CBF02200020704701207047A8
:104EC000901500203C150020064A13681968064B0F
:104ED00019B94FF0FF321A6070471268D268D26871
:104EE0005268F8E7901400207415002008B9064BAA
:104EF0001868026B1346981A13F8011BA529FAD0FB
:104F0000C0F38F00704700BF8C1400204FF0805515
:104F10004AF6AA220648074C07490368012B04D920
:104F20002560BFF34F8FBFF36F8F0B681A60F4E7F4
:104F30009814002004ED00E094130020EFF30583A3
:104F40000F2B0ED9104A9B5C104A12789A4208D94E
:104F50004FF0500383F31188BFF36F8FBFF34F8F70
:104F6000FEE70B4B0B4A1B68126803F4E0639342A5
:104F700008D94FF0500383F31188BFF36F8FBFF34D
:104F80004F8FFEE7704700BFF0E300E028150020D8
:104F90000CED00E02C150020084A136843B94FF0CF
:104FA000500383F31188BFF36F8FBFF34F8FFEE77A
:104FB000013B13600BB983F311887047B0010020E7
:104FC00008B54FF0500383F31188BFF36F8FBFF321
:104FD0004F8F074A13680133012B136006D1054B2D
:104FE0001B6813F0FF0F01D0FFF754FF08BD00BF8F
:104FF000B001002004ED00E0F8B5FFF7E1FF0D4C33
:105000000D4A0568166823689D42456801D0AE4286
:105010000ED20B68771B9F420AD29B1B2B440B605E
:1050200023680360136843600020FFF7B5FFF8BDF5
:105030000120FAE778150020941500200648006842
:10504000006880F3088862B661B6BFF34F8FBFF384
:105050006F8F00DF00BF000008ED00E00369D0E9BA
:1050600001128A60826851605968814208BF5A60A3
:105070000022026118680138186070470A6830B56C
:10508000531C0AD103695A684A6091608B60596069
:10509000036808610133036030BD00F108035C68F8
:1050A00025689542EFD82346F9E7000070B5154B07
:1050B000154E1C68054630680430FFF7CFFF3346B5
:1050C00040B931681148CE6A01210268B14022EA34
:1050D000010202601A686419546007D3BDE8704089
:1050E0000B4A106819680431FFF7C8BF094A1068F5
:1050F00019680431FFF7C2FF074B1A68944238BFA2
:105100001C6070BD941500208C14002044150020F4
:1051100094140020901400207415002010B50C4643
:10512000044B19681831FFF7A9FF2046BDE810406D
:10513000FFF7BCBF8C14002043689A684B608A60FC
:105140009A68516099600368086101330360704791
:1051500038B5C368DC6844B94FF0500383F3118855
:10516000BFF36F8FBFF34F8FFEE704F1180528469A
:10517000FFF774FF114B1B68E3B9251D2846FFF7A5
:105180006DFF01230E49E26A08689340034314202F
:105190000B6029460B4B00FB0230FFF7CDFF0A4B9B
:1051A000E26A1B68DB6A9A4285BF0120074B002038
:1051B000186038BD29460648EFE700BF3C150020BF
:1051C00044150020981400208C140020981500200D
:1051D0007C150020202210B5214B1B6883F83D2050
:1051E000204B1868002835D0036C43B14FF05003B2
:1051F00083F31188BFF36F8FBFF34F8FFEE7036810
:1052000053B9436843B14FF0500383F31188BFF3A0
:105210006F8FBFF34F8FFEE7FFF790FEEFF3118420
:105220004FF0500383F31188BFF36F8FBFF34F8F9D
:10523000826BC36B9A420BD290F8453001325BB25D
:1052400082635A1C07D1436A13B12430FFF780FFF1
:1052500084F3118810BD01335BB280F84530F7E765
:10526000DC110020901100202DE9F0410446FFF7E9
:10527000A7FE4FF0010890F845501B4F6DB200F1AA
:105280002406002D17DCFF234FF0010884F8453079
:10529000FFF782FEFFF794FE94F84450124F6DB270
:1052A00004F11006002D12DCFF2384F84430BDE821
:1052B000F041FFF771BE636A002BE4D03046FFF780
:1052C00047FF08B1C7F80080013D6DB2D9E72369F7
:1052D000002BE9D03046FFF73BFF08B1C7F800804C
:1052E000013D6DB2DEE700BF981500202DE9F84FB3
:1052F0003C4B1B68002B6ED13B4B1C6801341C607F
:10530000BCB93A4B1A68126842B14FF0500383F3AC
:105310001188BFF36F8FBFF34F8FFEE7344A1968D0
:10532000106818601160334A136801331360FFF787
:10533000CBFD314D4FF0000B2B68304FA34211D9FC
:105340003A682F4BD16A14224A439A58022A28BF3E
:105350004FF0010B2B4A1268002A0CBF584601205F
:10536000BDE8F88FDFF884A0DFF8A090DAF800201D
:1053700012681AB94FF0FF322A60E1E7DAF800202C
:10538000D268D66871688C4201D22960D8E706F1EC
:1053900004084046FFF762FEB16A19B106F1180031
:1053A000FFF75CFE01224FF0140CF06AD9F80030D0
:1053B00002FA00F11943124BC9F800100CFB00303F
:1053C0004146FFF7B9FE3868F16AC26A914228BFC8
:1053D0004FF0010BCAE70C4A4FF0000B1368013382
:1053E0001360B7E73C1500209415002090140020AE
:1053F0009414002078150020741500208C140020CF
:10540000981400209815002038150020441500201D
:1054100031492DE9F8430B6843B94FF0500383F34A
:105420001188BFF36F8FBFF34F8FFEE7FFF7C8FD03
:105430000B68013B0B600C6824B10020FFF7ACFD4A
:10544000BDE8F883254B1B68002BF6D0244D254E74
:10545000DFF8A4801FE0EB680127DC6804F1040991
:1054600004F11800FFF7FAFD4846FFF7F7FD142096
:10547000E26A316807FA02F30B4300FB02804946F7
:105480003360FFF759FE184BE26A1B68DB6A9A42E9
:1054900001D3164B1F602B68002BDCD10CB1FFF73A
:1054A00013FD134D2C6844B10127104EFFF71EFF6A
:1054B00000B13760013CF9D12C600C4B1B68002B0C
:1054C000BBD04FF080520B4B1A60BFF34F8FBFF32E
:1054D0006F8F0120B2E700BF3C150020341500207B
:1054E0007C150020441500208C1400209815002005
:1054F0003815002004ED00E09814002008B540B9EC
:105500004FF080520A4B1A60BFF34F8FBFF36F8F7B
:1055100008BD084B1A680AB1FFF7BCFC1A680132D3
:105520001A60FFF7C3FDFFF773FF0028E8D0EFE72D
:1055300004ED00E03C1500200520FFF7DFBF000070
:1055400070B50D4C25680544FFF714FC064656B1AE
:10555000FFF710FC0646FFF7EFFF23689D42F6D2E7
:1055600070BD002EFCD1FFF705FC0646FFF7E4FFF7
:1055700023689D42F5D2F3E794150020064B03EB18
:10558000400000231A4630F823100133202B0A4430
:10559000F9D1C2F38F007047D40100202DE9F84300
:1055A000174D04462E788946DFF85C8056B10027F7
:1055B0000120FFF7E3FF48F827000137082FF7D154
:1055C000013E2E70B9F1000F0AD00120FFF7D6FF7F
:1055D0000C4A137848F82300013303F007031370D3
:1055E0000022134658F822100132082A0B44F9D140
:1055F000D8088000B0FBF4F080B2BDE8F88300BFAB
:1056000064010020E8110020EC11002010B50E4BC1
:10561000041E988903DCFFF7C1FF002010BDFFF7CF
:10562000BDFF2D234043B0FBF3F04FF48873C0EB74
:105630000020B0FBF3F0C4EB0424B4FBF0F0FF282F
:1056400028BFFF20C0B2E9E70415002010B50121F2
:10565000FFF7DCFF0A22114B04461A80104B002191
:105660001870104B9889FFF799FF2D234043B0FB2A
:10567000F3F04FF48873C0EB0020B0FBF3F0FF238E
:105680004443B4FBF3F4E823074A11684B43182161
:1056900001FB0434240A146010BD00BF780B002005
:1056A000881400200415002048150020F8B51D4B73
:1056B00000219889FFF772FF0A23C0B2B0FBF3F410
:1056C00003FB1403DBB2042BE4B284BF0134E4B265
:1056D000092C20D9144E0120B6F90050FEF7B6FE71
:1056E000012211461046FEF760FF08230F4F0122EA
:1056F0003B800A23B4FBF3F003FB10401146C0B219
:105700003580FEF752FF0020FEF7A0FE00230C3587
:105710003B803580F8BD01222046BDE8F8401146A7
:10572000FEF743BF041500208A1100208C110020D1
:1057300070B50D4B00219889FFF730FF0A25B0FBAB
:10574000F5F4064601220221A0B2FEF72EFF07481B
:10575000FEF722FF012205FB1460BDE870401146F0
:1057600080B2FEF722BF00BF0415002024BD000850
:1057700008B50020FFF702FFA0F59B536420053B0E
:10578000584340F2E13390FBF3F080B208BD0000D3
:1057900010B5114B1869082390FBF3F080B2FEF7A7
:1057A000FBFD732303FB00F4FFF7E2FF0A23B0FBCA
:1057B000F3F0052380B200EBC000B0FBF3F04FF430
:1057C0007A73B4FBF3F3322203EBC303B3FBF2F3BC
:1057D0001844403010BD00BFE814002010B547F653
:1057E0006F60FEF7D9FD73244443FFF7C1FF0A231E
:1057F000B0FBF3F042F21073B4FBF3F480B2204438
:10580000013810BD10B588B1FFF702FBFEF7C4FDEB
:1058100073244443FFF7ACFF0A23B0FBF3F042F2DA
:105820001073B4FBF3F480B2204410BD034B18692D
:10583000082390FBF3F080B2E8E700BFE8140020F3
:1058400038B5164C0546637A03F0FF00B3B1FFF795
:105850009FFF80B201220321FEF7A7FEE5B1104BA6
:10586000104A1B6893420ED00F4A93420BD0637AC2
:105870003BB10020BDE83840FEF738BEFFF7C2FF5D
:10588000E7E70120F6E7637A23B10848BDE838402E
:10589000FEF782BE0648F9E738BD00BF04150020B8
:1058A000E00F0020C0B80008A4C1000899C4000897
:1058B000F0C30008064B186910F0800007D0054AB5
:1058C0005A6002F188325A601869C0F3C0107047FC
:1058D000002002402301674570B40425C66B026CAA
:1058E0003468036895402542196832D04D0730D599
:1058F0001A6896065EBF1A6822F004021A603E4AD1
:10590000934219D01432934218D01432934217D0D4
:105910001432934217D01432934217D01432934268
:105920000CBF4FF480034FF08063344A5360C36A66
:10593000002B5ED070BC18470423F6E74023F4E741
:105940004FF48063F1E74FF48043EEE74FF4802398
:10595000EBE702259540254235D08D0733D51A68EF
:10596000940606D41A6822F00A021A60012280F80E
:105970002120214A934219D01432934218D0143274
:10598000934217D01432934217D01432934217D057
:10599000143293420CBF4FF400134FF00073174AB8
:1059A0005360002380F82030836AC1E70223F6E7C2
:1059B0002023F4E74FF40073F1E74FF40053EEE7D0
:1059C0004FF40033EBE708259540254211D0090735
:1059D0000FD5196821F00E011960012303FA02F2B4
:1059E0007260836380F82130002380F82030036BDD
:1059F0009EE770BC704700BF0800024000000240F4
:105A0000F0B590F82040012C35D0012490F82150B9
:105A100080F82040A5424FF000064FF0020428D144
:105A200080F8214004688663266826F00106266017
:105A3000D0E90F67BD407560636043680568102B4F
:105A4000C36A0BBFA260A160E160E2604BB1236852
:105A500043F00E03002023602B6843F001032B600A
:105A6000F0BD236823F004032360236843F00A0396
:105A7000F0E780F820600220F2E7436A9A6A42F079
:105A800040029A62DA6A42F00402DA6270477047B2
:105A9000436A9A6A12F0500F18D19A6A42F400725F
:105AA0009A621A68926802F46022B2F5602F10D1EF
:105AB000DA6872B99A6A22F480729A629A6AD20497
:105AC00007D49A6A42F001029A6270471B6A1B6B04
:105AD00018477047036810B59A68D40701D40020AE
:105AE00010BD9A6822F001029A60094A1468996808
:105AF000C907F4D51168091B0229F8D9836A43F054
:105B000010038362C36A43F00103C3620120E7E725
:105B100030150020002337B5026801939368DB0736
:105B200002D5002003B030BD9368124943F0010351
:105B30009360114B1B68B3FBF1F30193019BABB96D
:105B40000E490D68936813F00103EAD10C68641BD9
:105B5000022CF7D9826A80F8243042F01002826267
:105B6000C26A42F00102C2620120DBE7019B013BF5
:105B7000E3E700BF40420F00340000203015002052
:105B800070B50568124E6B6913F0400301D0002018
:105B90000EE06C6914F010040BD06FF010026A6113
:105BA0002022036480F83C30036380F83D2001200C
:105BB00070BD33689B1A8B42E5D9036C80F83C407A
:105BC00043F020030364202380F83D300320EFE7F7
:105BD0003015002070B50568134E6B6913F004038F
:105BE00001D000201FE06C6914F480640FD1336889
:105BF0009B1A8B42F1D9036C80F83C4043F02003A0
:105C000003642023046380F83D3003200BE06FF42D
:105C100080626A61042202642022036380F83C30BF
:105C200080F83D20012070BD3015002070B505685A
:105C3000134E6B6913F0800301D000201FE06C69E4
:105C400014F480640FD133689B1A8B42F1D9036C32
:105C500080F83C4043F0200303642023046380F871
:105C60003D3003200BE06FF480626A61042202641D
:105C70002022036380F83C3080F83D20012070BD75
:105C800030150020F0B50568144F89B26C6931EA0F
:105C9000040401D1204614E06C6914F4806411D02E
:105CA0002B68202243F400732B606FF480636B61D8
:105CB000042303640023036380F83C3080F83D2014
:105CC0000120F0BD3E68F61A9642DFD92023046316
:105CD00080F83C4080F83D300320F2E7301500208A
:105CE000F0B5DFF844C005680F0C89B2012F0CBF76
:105CF0006C69AC6931EA04040CBF01240024A2429F
:105D000001D000200FE0DCF80040059EA41B9C425F
:105D1000ECD900232022036380F83C3080F83D203A
:105D200080F83E300320F0BD30150020436A1A6829
:105D3000116821F4806111600021586B598541631D
:105D4000986B416393F83D0060284FF0200083F882
:105D50003D0083F83E1006D11964136823F0010357
:105D60001360FFF737BA136823F00103136000BE16
:105D7000F7E7000010B590F82130022B03D0042380
:105D80008363012010BD03681A6822F00E021A60B6
:105D90001A6822F001021A60194A934220D0143284
:105DA00093421FD0143293421ED0143293421ED01D
:105DB000143293421ED0143293420CBF4FF480131E
:105DC0004FF080730F4A00245360012380F8213084
:105DD000436B80F8204083B1FFF7A8FF2046D1E74E
:105DE0000123EFE71023EDE74FF48073EAE74FF468
:105DF0008053E7E74FF48033E4E71846C2E700BF7B
:105E0000080002400000024010B5444C94F83D20C8
:105E10002368293A012A36D800222263282284F8EE
:105E20003D201A6822F400621A605A6812F4006277
:105E300051D05A6822F400625A60606B90F82130A9
:105E4000012B374B2ED04363FFF794FF50B12268EC
:105E5000136823F0010313602023606B84F83D3046
:105E6000436B984794F83D30282B0BD1236C5B078C
:105E700008D52C4B2022E3620023236384F83D20C5
:105E800084F83E3010BD94F83D20602A05D05A6851
:105E900012055CBF202284F83D200022226384F892
:105EA0003E20BEE7A06B4363FFF764FF0028D9D014
:105EB00023685A69500604D51A69636A591C6162DD
:105EC0001A702268136823F0010313602023A06B6B
:105ED00084F83D30C4E794F83D10602913D12021A7
:105EE00084F83D1022645A69510604D51A69636A20
:105EF000591C61621A702268136823F00103136051
:105F0000FFF768F9AEE75A69520604D51A69636A61
:105F1000591C61621A7000BEF2E700BF40130020F6
:105F20002D5D00080000FFFF436A19680A6822F42B
:105F300080620A60002220215A8583F83D1083F890
:105F40003E201A6C42F010021A6400BEFFF742B9FC
:105F5000426A92F83D1092F83E00C9B22129C0B2BF
:105F6000136803D022290CD120280AD1596821F4C2
:105F700000615960002151855A6842F440725A60AC
:105F80007047196821F480611960196841F4007143
:105F90001960596821F480515960596821F40061F1
:105FA000596000235385136C13B100BEFFF712B97B
:105FB000202182F83D1092F83E1082F83E30F5E73D
:105FC000012310B580F824300446FFF7A3FD002814
:105FD0003FD1A36A214A23F4405323F0010343F441
:105FE0008053A3622368934205D1A2F58062526870
:105FF00012F4702F25D1A26A22F48012A262A26A42
:1060000012F4807208BFE262002284F824206FF04C
:1060100004021A605A68520512D49A6802F4E042E7
:10602000B2F5E04F11D10D4A934205D1A2F580623D
:10603000526812F4702F08D19A6842F402129A60E2
:1060400010BDA26A42F48012D8E79A6842F4004276
:10605000F5E7002384F82430F2E700BF0028014070
:10606000F7B50246002092F824300190012B00F091
:10607000D1800127D2F808C082F82470D1E90056F7
:106080001368BCF1000F7AD1BE4272D160469C6B9E
:10609000A40DA40544EAC5349C639C68E40707D4B6
:1060A0009C68CF6924F4E04424F001043C439C60E4
:1060B0008C69012C0DD1CF69B7F5E04F17BF906AFD
:1060C0005F6840F02000906212BF204647F480676E
:1060D0005F604F69012F05D1002C70D15C6844F4DA
:1060E00080545C60092D05EB4504D1F808E04FF0C1
:1060F00007076AD9D3F80CC01E3CA7402CEA070753
:106100000EFA04F43C43DC60A5F11004012C98BFA6
:106110009F68DFF810C19CBF47F400079F60022E04
:10612000CF685CD0032E60D0012E64D1596901EA9A
:106130000C0139435961012C16D837498B4263D180
:106140009968090210D49968102D41F400019960F2
:106150000AD1324B32491B68B3FBF1F10A234B439E
:106160000193019B002B4CD1002382F8243003B013
:10617000F0BD946A384644F0200494628DE71F27EE
:10618000D1F810C0A6EB0C0404EB84040F34A74034
:1061900047F44017B4456FEA07070CD3D3F838E04B
:1061A0000CF1FF3C05FA04F444EA0C540EEA07072C
:1061B0003C439C6371E79C6B27409F636DE7906A4B
:1061C00040F02000906238468CE7D3F810C0A7401A
:1061D0002CEA07070EFA04F427431F6194E7996934
:1061E00001EA0C0139439961A5E7D96901EA0C017B
:1061F0003943D9619FE7196A01EA0C0139431962F1
:1062000099E7019B013BABE7936A012043F0200330
:106210009362A9E70220AAE700240140340000208D
:1062200040420F0000F0FFFF002337B5019390F8C4
:1062300024300446012B5FD0012380F82430FFF77F
:1062400049FC0546002839D1A36A2C4823F4885319
:1062500023F0020343F00203A362294B1A68294B7F
:1062600059685B68C1F3C221415CC3F381330133D8
:1062700022FA01F15B00B1FBF3F3B2FBF3F252003F
:106280000192019BF3B92046FFF744FC23689A680A
:1062900042F008029A601C4A10689968090715D4F0
:1062A000996841F0040199601068996849071ED403
:1062B000A36A23F0030343F00103A362002384F8DD
:1062C000243011E0019B013B0193DAE71168091AC0
:1062D0000A29E2D9A36A012523F0120343F010032F
:1062E000A362002384F82430284603B030BD11682F
:1062F000091A0A29D9D9EDE70225F5E7E4AF000824
:10630000340000200010024030150020034B013003
:1063100019681A68521A8242FBD370473015002060
:106320002DE9F0474AF6AA242D4E2E4D33681C6005
:106330003523EB60FFF7BEFA0A20FFF7E7FF33686B
:106340001C60294C237E012B17D001232376FDF7F7
:106350002DFF80B9E0612B6943F002032B61234BD1
:106360006B612B6943F040032B61FDF71FFF2B6925
:1063700023F002032B6100232376FFF79BFA1B4DCA
:10638000DFF86C90174FDFF86C804AF6AA2233686A
:106390001A6005F17843A3F57C4339F803A0237E06
:1063A000012B13D001232376FDF700FF60B9E061D4
:1063B0003B6943F001033B61A5F800A0FDF7F6FE41
:1063C0003B6923F001033B610023237602354545F9
:1063D000DBD1044A136943F080031361BDE8F08701
:1063E00094130020002002406814002000FC0008E4
:1063F0000415002024FC00081A4A036890420AD0C1
:10640000B0F1804F07D0A2F59432904203D002F54C
:106410008062904215D14A6823F070031343114AF9
:1064200090420AD0B0F1804F07D0A2F5943290424A
:1064300003D002F58062904203D1CA6823F440730E
:1064400013434A6923F08003134303608B68C362DC
:106450000B688362034B984204BF0B6903630123FB
:1064600043617047002C014013B590F83D3004465D
:1064700003F0FF0200687BB9144B84F83C2098427B
:1064800016D103F50333DA6942F00202DA61DB69FF
:1064900003F002030093009B0223211D84F83D308A
:1064A000FFF7AAFF0123002084F83D3002B010BDA1
:1064B000B0F1804FF0D1064BDA6942F00102DA61A7
:1064C000DB6903F001030193019BE5E70004004051
:1064D0000010024013B519200021FDF7F9FE4FF01E
:1064E00000721C4B1C4C1A601C4B20469A6942F4EB
:1064F00000629A619A6902F400620192019A5A68F4
:106500005A685A685A68164A12685B68154AC3F393
:10651000C223D25C144B1B68D340144AB3FBF2F382
:10652000134A013B2260636040F2E7320023E260DD
:106530002361A360FFF798FF50B92368DA6842F03F
:106540000102DA601A6842F001021A6002B010BD5E
:106550000120FBE700E100E0A01300200010024052
:1065600000200240E4AF00083400002040420F0049
:10657000002C014010B5036804461A6991070ED536
:10658000DA6892070BD56FF002021A6101220277D6
:106590009B699B0701D1FEF777FC002323772368D3
:1065A0001A69500710D5DA6851070DD56FF004024B
:1065B0001A61022222779B6913F4407F02D12046A0
:1065C000FEF762FC0023237723681A6912070FD5B0
:1065D000DA6810070CD56FF008021A6104222277DE
:1065E000DB69990702D12046FEF74EFC0023237792
:1065F00023681A69D20610D5DA68D0060DD56FF077
:1066000010021A6108222277DB6913F4407F02D15D
:106610002046FEF739FC0023237723681A69D10747
:106620001CD5DA68D20719D56FF001021A61236808
:10663000B3F1804F34D11E4A1E4913880968013BCB
:106640009BB213801C4B1B78DBB20B640B6C23B327
:1066500013889BB20BB31948FDF722FE23681A6911
:10666000100605D5DA68110644BF6FF080021A6182
:1066700023681A69520605D5DA68500644BF6FF0E0
:1066800040021A6123681A69910605D5DA689206F4
:1066900044BF6FF020021A6110BDFDF7D1FDDDE7A8
:1066A000074A934201BF074A136801331360D5E7D5
:1066B000780B0020E0130020881400202014002014
:1066C000002C01403015002010B590F83D300446F4
:1066D00003F0FF020BB980F83C200223206884F805
:1066E0003D30211DFFF788FE0123002084F83D3056
:1066F00010BD00002DE9F74F00221646654BDFF86C
:10670000A4C1DFF8A4E14FF001080C6808FA06F80C
:1067100008EA0404A0457ED14D68122D00F0AE8039
:1067200000F28780022D00F0A6807BD8002D00F0BB
:106730008D80012D00F09D804FF00F09FF2C93BF3D
:10674000824606F18045083DD0F800B092BFB50002
:10675000D0F804B0AD0009FA05F82BEA080802FAEF
:1067600005F588BF00F1040A48EA0505CAF800509B
:10677000D1F804A01AF0805F4DD0474F26F00308EF
:10678000BD6908F1804845F00105BD61BD6908F5A6
:10679000803805F00105019506F0030B019D4FEAD5
:1067A0008B0BD8F8085009FA0BF925EA09093B4D7B
:1067B000A84268D005F58065A84266D005F58065D9
:1067C000A84264D005F58065A8420CBF03250425C6
:1067D00005FA0BF545EA0905C8F808501D681AF4D2
:1067E000803F14BF2543A5431D605D681AF4003F38
:1067F00014BF2543A5435D609D681AF4801F14BF34
:106800002543A5439D60DD681AF4001F14BF2C4387
:1068100025EA0404DC600136102E7FF474AF03B067
:10682000BDE8F08F032D22D0112D85D1CA68043226
:1068300082E71B4FBD4209D012D8DFF870904D455A
:1068400004D009F580394D457FF476AF8A68C2B12E
:10685000012A0CBFC0F81080C0F8148008226BE732
:106860006545F3D07545F1D0DFF84490EBE70022A1
:1068700062E7CA6860E7CA6808325DE7CA680C3236
:106880005AE7042258E70025A2E70125A0E70225E0
:106890009EE700BF000401400010024000080140D4
:1068A0000000211000003110000032100000111013
:1068B0000000221070B5816A86B00446002941D1DB
:1068C0000268624BC1629A4280F8241003F56C435F
:1068D0009A6940F08C8042F400729A6180254FF4EE
:1068E00080729B694FF4806C03F400730293029BE7
:1068F000574B5848C3E903522022C3E905C24FF45D
:106900004052C3E90001DA61534A19649960DA63BD
:10691000026822F47F5222F0300242F4565242F0D2
:10692000200202600122996383F8212083F820105D
:1069300023625C620F211220FDF7CAFC4FF4802213
:10694000464B1A602046FFF7C5F8A36A13F0100FF4
:10695000A36A76D1002874D1E16923F48853626870
:1069600023F0020343F002030A43A168A362E36831
:10697000B1F5807F42EA43024AD0012914BF06469E
:106980004FF480766569012D07D1002B42D1A369B0
:10699000013B46EA433545F400662368B1F5807F44
:1069A0005D6825F4694545EA06055D609E682C4DE5
:1069B00005EA060545EA02059D6001D0012932D1AC
:1069C000216901390905DD6A25F470052943D96279
:1069D0009968244B0B409A4227D10023E362A36AB3
:1069E00023F0030343F00103A36206B070BD42F439
:1069F00080629A619B69082203F480630193019B82
:106A0000032302A91848CDE90223FFF773FE91E79B
:106A10000E46B7E7A36A43F02003A362E36A43F09C
:106A20000103E362B9E70021CDE7A36A23F0120373
:106A300043F01003A362E36A43F00103E362012021
:106A4000D3E743F01003A362F9E700BF002401403D
:106A500074120020080002400000024000E100E043
:106A6000FDF7E1FFFE0E1FFF000C01402DE9FF477F
:106A700001210646FEF792FD64284FF0010304D978
:106A8000484A137004B0BDE8F0870822CDE900231E
:106A90000323454D6946284600240393FFF72AFE49
:106AA0004FF4A06369460093CDE90144FFF722FE4D
:106AB0004FF4F04369463D480093CDE90144FFF7A8
:106AC00019FE4FF40023A046384F2B610120FEF73A
:106AD00015FD822CA3B24AD9BD688C2B85F40065C4
:106AE000C5F3C0250AD1022302934FF4006369461F
:106AF0003846CDF804800093FFF7FCFDC72C02D088
:106B00000134002DE2D00023CDE901334FF40063BE
:106B1000264C694620460093224FFFF7EBFDC5B394
:106B20004FF4806A4FF080794FF0080801234FF44A
:106B3000A0621D4DC4F810A06946C4F81090C5F8B5
:106B40001080CDE90023FFF7D5FD0423C4F810A081
:106B5000C4F810900A24C5F810803B70012130461B
:106B6000FEF71CFD502804D903233B708AE700255B
:106B7000C4E70A20013CFEF7C1FC14F0FF04EDD18C
:106B800005230B4A3B7013780133DBB20A2B1370D9
:106B900001D900233B70064B1B780A2B7FF672AF9E
:106BA0000023E2E77A0B0020000C014000080140BE
:106BB0007B0B00202DE9F843364D04462A780E461B
:106BC000052A02D10846FFF751FF2D78002D5FD02E
:106BD000314B1B68632B5BD901213046FEF7DEFC8D
:106BE000032D55D100B2241A022094FBF0F4631C4B
:106BF00083424DD94FF48068284D294E002C23DB69
:106C00004FF48068254D264E002C3CD04FF4807701
:106C10004FF40029C5F8108003202F61C6F81090AA
:106C2000FEF76CFC0823C5F8108001202F6133614A
:106C3000FEF764FCC5F8108003202F61C6F81090A1
:106C4000FEF75CFC013CDFE74FF400274FF480794E
:106C5000C5F810800320C5F810903761FEF74EFC90
:106C60004FF08073C5F8108001202B613761FEF76B
:106C700045FCC5F810800320C5F810903761FEF779
:106C80003DFC0134BAE70A20BDE8F843FEF736BC04
:106C9000BDE8F8837A0B002094150020000801401D
:106CA000000C0140F0B5044687B010B9012007B0D0
:106CB000F0BD90F83D306B4E03F0FF05002B61D125
:106CC000C02212230127CDE90223022380F83C5081
:106CD00002A96548CDE90473FFF70CFD4FF0800E63
:106CE0001821F369614843F40013F361F369604AC2
:106CF00003F400130193019B5E4BDFF8A0C1C3E9CD
:106D000003E5C3E90005C3E90555C3E90F219D600B
:106D1000DD61016801EA0C0141EA0E010160102009
:106D20009D63554983F82050A36383F821705C620A
:106D3000524BC3E900104FF48050D8611420C3E9CE
:106D4000025EC3E90455C3E90F209D610A681F2054
:106D500002EA0C0242F4845242F010020A609D637F
:106D60000F21636383F8205083F821705C62FDF784
:106D7000AFFA4FF00043424D0F212B602020FDF76A
:106D8000A7FA6F602423206884F83D3003683D4AE9
:106D900023F00103036073683B49C3F30223D35C10
:106DA0003A4A1268DA4063688B4230D838498A42DE
:106DB0007FF67CAF3749B2FBF1F1416001310162EE
:106DC0003149013A8B4232D85B00B2FBF3F2531CDB
:106DD000C3F30B03042B38BF0423C361D4E9073288
:106DE00013430360D4E9032313438360D4E90532DA
:106DF0001343C360036843F00103036000202023B2
:106E0000206484F83D30206384F83E004FE7224937
:106E10008A427FF64BAF1F4D4FF49671B2FBF5F5EA
:106E2000694345604FF47A75B1FBF5F1C6E7A16897
:106E300051B903EB4303B2FBF3F30133C3F30B0389
:106E40006BB143F40043C8E719214B43B2FBF3F3A2
:106E50000133C3F30B0313B143F44043BDE70123F4
:106E6000BBE700BF00100240000C01408000024060
:106E700000000240B81200206C000240FC1200200A
:106E800000E100E0E4AF0008A0860100340000202B
:106E90007F841E0040420F00FF083D000FC0FFFF2F
:106EA0002DE9FF412E4F11203B6840251A684FF015
:106EB000800813682B4C23F0010313600123CDE9F4
:106EC0000103022304AE46F8105D314620460393C9
:106ED000FFF710FC2561CDF80080FFF70BFC652360
:106EE0004FF48002C4F81080A16809062ED5122242
:106EF00001234FF04008CDE90123022380253146CC
:106F000018480393CDF80080FFF7F4FB154800956F
:106F1000FFF7F0FBC4F8108025613B681A6813681E
:106F200043F40043136000BF3B681A68136823F4FE
:106F30000043136000BF38680268136843F0010320
:106F40001360FFF7AFFE04B0BDE8F081226100BF1F
:106F500000BF00BF00BF013B2561C5D1F3E700BF03
:106F6000DC110020000C0140F0B590F83C30012B02
:106F70004FF0020337D080F83D3003680E681A6A7C
:106F800022F001021A621A6A5D689C6922F002020C
:106F900024F0730434438E683243144EB3420BD151
:106FA000CE6822F00802324325F44075D1E9056726
:106FB0003E4322F0040235435D609C614C680969E0
:106FC0005C631A629A6942F008029A619A6922F037
:106FD00004029A619A690A439A61012380F83D305C
:106FE000002380F83C301846F0BD00BF002C014063
:106FF0002DE9FF419846594B04461D6890F83D30F5
:107000000E46202B174603D0022004B0BDE8F081C5
:107010000095192301225249FEF762FE0028F3D1A0
:1070200094F83C30012BEFD0012384F83C302368E6
:1070300001211A682046D2075EBF1A6842F0010299
:107040001A601A6822F400621A60212284F83D2036
:10705000402284F83E20002222646185A1F10111C2
:10706000E162618DC4F824802185196841F4807142
:10707000196000950A9B4FF00111FEF731FE58B9D7
:10708000236806F0FE061E610A9A2B463549204603
:10709000FEF7F8FD48B1236C236C042B4FF000037E
:1070A00084F83C3034D10120AFE7236803905A695B
:1070B0000A9903929B692A4603932046039BFEF795
:1070C000B5FD40B1236C042BE6D12268136843F46C
:1070D00000731360E0E723681F61238D2A460A9935
:1070E00020467BB9FEF776FD78B92268136843F431
:1070F00000731360202384F83C0084F83D3084F84A
:107100003E0082E7FEF792FD20B1236C042B1FD0D6
:1071100003207AE7616A26684B1C63620B78228D34
:107120003361638D501E013B9BB26385736980B2EE
:107130005B072085D1D50028CFD08B1C63624B78AC
:10714000023A3361638D2285013B9BB26385C4E7BC
:107150002268136843F400731360A4E7301500201D
:1071600002001000020001002DE9F0439946A34BF4
:1071700089B01D6890F83D300446202B0E4690469D
:10718000119F04D00226304609B0BDE8F083009577
:10719000192301229A49FEF7A3FD0028F2D194F8A1
:1071A0003C30012BEED0012384F83C30236820468C
:1071B0001A68D10758BF1A68BDF840105CBF42F08A
:1071C00001021A601A6822F400621A60222284F80E
:1071D0003D20402284F83E200022226461858949B6
:1071E000C4F82490E162618D2185196841F48061C1
:1071F0001960196841F48071196000953B464FF0A1
:107200000111FEF76DFD10BB2368F6B206F0FE0219
:107210001A617D492B463A462046FEF733FD08B1F8
:10722000236C14E0236807905A69394607929B69DA
:107230002A4607932046079BFEF7F8FC80B1236C93
:10724000042B04D12268136843F400731360236C89
:10725000042B4FF0000384F83C304FD1012692E715
:1072600023682A46C3F810802046FEF7DFFC02465A
:107270000028E4D1216820460B6843F480730B603A
:1072800000953B464FF00111FEF72AFD0028DED1A4
:10729000236846F001061E613A462B465A492046AD
:1072A000FEF7F0FC06460028BAD1228D23683AB3D7
:1072B000012A38D11A6822F480621A6072B62368F3
:1072C00005905A6905929A690592059A1A6842F4DE
:1072D00000721A6062B6DFF83481238DD3B1032BBC
:1072E00000F29680012B3AD12A4639462046FEF715
:1072F00047FC002852D0236C202BAFD1032642E755
:1073000006905A6906929A690692069A1A6842F499
:1073100000721A60202384F83D30002384F83E3048
:1073200084F83C302FE7022A1A680ED142F400623A
:107330001A6072B6236804905A6904929A6904929A
:10734000049A1A6822F48062C3E742F480621A60E9
:1073500003905A6903929B690393039BBBE7022B3B
:1073600000953B464FF000024146204624D1FEF7EF
:10737000B7FC0028C2D172B623681A6842F40072C2
:107380001A601A69636A591C61621A70238D013B85
:107390002385638D013B9BB2638562B623681A69BE
:1073A000636A591C61621A70238D013B2385638DCA
:1073B000013B9BB2638590E7FEF792FC02460028F2
:1073C0009CD121680B6823F480630B6072B623683C
:1073D0001969636A581C60621970238D0095013B1E
:1073E0002385638D4146013B9BB2638520463B4626
:1073F000FEF776FC0028BFD080E700BF30150020E4
:10740000020010000000FFFF020001000400010064
:107410002A4639462046FEF7B3FB00287FF46BAFBF
:1074200023681A69636A591C61621A70238D013BD3
:107430002385638D013B9BB2638523685A6952079C
:107440007FF54BAFABE700BF0026444D80B5002071
:10745000FEF7FCF8424F2A68424BDFF82491DFF830
:1074600024813E601A60FDF7ABFD2B685B6D7BB934
:1074700001222B684FF4FA6083F85820FDF716FEBE
:107480004FF08053C9F80030BFF34F8FBFF36F8FB9
:10749000FDF782FDFDF794FD2B68596D11B10022B7
:1074A0002B685A6500222B6883F85820FDF774FD7D
:1074B00000294DD00120FEF7A5F982463868B0B109
:1074C000B0F5E17F28BF4FF4E1700446FEF786F97E
:1074D000A04202D2FEF782F90446234BCAF1010A08
:1074E00018682823544404F30F0403FB0400D8F85D
:1074F00000309B1BB3F57A7F02D90328B8BF032065
:1075000040F21A42D8F800309B1B934203D902285C
:10751000C8BFD8F800600822144B1B6993FBF2F334
:1075200047F669729BB2934288BF0020104BDA7C09
:1075300032B10A211A7D4A438242BCBF187D4843BA
:10754000FEF784F84AF6AA220A4B1B681A608AE7FB
:107550000A22094B1A80094B197084E78C14002009
:1075600010120020D80F002048150020E814002039
:107570000415002094130020780B002088140020AC
:1075800004ED00E0941500200023F0B585B00193D0
:10759000044640B94FF0500383F31188BFF36F8F57
:1075A000BFF34F8FFEE7016C41B14FF0500383F3FF
:1075B0001188BFF36F8FBFF34F8FFEE7FDF774FCA9
:1075C00050B9019941B14FF0500383F31188BFF3D3
:1075D0006F8FBFF34F8FFEE76E4E6F4F6F4DB1E071
:1075E0006568B5B9002500226260626A0136A6634B
:1075F000002A65D004F12400FDF7AAFD002861D01F
:107600004FF08052654B1A60BFF34F8FBFF36F8FFF
:1076100058E0634B1B689D4208D04FF0500383F342
:107620001188BFF36F8FBFF34F8FFEE72B6D43B908
:107630004FF0500383F31188BFF36F8FBFF34F8F69
:10764000FEE7E96AEA6C013B91422B65CAD0002B48
:10765000C8D12F1D3846FDF701FDDFF850C1514A52
:1076600070B91420D5F82CE000FB0EF05CF8003067
:1076700033B90121136801FA0EF123EA0103136003
:10768000EB6CC3F10401EB62A9610125116805FAF5
:1076900003F0084310601420394600FB03C0FDF7D7
:1076A0004BFDA0E70021A06803F02AFCA368226C30
:1076B00013446268A360934224BF2368A3604FE031
:1076C000002D9DD1FDF768FC012005B0F0BD0198AB
:1076D00010B9FDF761FCF8E719B9336802933B680C
:1076E0000393FDF759FC304A136801331360FDF72B
:1076F00067FC94F84430FF2B04BF002384F8443027
:1077000094F84530FF2B04BF002384F84530FDF783
:1077100043FC01A902A8FDF76FFC98BBFDF750FCE4
:10772000A26BE36B9A421DD1FDF736FC019904F17F
:107730001000FDF7F3FC2046FDF796FDFDF768FE0F
:10774000C0B10121FDF73CFCA26BE36B9A42BED2B3
:10775000226CA66B002AA5D12368002B3FF440AF12
:10776000002542E7FDF718FC2046FDF77DFDFDF7FB
:107770004FFEE6E74FF080532B60BFF34F8FBFF310
:107780006F8FDEE72046FDF76FFDFDF741FE00201D
:107790009BE700BF781500209415002004ED00E061
:1077A0008C140020441500203C1500209814002063
:1077B00032232DE9F04F85B00193044640B94FF0D4
:1077C000500383F31188BFF36F8FBFF34F8FFEE732
:1077D000016C41B14FF0500383F31188BFF36F8FF9
:1077E000BFF34F8FFEE7FDF75FFB50B9019941B141
:1077F0004FF0500383F31188BFF36F8FBFF34F8FA8
:10780000FEE76F4F6F4E91E0019B1BB9FDF7C4FB84
:107810000020C0E029B96C4B1B6802936B4B1B68BE
:107820000393FDF7B9FB6A4A136801331360FDF750
:10783000C7FB94F84430FF2B04BF002384F8443086
:1078400094F84530FF2B04BF002384F84530FDF742
:10785000A3FB01A902A8FDF7CFFB002840F0A280FE
:10786000FDF7AEFBA36B002B58D1FDF795FB23680A
:10787000002B40D1FDF7A4FB6568002D39D032689C
:10788000EB6AD26A934234D24FF01408AA69DFF847
:1078900048B1002AA8BF326808FB03B3A8BFD26A68
:1078A000D946A4BFC2F10402AA616A699A4275D19D
:1078B00005F1040A5046FDF7D1FB464A58B9E86A7B
:1078C00008FB00F85BF808302BB9012113688140F0
:1078D00023EA0103136033681168D86A01238340E7
:1078E0000B4313601423E862514603FB0090FDF73D
:1078F00023FCFDF751FB019904F12400FDF70EFC78
:107900002046FDF7B1FCFDF783FD70B94FF08053C1
:107910003B60BFF34F8FBFF36F8F06E0FDF73CFB7B
:107920002046FDF7A1FCFDF773FD0121FDF748FBA3
:10793000A56B002D3FF468AF226CE36862B161680B
:1079400013448B42E36028BF23684FF0000028BF38
:10795000E360E16803F0D4FA2368013DA56343B90D
:10796000184B1A681AB119680A6D01320A651B684A
:107970006360236963B104F11000FDF7E9FB38B1DE
:107980004FF080520E4B1A60BFF34F8FBFF36F8FD3
:10799000FDF702FB012005B0BDE8F08F3368DB6A1C
:1079A000EB62A6E72046FDF75FFCFDF731FDFDF732
:1079B00007FBA36B002B3FF429AFFDF7EDFAB4E70B
:1079C00004ED00E08C1400207815002094150020B0
:1079D0003C1500204415002098140020F0B5A14D5E
:1079E0000646286885B00F46002840F0BB809E4BB5
:1079F0001C689E4B1D6894F83D30202B40F08B8016
:107A00000095192301229A492046FEF769F90028BA
:107A100040F0818094F83C30012B7CD0012384F825
:107A20003C3023681A68D2075EBF1A6842F0010230
:107A30001A601A6822F400621A60212384F83D302B
:107A4000102384F83E3000232364A3F58033678538
:107A5000E362638D66622385E36A042B04D0012B05
:107A600002D013F5803F05D12268136843F4807378
:107A7000136002E0236B122BF6D0009541F288339D
:107A800000224FF001112046FEF72AF968BB226957
:107A90002368B2F5804F1DD1782276491A612046BD
:107AA0002B4641F28832FEF7EDF8E8B923680290E0
:107AB0005A6902929B690293029B238DE3B9216864
:107AC0000A6842F400720A60202284F83D2084F89B
:107AD0003E300CE0F02268491A6120462B4641F204
:107AE0008832FEF7CFF828B1236C236C002384F88A
:107AF0003C3010E02368CFE72A4641F28831204627
:107B0000FEF794F848B1236C042B04D12268136863
:107B100043F40073136005B0F0BD616A20684B1C2C
:107B200063620B780361638D228D013B9BB2638599
:107B3000531E9BB22385466976070AD54BB18B1C31
:107B400063624B78023A0361638D2285013B9BB2ED
:107B500063852A4641F288312046FEF73BF800282B
:107B6000ABD0D0E7FFF724FE0128D4D13E4B1C68F0
:107B70000023039394F83D30202B12D146F2A81233
:107B80003E4B1B68B3FBF2F2192353430393039B51
:107B90005A1E03926BB92022236384F83C3084F888
:107BA0003D20FFF77DF9286805B0BDE8F040FFF7FC
:107BB000EBBC226893699907E9D494F83C30012B17
:107BC000EFD0012384F83C3013680025DB0758BF51
:107BD00013684FF078015CBF43F001031360136832
:107BE00023F400631360212384F83D30102384F8CC
:107BF0003E30234B25646785E362638D66629BB2EA
:107C000023856164F3B1606B1E49103281621E49A5
:107C10004563C0E90B513146FDF7F2FE23681A684F
:107C200042F480621A601A6842F480721A6084F822
:107C30003C505A6842F440725A605A6842F40062FA
:107C40005A6068E7116841F480611160116841F47D
:107C50008071116084F83C30536843F4E0635360F2
:107C600059E700BF90110020DC11002030150020E2
:107C70000200100002000100080001003400002092
:107C80000000FFFF515F0008295F000838B5124D62
:107C900080F001042A78A24218D0104BBCB1C8224F
:107CA000DA72A12232210D48DA74FFF797FE002C18
:107CB00014BF002220220A4B2C705A7114BF5F227D
:107CC0007F22DA7114BFC822C0225A7238BDC02286
:107CD000DA72A022E6E700BFC810002000000020F2
:107CE000E40F00200E4B99799A79013161F301027A
:107CF00003219A719A7902F0030292FBF1F101EBF0
:107D00004101521A997962F301019971987910F041
:107D1000030002D0012800D07047FFF7B7BF00BFB3
:107D200004150020D1210148FFF758BEE40F0020C0
:107D30002DE9F341184C054620680E461746984633
:107D400068B941F28833CDE90083144813460068CE
:107D50000A462946FFF708FA02B0BDE8F081FFF7AE
:107D600027FD0128F8D14FF4FA73CDE900830B48C1
:107D70003B46324629460068FFF7F6F928B12568E8
:107D8000FFF78EF82846FFF7FFFB206802B0BDE83A
:107D9000F041FFF7F9BB00BF90110020DC1100207B
:107DA000F7B5164C054620680E46174658B941F2FD
:107DB000883313480093006813460A462946FFF7A4
:107DC00017F903B0F0BDFFF7F3FC0128F9D14FF428
:107DD000FA730B48009332463B4629460068FFF78A
:107DE00007F928B12568FFF75BF82846FFF7CCFBB9
:107DF000206803B0BDE8F040FFF7C6BB901100203B
:107E0000DC1100202DE9F0410746DDE90604884633
:107E10001D4640B94FF0500383F31188BFF36F8FB5
:107E2000BFF34F8FFEE744B94FF0500383F311883F
:107E3000BFF36F8FBFF34F8FFEE796003246A52149
:107E4000206303F081F8226B043E324408F1FF33D3
:107E500022F0070204F1340108F1170813F8010FAA
:107E600001F8010B187808B14345F7D1032D28BF5D
:107E70000325C5F104030021A3614FF08073E5627F
:107E8000C4E91351616584F84B106161A1622461FA
:107E9000646284F8581042F8043C444B27F0010710
:107EA00042F80C3C42F8087C42F8201C403A226020
:107EB000FDF786F83E4A3F4E1368DFF82081013314
:107EC000136035683C4BD4F82CC0002D63D134606E
:107ED0001268012A39D14FF0FF3703F108025A60C6
:107EE000C3E902721A611A4642F81C5B3349C3E9BE
:107EF0000627C3E9082203F13002C3E90B27C3E9CF
:107F00000D2203F14402C3E91027C3E9122201F153
:107F10000802C1E90127C1E90322294A0D6002F1E3
:107F20000800C2E90107C2E9030026485D6100F1CB
:107F3000080EC0E901E79D62DD631560C0E903EE4C
:107F400005602148016021490A6021490A6801321F
:107F50000A6001221F4902FA0CF208680243142049
:107F60000A6000FB0C30211DFDF7E6F8FDF714F860
:107F7000D8F8003063B13368DA6AE36A9A4207D20C
:107F80004FF08052144B1A60BFF34F8FBFF36F8FC7
:107F90002046BDE8F081D8F80020002AD5D132680B
:107FA000D26A624598BF3460CFE700BF69430008DA
:107FB000341500208C140020981400204C1500204B
:107FC000601500207C1500209014002094140020DF
:107FD000401500204415002004ED00E0901500201D
:107FE00037B5D0E900148569B0F908300269019508
:107FF0004069842B009014BF033300232046FFF711
:1080000001FF03B030BD000010B5244C2422002134
:10801000204602F099FF962363803C2323714FF49E
:1080200096731E222380002301210720637162754D
:10803000227A63F3C3022272227A63F382022272EB
:10804000A27961F30102A271A27960F38502A271A3
:108050000A204FF44372A281E071227A0A4322720D
:108060004FF4D272E281A27963F38712A271227A6D
:1080700042F0020222726372A27A0A43A272E3748D
:108080004FF4617323821823A3742375052321778A
:108090002384E083BDE81040FEF742B904150020B8
:1080A000024BC0220021186802F04EBFC010002011
:1080B0002DE9F0410020FCF7C9F94FF00005FFF76A
:1080C000EFFF294E294F2A4C0021A0894FF00A08C2
:1080D00035803D80FDF762FAB0FBF8F00122022105
:1080E00080B2FCF762FA2348FCF756FA0021A08917
:1080F000FDF754FAB0FBF8F303FB1800002201214E
:1081000080B2FCF752FA1C48FCF746FAFCF732FE44
:1081100001380F280DD8DFE800F008190C1C0C0CF2
:108120000C1C0C0C0C0C0C0C0C1CA38901339BB20A
:10813000A381FFF7F7FD0420FDF7E0F9A389B3F56C
:10814000FA7F0AD24FF4FA73A381BCE7A389013BFB
:10815000EDE7BDE8F041FEF7E3B8A389B3F5617F31
:10816000B1D94FF46173EFE78A1100208C11002020
:108170000415002024BD000885C400082DE9F74F30
:108180000646554DDFF88881FCF7F4FD002840F0E5
:10819000A1802B68642B0FD998F800302BB14F4A7F
:1081A0002B6812689B1A632B6AD94D4A2B68126898
:1081B0009B1A632B40F28E804A4C4B4F627A02F03E
:1081C000FF03002A61D0002E5DD16288238893428C
:1081D00028BF13461F2B56D9092203EB8303A03B6C
:1081E000B3FBF2F33B60637A03F0FF00002B54D043
:1081F000FDF7CEFA4FF0000B1FFA80FAFFF750FFA1
:108200003A4A3B4BA2F800B0A3F800B094F80890AB
:108210000192C9F3C0090093B9F1000F42D00120C7
:10822000FCF714F93348FCF7B7F9019A009BA2F860
:1082300000B0082230481A80FCF7AEF90122032171
:108240005046FCF7B2F9637A53B32C48FCF7A4F913
:108250002B48FCF7A1F9FDF76BFA2A48FCF79CF9CB
:10826000E37993B31D4B196879B341F270732A68AF
:10827000E079521A43439A4227D9002301203B60F8
:1082800003B0BDE8F08F0023ACE7002EAAD16288CE
:108290002388934228BF1346A4E7FDF7B3FAA9E762
:1082A0001948D3E74846FCF7D1F81848FCF774F9A9
:1082B000012203215046FCF778F9637A1BB1484646
:1082C000FCF714F9CCE70120FAE7FFF72BFDFDF7E7
:1082D00033F959E70020D3E79415002064140020F7
:1082E0006014002004150020101200208A110020C4
:1082F0008C1100203AC4000847C4000899C4000843
:1083000081C4000885C40008F0C300084EC40008FA
:108310000C1200202DE9F84F00242646A0465E4DA1
:108320005E4B2F68DFF890B11C605D4BABF80080AE
:10833000A3F80080FFF7B4FE0020FCF787F8FCF7F5
:1083400019FD002832D001382F680F282ED8DFE819
:1083500000F080142D1C2D2D2D082D2D2D2D2D2DB3
:108360002DA12A68A31B13441E2B1FD94D4B1A7F26
:10837000D98BA2B11A880A4413E04A4B1A7F198C90
:10838000002A6BD01A880A446AE02A68A31B1344A7
:108390001E2B0BD9434B1A7FD98B002AEAD01A889F
:1083A000521A92B21A8003342E68E4B2DFF8F4A0B5
:1083B000C4F11E039AF80920092BD8BF1424002AFF
:1083C00051D040F25232BAF800108A4238BFAAF8AF
:1083D0000020BAF80020772A02D87822AAF80020D4
:1083E0002A68D21BC82A55D82F4A9AF81C0092F83E
:1083F0000090B9F1000F45D12C492D4A002814BF37
:1084000008461046FCF7C8F82A48FCF7C5F80122D0
:10841000BAF800000321FCF7C8F89AF80920002AEE
:1084200033D00020FCF762F82248FCF7B5F89AF840
:108430001C00B9F1000F2AD11D4A1C4B002814BFA3
:1084400010461846FCF7A8F8FFF76CFCFDF774F827
:108450006BE7144B1A7F198C002A93D01A88521A92
:1084600092B21A80A2E7BAF80020B2F5E17F84BF89
:108470004FF4E172AAF80020BAF80020312AAFD8F0
:108480003222ABE70A49094AB8E70120CAE7074A9E
:10849000074BD3E7BDE8F88F941500201012002099
:1084A0008A11002004150020C810002038C40008DC
:1084B000B7C6000881C400088C1100202DE9F047E0
:1084C000914C2379052B89BF25794FF47A756B1F61
:1084D00041F2707598BF23795D4390B900268B4FA8
:1084E000DFF86082FCF746FC102818D8DFE800F0BF
:1084F000169C9C1796171717141717171717171787
:108500001400831E58425841FFF738FE0028E5D07A
:108510007F4B1A687F4B1A60BDE8F08700264FF04A
:108520000009A7F80090A8F80090FFF7B9FD4846A9
:10853000FBF78CFF237ADFF8109213F0080F00F09E
:108540008B804FF00A0A0120FBF780FF7248FCF78E
:1085500023F8D9F800000122B0FBFAF0022180B222
:10856000FCF723F86D48FCF717F8D9F80030012222
:10857000B3FBFAF00AFB1030114680B2FCF715F895
:108580006748FCF709F8A37913F03C0F20D0237952
:10859000F3B16448FCF700F85D495E4B624A086835
:1085A0001B681268281A9A422CBF8018C01842F221
:1085B000AC63984245DD41F2707390FBF3F00130FB
:1085C00080B201220221FBF7F0FF5848FBF7E4FFDD
:1085D00000233B8008235648A8F80030FBF7DCFF57
:1085E0000120FDF72DF94F48FBF7D6FFFDF7A0F866
:1085F0005048FBF7D1FFFFF795FB4F4A637A002EF7
:1086000067D0002B63D0E3899BB21F2B56D9092179
:1086100003EB8303A03BB3FBF1F350E0237A13F0A9
:10862000010F18BF01267AE7B4F80090FFF772FE39
:1086300023881FFA89F999453FF471AFFDF770FE61
:108640006DE7642390FBF3F0013080B20122022138
:10865000FBF7ABFF3948B9E7394B1978B9B1FDF7EA
:1086600025F83048FBF798FF0120FDF7E9F856B1EF
:108670000220FBF73BFF0021D9F80000FCF7C6FF02
:10868000FBF750FFB7E72748FBF786FFF3E7D9F87A
:108690000000FCF7BBFFFBF745FF5EB10220FBF7D4
:1086A00025FF0120FDF7CCF81E48FBF775FFFCF70E
:1086B000FDFFA0E71B48FBF76FFFF2E70023136005
:1086C000A37913F03C0F09D1FCF736FF0AE7E389E1
:1086D000F5E70BB1238897E72388F0E72379002B90
:1086E000F2D00B4A1049136809685B1AAB42EBD908
:1086F0001368084A12689B1AAB42E5D90020FFF7BD
:108700003DFD0028E0D007E7041500208A11002075
:108710009415002060140020E5C3000824BD000863
:1087200083C4000881C40008641400208DC40008BC
:1087300047C4000885C400081012002095C4000832
:10874000C81000208C110020481500202DE9804819
:10875000874C91B00120FFF799FAA089FEF786F9BE
:10876000844D2B681BB90320FCF7C8FEF9E70025F0
:108770006379A189002B14BF78205A20FEF71AFADA
:10878000A0797D4E00F001000DF1300AFFF77EFA6E
:10879000294610225046356002F0D6FB29461022A9
:1087A00008A802F0D1FB1022294600250DEB02009B
:1087B00002F0CAFBA3790196C3F38303092B88BF98
:1087C00009222E462F464FF0030BA84682BFA379FD
:1087D00062F38503A371C82140F6E440A279C2F395
:1087E000830201FB12030093644B93F80090B9F1EC
:1087F000020F51D1062302AAA8213220FFF798FACE
:10880000012302AAB5213220BDF90850BDF90A6042
:10881000BDF90C70FFF78CFA9DF808309B10082BFF
:10882000DAB25AD0012B56D0022A0CBF4FF0000BFF
:108830004FF0030BA27902F00302022A07D1BBF129
:10884000030F04D0BBFA8BF04009FFF71FFA10ABFF
:1088500003EB48024A4B22F8105C22F8206C22F805
:10886000307C1A78002A3ED108F1010C4FEA4C0105
:1088700008AB03EB010E04AB0AEB010919440CEB46
:108880000200C0B207282BD829F812502EF8126027
:1088900021F812700132F2E7B9F1010FCAD10623B3
:1088A00002AA49463A20FFF743FA4B4602AA102192
:1088B0003A20BDF80850BDF80A60BDF80C70FFF70B
:1088C00037FA9DF80830EDBA1A06F6BAFFBA04D5A1
:1088D000C3F3410BAEE79B46ACE74FF0030BA9E7B0
:1088E0000122274B1A70002108468C460A4608F1DF
:1088F000010808F007080DF110093AF911E008AB7A
:10890000724433F911E0F44439F911E001310829D6
:108910007044F2D192FBF1F29CFBF1FC90FBF1F17F
:10892000ACEB060C521BC91BBCF1000F82EAE27EC5
:10893000B8BFCCF1000CAEEBE27E0029B8BF4942D3
:10894000009B0EEB0C020A449342BEBF0D4A019BF2
:1089500012684FF00A00B8BF1A60FCF7CFFD6279C9
:10896000A189002A14BF78205A20FEF723F932E7A4
:1089700004150020D80F00206414002014090020E2
:108980000C120020941500202DE9F04F0026314BE9
:1089900087B01A68029003920493049B039A1B68A1
:1089A00032219B1A642201935343B3FBF1F3DBB2F0
:1089B000C3F196045B436400634342F2107493FB7B
:1089C000F4F36024DBB25C4394FBF2F4602CA8BFA8
:1089D0006024029BE7B2C7F16005EDB29BBBB846CD
:1089E0009946DFF87CB0C4F16003DBF80000DFF8E3
:1089F00074A081191A464044059302F08CFADAF803
:108A00000000059B81191A46404402F084FA124B7B
:108A1000DBF8000059192246484402F07CFA0F4B5B
:108A2000DAF8000059192246484402F074FAFFF7B8
:108A300079F90420FCF762FD019B3E46322BACD94C
:108A400007B0BDE8F08FA9460025BE1BF6B2A846C8
:108A5000C7E700BF94150020C9100020291100208D
:108A6000C0100020C41000200122B34B2DE9F04FAC
:108A70001A70002287B0CDE9022307460C22029B20
:108A8000591C9DF8083002FB03739C68002C7DD1B3
:108A9000BB68BBB1A94EAA4BAA4D204633606033D8
:108AA0002B60FBF7D3FCA84B1C80A84B1C80FFF766
:108AB000F7FABB689847A64B0120336060332B6000
:108AC000FFF762FF00254FF0FF330126AB46AA46B1
:108AD0002C46CDE9005504934FF00C09009B09FB8F
:108AE00003F907EB0908D8F80810002900F06E8197
:108AF000BAF1000F40F06A815046FBF7A7FC924B99
:108B00009249A3F800A09348934BA1F800A00068F5
:108B10001968091AB1F5967F3AD357F80900002869
:108B200036D0BBF1000F01D1D3F800B0FBF710FB3A
:108B300000EB4000810054310FFA81FC87488649E0
:108B4000049B0968807AA1EB0B0110F0010F14BFA0
:108B500001200220B1FBF0F108B290FBFCF10CFB0C
:108B600011010FFA81FA5345059133D0FFF798FAB6
:108B700000200599744BC1F16001198073490126E9
:108B8000088057F80900FBF707FD23E0029176E71C
:108B9000FFF786FAD8F80810884710209DF80810CB
:108BA000012690FBF1F04FF0FF3A06FA00F1009B2E
:108BB00001391FFA81FC00FB03F16048C9B200686B
:108BC0000CFA01F180F85F105E48C1F307210068DC
:108BD00080F85F10FCF7CEF88542DFF87C9140F01A
:108BE000CF80691E0F2909D8DFE801F02A5E0869E5
:108BF0000808087E08080808080808924FF00008CE
:108C0000C4F11E010929D8BF142426B1FFF78AF840
:108C10000420FCF773FC4F48D9F800100068CDF829
:108C200010A0091A40F6B830814288BF4FF0000BFF
:108C30004FF0000694BFC2464FF0010A4CE70024F3
:108C4000BBF1000F69D1D8F80430002B69D0039A2A
:108C500082F800B09847039B1B78EBB1384A374B3A
:108C6000384D1A605846049302F160032B60FBF7FD
:108C7000EDFB354B3549A3F800B0A1F800B0FFF784
:108C80000FFAD8F8081088473149049B58461960F4
:108C900060312960FFF778FE0123039A4FF0000846
:108CA00013701D46ACE70024BBF1000F3BD1009DC3
:108CB000D8460135EBB200930225A1E70024D9F88C
:108CC0000030019A9B1A23441E2B30D9D8F8043067
:108CD00004254FF000089847D9F800300334019379
:108CE000E4B2C3468CE70024D9F80030019A9B1AFD
:108CF00023441E2B34D9009D03340135EBB200937D
:108D0000D9F80030E4B201934FF000080825E8E7F5
:108D10004FF0000B4FF0010872E74FF000080125FB
:108D2000DFE70125F6E74FF000080225D9E74FF00D
:108D30000008042564E700BF65010020C010002082
:108D4000C9100020C41000208A1100208C110020BE
:108D5000F50F002060140020941500200415002059
:108D60004FF0000808254BE74FF0000B05464FF089
:108D700001085C4644E74FF000080546444644E7D6
:108D8000431E0F2BF7D801A252F823F03F8C0008A6
:108D9000A78C0008778D0008BD8C0008778D00082F
:108DA000778D0008778D0008E78C0008778D000824
:108DB000778D0008778D0008778D0008778D000883
:108DC000778D0008778D0008698D000807B0BDE831
:108DD000F08F00BF0148FFF747BE00BF38000020FA
:108DE0000148FFF741BE00BFE00000200148FFF747
:108DF0003BBE00BF280100200148FFF735BE00BF81
:108E0000980000202DE9FF4848230593059B482B37
:108E100008D04FF0500383F31188BFF36F8FBFF377
:108E20004F8FFEE700210123AE48AF4FC0E90F315D
:108E30000060FCF7C5F8D0E90F3463430268816332
:108E4000D5181B1B1344C360FF2382604FF0FF3211
:108E500080F8443080F8453000F11803C0E906235B
:108E60004361036200F12C03C0E90A3201614162EF
:108E70004560C0E90C33FCF78FF89C4D9C4B9D4E30
:108E80001860FEF781FBFBF7C3FFA879DFF8A88223
:108E900000F00100FEF7FAFE3C68DFF8A09204F54E
:108EA000C8743B689C423BD9934B1B78552B35D1FA
:108EB0003378AA2B32D198F800300D2B2ED199F8A7
:108EC0000030F02B2AD18D4BDFF874E21A680023B2
:108ED000DFF870C213F80E10D15413F80C00D1183B
:108EE0000233602B4870F5D1854BDFF85CE21A68DD
:108EF0000023DFF858C213F80E10D15413F80C00F9
:108F0000D1180233602B4870F5D1FEF70BFFFBF749
:108F100031FF00B13C68FCF70FFBC2E73C68F6E7A5
:108F2000784BDFF82C821B78DFF8289293B1FFF79B
:108F3000B7F80120FBF78AFA00237348A8F800303D
:108F4000A9F80030FBF728FBFEF7ECFE4FF47A702F
:108F5000FCF7F6FAAC79A40906D0AC79A409012C87
:108F600056D10020FFF7AAFA4FF0000B5E46FBF740
:108F700001FF824600285CD10024644B0021A889AF
:108F80001E60FCF70BFB0020FCF73CFCAF231FFA34
:108F900080FA5F4ABAF1310F537014D8AB7913F0ED
:108FA0003C0F10D05B4A3B6812689B1A41F270720A
:108FB000934208D958493B6809685B1A934282BFBB
:108FC000AE23534A5370FFF76BF8A8F80060A9F876
:108FD0000060297AC1F38001002900F0128101208C
:108FE000FBF734FABAF5EB7F40F2FC804B48FBF715
:108FF000D3FA08234A48A9F80030A8F80060FBF724
:10900000CBFAFCF795FBFEF78DFEFCF795FAAEE781
:10901000AB799B09022B04D10120FFF74FFA012401
:10902000A2E7AB799B09032B01D10220F5E70024CD
:109030009AE7AF23364A00205370FBF707FA002C5B
:109040009BD10AF1FF3ABAF1070F96D801A353F862
:109050002AF000BFCF910008D99100087B8F00084B
:10906000C59100087B8F00087B8F00087B8F00086C
:10907000759000080024FFF713F80120A8F800609D
:10908000A9F80060FBF7E2F92648FBF785FA082308
:10909000A9F80030244BA8F8006053F82400FBF72F
:1090A0007BFA631E092B68D8DFE803F0050F111364
:1090B00018567B7F84871D4B1868FBF717FF01222A
:1090C000052180B2FBF771FA57E0194BF4E7194B11
:1090D000F2E738686423B0FBF3F0F0E70D4B186853
:1090E000F8E700BF9411002094150020041500201B
:1090F0009011002001F8000800F80008C0100020BE
:10910000C410002000150020E9BF00081012002044
:10911000E40F0020641400206014002006C0000842
:1091200018C00008F8BF0008ECAF0008B006002027
:1091300010090020740B002002F8000803F8000852
:1091400005F8000804F8000865F8000864F800084D
:109150008A1100208C1100202B8A1FFA83FA4FF00D
:1091600000032B82FBF754FEFBF716F901220621C0
:1091700080B2FBF71AFAA5F810A0FEF7D3FDFBF7B3
:10918000F9FD02283FF4F8AE012807D10B22013483
:10919000E4B2B4FBF2F302FB1344E4B2FCF7CCF903
:1091A00069E70120FCF72EFB89E7FCF7E1FA0122D1
:1091B000032187E7FCF7BCFADFE70122494B1146A0
:1091C00018787FE7FFF7A6F8FDF7AAF8D5E60020A4
:1091D000FFF774F90124D0E64348FFF745FCFDF79B
:1091E0009FF8F7E74148FBF7D7F90020FCF728FB89
:1091F0003F48FBF7D1F9288801220321FBF7D5F975
:10920000F7E608460391FBF721F93A4B03991878E2
:1092100000283ED1384B01460093542210230C20E5
:10922000FBF7CEF8FCF742FABAF1370F56D8BAF18D
:109230002C0F50D9BBF1000F3FF4E5AE2D4A2F4B58
:1092400012781B68B2BB03F136025F3302F8016F7C
:109250009A42FBD12A4B1B6803F136025F3302F8B6
:10926000016F9342FBD13823A8F80030A9F80060C1
:109270002B7A9B0707D519223968B1FBF2F302FB61
:1092800013130F2B02D90020FCF7DAFA4FF0010B71
:10929000B9E61C4B5422009308461023FBF790F8C4
:1092A0005423A8F80030FCF701FABAF1370FBED901
:1092B000124B1B685A1E283302F8016F9342FBD1F0
:1092C0000F4B1B685A1E283302F8016F9A42FBD1DC
:1092D000A8F80060CAE74FF0000B94E6074B1B6844
:1092E000B1E700BF140900206801002047C400084E
:1092F00013C00008C810002022C00008C0100020C1
:10930000C4100020FCC000082DE9F74F8246FAF790
:109310001FFF244E00EB40003368840000200093C0
:10932000FBF794F8204B002501224FF0FF319846BF
:109330001E4F5434A4B23D801D80336800981B1A20
:109340001B48807A10F0010F14BF01200220B3FBEC
:10935000F0F31BB293FBF4F004FB103B0FFA8BF914
:1093600049450AD0FEF79CFECBF1600350463B8096
:10937000A8F80050FBF710F901220192FBF7FAFC64
:10938000019A40B922B1FEF7CDFC0420FCF7B6F8F3
:1093900000224946D1E7431E5842584103B0BDE878
:1093A000F08F00BF941500208C1100208A1100203E
:1093B000041500202DE9F74F2A48FFF7A5FF0028E4
:1093C0004DD00023284DDFF8A880284FDFF8A49067
:1093D0002B822C8A0026A4B264BB2646A346FBF748
:1093E00017FD4FF0000A0644FEF75AFE4846A8F85B
:1093F00000B0A7F800B0FBF7CFF8C4F385035FFA1D
:109400008AF29A42019306D24846FBF7C5F80AF160
:10941000010A019BF3E7FEF785FC01340A20FCF703
:109420006DF8102CDBD1C6F30F10FAF7B5FF80B240
:109430002882CEE7FEF734FE1020A8F800603E80B8
:10944000FBF754F8288A01220421FBF7AEF8FEF757
:1094500069FC782003B0BDE8F04FFCF74FB803B0CB
:10946000BDE8F08FF2C30008041500208C11002025
:109470008A11002024BD000808B50C48FFF744FFFE
:1094800098B1FEF7C1FD0020FAF7E0FF0023084A7B
:1094900008481380084A1380FBF77EF8FEF742FC69
:1094A000BDE80840C820FCF74BB808BD53C400080D
:1094B0008A11002075C400088C1100202DE9804815
:1094C0004FF6FF07454A464D1368464E43F01003DA
:1094D0001360EA68444C3A403243ABB0EA60FCF7B0
:1094E000F9FFA269002142F00102A261A2696FF0B6
:1094F0000B0002F001020692069BEB68DFF8F89081
:109500003B403343EB60FAF7E3FE00216FF00A00C3
:10951000FAF7DEFE00216FF00900FAF7D9FE00210C
:109520006FF00400FAF7D4FE00216FF00300FAF7A1
:10953000CFFE0F216FF00100FAF7CAFE0F214FF0A6
:10954000FF30FAF7C5FE636813F00C0F07D06368AD
:1095500003F00C03082B51D16368DF034ED423685A
:109560000122236823F0F80343F0800323601F4B9C
:109570001A60D9F80020636A9D0740F151834FF4C7
:10958000FA521B4B1B68B3FBF2F30B9300BF0B9A11
:10959000531E0B93002AF9D1636803F00C03082BC8
:1095A00039D0144B1A601A46D9F800102368980174
:1095B00000F13D83636823F4741343F46013636024
:1095C00001231360D9F800202368990123D4D9F826
:1095D00000309B1A022BF7D91DE000BF002002408B
:1095E00000ED00E00003FA05001002408004424252
:1095F0003400002060004242301500200122BE4BA2
:109600001A60D9F8002023689E07A9D4D9F8003041
:109610009B1A022BF7D9B94A136803F00703012BF1
:1096200040F20C83636843F4E0636360636843F46F
:1096300060536360636823F0F003636023689A01FA
:1096400000F11C834FF47A716368AD4A23F4404300
:1096500043F40043636013680292B3FBF1F3013BF0
:10966000B3F1807F09D2F021A64A5360A64B83F85C
:1096700023100023936007231360A24A4FF0004792
:109680001368A24D032643F004034FF00208136051
:109690000F214FF0FF30FAF71BFE6B68DFF890A246
:1096A00023F0E06343F080636B60A3691EA943F07D
:1096B0002003A361A369964803F020030A930A9B41
:1096C000A3694FF4004B43F00403A361A36903F0C3
:1096D00004030993099BA36943F00803A361A369E9
:1096E00003F008030893089BCAF81070CDE91E66C2
:1096F000CDF88480FCF7FEFF6A681EA942F0E062A4
:1097000042F400426A6048F2FF725046CDE91E26DC
:10971000FCF7F0FF4FF6F7721EA97E4801251E9256
:10972000FCF7E8FF1E9600261EA97A48CDE91F65C2
:10973000FCF7E0FF1EA95046CDE91EB5CDF88480A8
:10974000FCF7D8FFCAF810701E20CAF81070FCF79A
:10975000DDFDCAF810B0626905212A4362616269C1
:109760000B202A400792079AFAF7B2FD4FF40062E5
:10977000694C052122601020FAF7AAFD4FF48032CF
:10978000052122601120FAF7A3FD4FF40032634F48
:109790002260DFF8A0C1624A3846C7E900C24FF430
:1097A0008042C7E90266C7E90426C7E906663E6249
:1097B000FDF778FA4FF480725A4CDFF87CB1C4E9B7
:1097C00002254FF460222046C4F800B06661E261D1
:1097D0006660C4F81080FDF76DF894F82430AB4251
:1097E00017D0226884F824509368DD0700F1AE8218
:1097F0004D4B9B68D80700F1A9825A4540F0A682DC
:10980000536823F4702343F480335360002384F8B7
:109810002430002194F824300D91012B11D0012324
:10982000226884F82430536B23F01F0343F00403B1
:109830005363136923F4E04343F4C043136184F892
:109840002410002194F824300C91012B11D0012315
:10985000226884F82430536B23F4787343F0400378
:109860005363136923F4E07343F4C073136184F802
:10987000241001234FF0030B0025CDE91EB304266D
:1098800020934FF440531EA92648CDE92453239535
:1098900021952296FCF7E4FB02231EA921481F9381
:1098A0002095FCF7DDFB1EA91E48CDF87CB0FCF727
:1098B000D7FB1EA91B481F96FCF7D2FB2268194D47
:1098C000536843F0800353602846FCF7ADFC06461E
:1098D0000028F9D1154D144B4FF0010B2B604FF4BC
:1098E0008073C5E9023B4FF46023EB61022368619A
:1098F000686028462B6121E00000424200200240BF
:109900003400002010E000E000ED00E00000014025
:1099100000140140000C014000E100E04013002071
:10992000F8240100141200200028014044120020F5
:10993000000801400054004000240140FCF7BAFF39
:1099400095F824300F965B4510D02A6885F824B02E
:10995000536B23F01F0343F003035363136923F492
:10996000606343F44063136185F82460002195F837
:1099700024300E91012B11D001232A6885F8243060
:10998000536B23F4787343F040035363136923F458
:10999000E07343F4C073136185F82410012203239C
:1099A00000261F924FF0040B20924FF440521EA944
:1099B000A9481E930393CDE9246223962196CDF8FE
:1099C00088B0FCF74DFB02221EA9A3481F922096E7
:1099D000FCF746FB039B1EA99F481F93FCF740FB27
:1099E0001EA99D48CDF87CB0FCF73AFB9A4E304654
:1099F000FCF71AFC83460028F9D10823974EDFF8BC
:109A000078826422C6E900834FF40073C6E9032319
:109A10008023B0603046B361FCF726FD96F83C30F9
:109A2000012B14D001210223326886F83C1086F8FD
:109A30003D30936823F47F4323F07703936093686A
:109A400023F00703936086F83D1086F83CB04FF092
:109A5000000B8248FCF738FE8048FCF735FE10A961
:109A60007E48CDE910BBFAF761FC60205023CDE9B8
:109A70001E0304231EA9794822934026CDF880B006
:109A8000FDF772FA0223032217A97548CDE917637F
:109A900003931A92FCF72EFE7048FAF701FC4FF080
:109AA000804C4FF47A626F4E4FF4887EC6E900C254
:109AB0004FF400723046C6E903E2C6F808B0C6E9C2
:109AC00005BBFCF7D1FC96F83C20012A14D00121FB
:109AD000039B326886F83C1086F83D30936823F487
