:020000040800F2
:1040000000500020614100082FAA000837AA0008CC
:1040100035AA000833AA000831AA000800000000F1
:10402000000000000000000000000000D19F000818
:104030002DAA000800000000819F0008F9A90008CF
:10404000A9410008A9410008A9410008A9410008A8
:10405000A9410008A9410008A9410008A941000898
:10406000A9410008A9410008A9410008EDA90008DC
:10407000A9410008A9410008A9410008A941000878
:104080004DA0000841A000084DA80008A941000863
:10409000A9410008A9410008A9410008A941000858
:1040A000A941000841A80008A9410008A941000849
:1040B00029A8000835A80008A941000889A100081E
:1040C00059A00008A9410008A9410008A941000819
:1040D000A9410008A9410008A9410008A941000818
:1040E000A9410008A9410008A941000800000000FA
:1040F00000000000000000000000000000000000C0
:0C41000000000000000000005FF8E0F18B
:1041100010B5054C237833B9044B13B10448AFF301
:1041200000800123237010BDA801002000000000C2
:10413000A8AA000808B5034B1BB103490348AFF315
:10414000008008BD00000000AC010020A8AA000803
:10415000034613F8012B002AFBD1181A01387047C7
:10416000002103E00B4B5B58435004310A480B4BD2
:1041700042189A42F6D30A4A02E00023136004323E
:10418000084B9A42F9D305F035FF06F055FC04F0D0
:104190005DFFFEE7B8C0000800000020A801002075
:1041A000A8010020C8140020FEE70000214B30B514
:1041B00019464CF25035204A1468D868C00733D4E9
:1041C000DA68920644BF2022DA60CB68DD0606D4A6
:1041D000CB69DC0703D4C86810F0040023D0154A6B
:1041E000D36813F0100305D01449CB6943F00203E0
:1041F000CB611023D268500706D5104943F0040361
:10420000CA6942F00102CA610A4AD169C90708D5E0
:104210000A48C16941F00401C161D16921F001017D
:10422000D1610120D36030BD1068001BA842C4D901
:104230000320F8E7002002405C14002098130020BF
:1042400015490B681A6A22F001021A621A6A1A6288
:10425000124A93420DD141F21112186A104208D14C
:1042600040F24442186A104202BF5A6C22F40042E3
:104270005A6441F21112186A104208D140F24442C5
:10428000186A104202BF1A6822F001021A60012364
:10429000002081F83D30704750130020002C014071
:1042A000036800201A6A22F001021A621A6A42F0B8
:1042B00001021A62054A934202BF5A6C42F400425C
:1042C0005A641A6842F001021A607047002C0140DB
:1042D000144B10B5DB68C3F30223C3F107041A1DA6
:1042E000042C28BF0424062A88BFDA1E4FF0FF33AF
:1042F00098BF0022A34021EA0303002803FA02F337
:10430000A8BF00F160404FEA0313B8BF064ADBB212
:10431000B5BF00F00F0000F56140135480F8003382
:1043200010BD00BF00ED00E014ED00E090F83C305F
:10433000012B4FF0020314D080F83D3003685A6817
:1043400022F070025A605A685A609A6822F080021D
:104350009A609A689A60012380F83D30002380F8C3
:104360003C301846704700000A4B1B68013308D0E8
:104370004FF0500383F31188BFF36F8FBFF34F8F5C
:10438000FEE74FF0500383F31188BFF36F8FBFF345
:104390004F8FFEE7A401002048F2E8034343642066
:1043A000DB0B58435B23B0FBF3F0044BDA899042FC
:1043B00026BFDB89C01A0020704700BF34140020DC
:1043C000F0B55442A042059E15463ADD602838DC1F
:1043D000002800EB0207BABF4442E4B20024602F79
:1043E000C4BFC0F16002D2B241BB164F00EB040C57
:1043F0003F6806EB040E674404EB010C5FFA8CFC8B
:10440000624515D8102B1CD1102B08BF29460E4B26
:1044100018BF00211D680023214420443144284452
:10442000E518EDB2AA420CD9CD5CC5540133F7E7CB
:104430001EF801C007F801C00131DDE70829E3D00B
:10444000E0E7F0BDB0100020B410002001280849BA
:10445000084A094B06D10948086008211170062254
:104460001A70704706480860102111700C22F7E797
:10447000D00F0020CC0F0020BE10002068B3000831
:1044800048AC00080128F7B509D1134BB3F9002057
:104490003AB912490A8008221A8003B0F0BD0028F8
:1044A000FBD00F4B0C4A1C780E4B92F900101B7876
:1044B0000D4FDA0862433F68023880B200FB027099
:1044C000064D0090B5F90060224630463444FFF7AF
:1044D00077FF2C80E1E700BFBC100020BA1000205D
:1044E000BE100020CC0F0020D00F002008B5094AD4
:1044F000094B02301A601022084BC0B21A700C220D
:10450000074B1A70FFF7BEFFBDE808400020FFF719
:104510009DBF00BF3CBB0008D00F0020CC0F002087
:10452000BE100020F8B51A4B04460E201D78FFF788
:10453000DDFF1F20B4FBF0F0C0F10A00C0B2154B44
:1045400005F10C01C608C9B21A680AD02B4600272B
:104550006C1E1444994204D9013304F8017FDBB284
:10456000F8E7FF23602400F0070003FA00F00023BF
:1045700004FB065460F0FF002244EC18E4B2A142B0
:1045800004D9D45C0440D4540133F6E7F8BD00BF2D
:10459000BA100020B010002010B5441E14F8010F0E
:1045A00010B1FFF76FFFF9E710BD002337B50429FD
:1045B0000093CDF8033032D90A23B0FBF3F403FBA8
:1045C000140502358DF80550B4FBF3F505FB1343D4
:1045D00002338DF804306423B0FBF3F00A23B0FB00
:1045E000F3F403FB140002308DF80300A0B20A2399
:1045F000B0FBF3F403FB140002308DF80200A0B20C
:104600000A23B0FBF3F403FB140002308DF8010021
:10461000A0B209E06846FFF7BFFF03B030BDDDD0B0
:104620000329E4D00129EBD10A24B0FBF4F304FB05
:10463000130002308DF80000002AEBD000230E2278
:1046400001399942E6DD1DF803000228E2D10DF898
:1046500003200133F5E7000037B5002405460120AB
:10466000FFF7F4FE0A4B1C800A4B1C800A4B53F8E0
:104670002500FFF791FF102308481A4600EB45106C
:10468000009021465020FFF79BFE03B030BD00BFD5
:10469000BA100020BC10002068AB0008FDBC000868
:1046A0000320FFF7D9BF0220FFF7D6BF0120FFF795
:1046B000D3BF0020FFF7D0BF054A538B0A339BB20C
:1046C0005383538B642B84BF0A235383704700BFEB
:1046D00034140020054A938B05339BB29383938B4C
:1046E000322B84BF05239383704700BF341400200E
:1046F000034A137EB3FA83F35B091376704700BF56
:104700003414002005490B7A0A7AC3F3400383F07E
:10471000010363F341020A72704700BF34140020A2
:10472000074B9A7999799209013262F3871199714D
:1047300099799A79890961F387129A71704700BF54
:1047400034140020054A93890A339BB293819389DC
:10475000B3F5E17F84BFFA239381704734140020BE
:1047600005490B7A0A7A03F0010383F0010363F32E
:1047700000020A72704700BF34140020054B1A7AF9
:1047800012F0100F1A7A0CBF42F010026FF30412ED
:104790001A72704734140020044A937C1D2B8FBF7B
:1047A0000223937C0233DBB29374704734140020ED
:1047B000034A537CB3FA83F35B095374704700BF19
:1047C0003414002005490B7A0A7AC3F3800383F07E
:1047D000010363F382020A72704700BF34140020A1
:1047E00005490B7A0A7AC3F3C00383F0010363F32C
:1047F000C3020A72704700BF341400200A200A4B1B
:104800009A799979C2F38302013262F38501997131
:104810009A79C2F3830292FBF0F100FB11219A799D
:1048200061F385029A71704734140020084BDA79DD
:104830000132D2B2DA71DA793C2A84BF0022DA710D
:10484000044A1278032A04BF0022DA71704700BFBD
:104850003414002004090020084B1A790132D2B226
:104860001A711A790F2A84BF00221A71044A127829
:10487000032A04BF00221A71704700BF34140020BD
:1048800004090020054A53880A339BB25380538899
:10489000B3F5967F84BF32235380704734140020D1
:1048A000034A5379013303F001035371704700BF8A
:1048B00034140020002814BF10201120FFF716BE6A
:1048C000054B1B785843054B1880054B1B78594303
:1048D000044B1980704700BFBE100020BA100020A2
:1048E000CC0F0020BC10002070B5054601200E46FC
:1048F000FFF7ACFD00210D4C0846FFF7E1FF54F82F
:104900003500FFF749FE04EBC50401210020FFF745
:10491000D7FF6068FFF740FE0020FFF797FD30B239
:104920000021BDE87040FFF7CBBF00BF78AB0008A7
:1049300005210E20FFF7D8BF08B505211920FFF784
:10494000D3FF044B0122588B0321BDE80840FFF739
:104950002CBE00BF3414002008B505211820FFF735
:10496000C3FF044B0122988B0321BDE80840FFF7E9
:104970001CBE00BF3414002008B517200721FFF724
:10498000B3FF044B187EBDE80840003018BF01207B
:10499000FFF790BF3414002005210C20FFF7A4BFBF
:1049A00007210D20FFF7A0BF08B50B200721FFF757
:1049B0009BFF044B187ABDE80840C0F34000FFF7A6
:1049C00079BF00BF3414002008B507210A20FFF783
:1049D0008BFF094B9B799B09022B08D009D8012B2F
:1049E00014BF06480648BDE80840FFF7D5BD054896
:1049F000F9E70548F7E700BF3414002037BE000888
:104A000039BE00083BBE00083DBE000808B50521C0
:104A10000920FFF769FF044B012298890321BDE8B3
:104A20000840FFF7C2BD00BF3414002008B50820BD
:104A30000721FFF759FF044B187ABDE8084000F042
:104A40000100FFF737BF00BF34140020072108B56D
:104A50000846FFF749FF084B9B7903F00303012B3E
:104A600006D0022B06D00548BDE80840FFF794BDEC
:104A70000348F9E70348F7E73414002031BE000883
:104A800033BE000835BE000808B510200721FFF727
:104A90002BFF064B06481B7A13F0100F054B08BF7F
:104AA0001846BDE80840FFF777BD00BF341400206A
:104AB00037BE00083BBE000808B505211620FFF7E9
:104AC00013FF054B0122987C0221FFF76EFDBDE824
:104AD00008400248FFF760BD3414002027BE0008DC
:104AE00008B515200721FFF7FFFE044B587CBDE8F1
:104AF0000840003018BF0120FFF7DCBE341400204E
:104B000008B506200721FFF7EFFE044B187ABDE831
:104B10000840C0F38000FFF7CDBE00BF3414002072
:104B200008B50F200721FFF7DFFE044B187ABDE818
:104B30000840C0F3C000FFF7BDBE00BF3414002022
:104B400008B507210420FFF7CFFE054B0022987916
:104B50000121BDE80840C0F38300FFF726BD00BF78
:104B60003414002008B505210320FFF7BDFE074BD4
:104B7000DA7922B90648BDE80840FFF70DBDD879BB
:104B800001220221FFF711FD0248F4E7341400204E
:104B90002BBE00082FBE000808B505210220FFF734
:104BA000A3FE0E4B1A7922B90D48BDE80840FFF765
:104BB000F3BC1A791879052A08D8012200EB800085
:104BC00090400221FFF7F1FC0648EEE7053880B27D
:104BD00001220221FFF7E9FC0348E6E73414002034
:104BE0002BBE00083BBE00082FBE000808B50521FB
:104BF0000120FFF779FE044B012258880321BDE80C
:104C00000840FFF7D2BC00BF3414002008B50521CE
:104C10000020FFF769FE0A4B5B7903F0FF0213B136
:104C2000012A0AD008BD012202210920FFF7BDFC9C
:104C3000BDE808400348FFF7AFBC02210C20F5E7B0
:104C40003414002029BE000870B5214A9368926888
:104C500083F0020312F0010F0CBF02220022C3F303
:104C600040031A43D3B21AB11A4A11681A4A1160A2
:104C70001A4A107898420ED133B3164A184912686E
:104C80000968521A282A1FD9012B1FD0022B14BFE2
:104C90000020082070BD0F4D114C3BB1032808BF08
:104CA0000323002013702B682360F3E7296826682C
:104CB000891B272906D80128F4D002280CBF02201E
:104CC0001020EFE71846EDE70020E3E70420E1E7D6
:104CD000000C0140C014002090130020101100208F
:104CE000141100201FB50020194B1B68DA6BADF8BA
:104CF00000201A6CADF802205A6C9B6CADF80420B1
:104D0000ADF80630134B1B68DA6BADF808201A6C4F
:104D1000ADF80A205A6C9B6CADF80C20ADF80E3043
:104D200003463DF8132001331044082B80B2F8D11C
:104D3000094A137D116932F8134022F81300091B48
:104D40000133014403F007031161137504B010BD72
:104D5000441100207411002018140020037F082B38
:104D600001D1FFF76DBA70474FF0500383F31188FC
:104D7000BFF36F8FBFF34F8FFEE70000054B1B683B
:104D800033B1054B1B68002B0CBF0220002070477D
:104D900001207047BC14002068140020064A1368E4
:104DA0001968064B19B94FF0FF321A607047126844
:104DB000D268D2685268F8E7C0130020A01400201F
:104DC00008B9064B1868026B1346981A13F8011BB2
:104DD000A529FAD0C0F38F00704700BFBC13002094
:104DE0004FF080554AF6AA220648074C0749036847
:104DF000012B04D92560BFF34F8FBFF36F8F0B6872
:104E00001A60F4E7C813002004ED00E0C41200208B
:104E1000EFF305830F2B0ED9104A9B5C104A1278D2
:104E20009A4208D94FF0500383F31188BFF36F8F74
:104E3000BFF34F8FFEE70B4B0B4A1B68126803F45E
:104E4000E063934208D94FF0500383F31188BFF316
:104E50006F8FBFF34F8FFEE7704700BFF0E300E0B6
:104E6000541400200CED00E058140020084A136888
:104E700043B94FF0500383F31188BFF36F8FBFF333
:104E80004F8FFEE7013B13600BB983F31188704726
:104E9000A401002008B54FF0500383F31188BFF33D
:104EA0006F8FBFF34F8F074A13680133012B1360D5
:104EB00006D1054B1B6813F0FF0F01D0FFF754FF1D
:104EC00008BD00BFA401002004ED00E0F8B5FFF725
:104ED000E1FF0D4C0D4A0568166823689D42456840
:104EE00001D0AE420ED20B68771B9F420AD29B1BA9
:104EF0002B440B6023680360136843600020FFF7B6
:104F0000B5FFF8BD0120FAE7A4140020C01400206A
:104F100006480068006880F3088862B661B6BFF38F
:104F20004F8FBFF36F8F00DF00BF000008ED00E080
:104F30000369D0E901128A60826851605968814230
:104F400008BF5A6000220261186801381860704773
:104F50000A6830B5531C0AD103695A684A609160E7
:104F60008B605960036808610133036030BD00F154
:104F700008035C6825689542EFD82346F9E70000EE
:104F800070B5154B154E1C68054630680430FFF7A8
:104F9000CFFF334640B931681148CE6A012102681B
:104FA000B14022EA010202601A686419546007D312
:104FB000BDE870400B4A106819680431FFF7C8BF9C
:104FC000094A106819680431FFF7C2FF074B1A68D5
:104FD000944238BF1C6070BDC0140020BC13002078
:104FE00070140020C4130020C0130020A01400205F
:104FF00010B50C46044B19681831FFF7A9FF20467D
:10500000BDE81040FFF7BCBFBC13002043689A689E
:105010004B608A609A685160996003680861013347
:105020000360704738B5C368DC6844B94FF050037B
:1050300083F31188BFF36F8FBFF34F8FFEE704F147
:1050400018052846FFF774FF114B1B68E3B9251DAF
:105050002846FFF76DFF01230E49E26A0868934076
:10506000034314200B6029460B4B00FB0230FFF773
:10507000CDFF0A4BE26A1B68DB6A9A4285BF0120BA
:10508000074B0020186038BD29460648EFE700BFEF
:105090006814002070140020C8130020BC130020E6
:1050A000C4140020A8140020202210B5214B1B6836
:1050B00083F83D20204B1868002835D0036C43B19D
:1050C0004FF0500383F31188BFF36F8FBFF34F8FFF
:1050D000FEE7036853B9436843B14FF0500383F3CD
:1050E0001188BFF36F8FBFF34F8FFEE7FFF790FE7E
:1050F000EFF311844FF0500383F31188BFF36F8FE8
:10510000BFF34F8F826BC36B9A420BD290F845303E
:1051100001325BB282635A1C07D1436A13B1243057
:10512000FFF780FF84F3118810BD01335BB280F874
:105130004530F7E70C110020C01000202DE9F041A8
:105140000446FFF7A7FE4FF0010890F845501B4FAB
:105150006DB200F12406002D17DCFF234FF001088B
:1051600084F84530FFF782FEFFF794FE94F8445030
:10517000124F6DB204F11006002D12DCFF2384F8EB
:105180004430BDE8F041FFF771BE636A002BE4D004
:105190003046FFF747FF08B1C7F80080013D6DB208
:1051A000D9E72369002BE9D03046FFF73BFF08B170
:1051B000C7F80080013D6DB2DEE700BFC4140020D7
:1051C0002DE9F84F3C4B1B68002B6ED13B4B1C6804
:1051D00001341C60BCB93A4B1A68126842B14FF0F6
:1051E000500383F31188BFF36F8FBFF34F8FFEE738
:1051F000344A1968106818601160334A1368013323
:105200001360FFF7CBFD314D4FF0000B2B68304F93
:10521000A34211D93A682F4BD16A14224A439A58B3
:10522000022A28BF4FF0010B2B4A1268002A0CBF3C
:1052300058460120BDE8F88FDFF884A0DFF8A09081
:10524000DAF8002012681AB94FF0FF322A60E1E75D
:10525000DAF80020D268D66871688C4201D22960E1
:10526000D8E706F104084046FFF762FEB16A19B1BB
:1052700006F11800FFF75CFE01224FF0140CF06AF3
:10528000D9F8003002FA00F11943124BC9F80010A6
:105290000CFB00304146FFF7B9FE3868F16AC26A7C
:1052A000914228BF4FF0010BCAE70C4A4FF0000BA8
:1052B000136801331360B7E768140020C01400209E
:1052C000C0130020C4130020A4140020A014002048
:1052D000BC130020C8130020C41400206414002054
:1052E0007014002031492DE9F8430B6843B94FF0A1
:1052F000500383F31188BFF36F8FBFF34F8FFEE727
:10530000FFF7C8FD0B68013B0B600C6824B100205F
:10531000FFF7ACFDBDE8F883254B1B68002BF6D0EA
:10532000244D254EDFF8A4801FE0EB680127DC68E0
:1053300004F1040904F11800FFF7FAFD4846FFF7ED
:10534000F7FD1420E26A316807FA02F30B4300FB11
:10535000028049463360FFF759FE184BE26A1B682A
:10536000DB6A9A4201D3164B1F602B68002BDCD1FD
:105370000CB1FFF713FD134D2C6844B10127104EFB
:10538000FFF71EFF00B13760013CF9D12C600C4BD8
:105390001B68002BBBD04FF080520B4B1A60BFF341
:1053A0004F8FBFF36F8F0120B2E700BF681400205A
:1053B00060140020A814002070140020BC130020EA
:1053C000C41400206414002004ED00E0C813002081
:1053D00008B540B94FF080520A4B1A60BFF34F8FA7
:1053E000BFF36F8F08BD084B1A680AB1FFF7BCFC0A
:1053F0001A6801321A60FFF7C3FDFFF773FF002838
:10540000E8D0EFE704ED00E0681400200520FFF786
:10541000DFBF000070B50D4C25680544FFF714FC94
:10542000064656B1FFF710FC0646FFF7EFFF23686C
:105430009D42F6D270BD002EFCD1FFF705FC06465A
:10544000FFF7E4FF23689D42F5D2F3E7C014002084
:10545000064B03EB400000231A4630F823100133BB
:10546000202B0A44F9D1C2F38F007047C4010020F9
:105470002DE9F843174D04462E788946DFF85C8005
:1054800056B100270120FFF7E3FF48F82700013756
:10549000082FF7D1013E2E70B9F1000F0AD001207C
:1054A000FFF7D6FF0C4A137848F82300013303F0C6
:1054B000070313700022134658F822100132082AFD
:1054C0000B44F9D1D8088000B0FBF4F080B2BDE8FD
:1054D000F88300BF58010020181100201C11002083
:1054E00010B50E4B041E588903DCFFF7C1FF0020E6
:1054F00010BDFFF7BDFF2D234043B0FBF3F04FF489
:105500008873C0EB0020B0FBF3F0C4EB0424B4FBC1
:10551000F0F0FF2828BFFF20C0B2E9E734140020D4
:1055200010B50121FFF7DCFF0A22114B04461A8057
:10553000104B00211870104B5889FFF799FF2D234D
:105540004043B0FBF3F04FF48873C0EB0020B0FB96
:10555000F3F0FF234443B4FBF3F4E823074A116854
:105560004B43182101FB0434240A146010BD00BF12
:10557000680B0020B813002034140020741400209D
:10558000F8B51D4B00215889FFF772FF0A23C0B2FE
:10559000B0FBF3F403FB1403DBB2042BE4B284BFCF
:1055A0000134E4B2092C20D9144E0120B6F9005080
:1055B000FEF74CFF012211461046FEF7F6FF0823C6
:1055C0000F4F01223B800A23B4FBF3F003FB104092
:1055D0001146C0B23580FEF7E8FF0020FEF736FF27
:1055E00000230C353B803580F8BD01222046BDE804
:1055F000F8401146FEF7D9BF34140020BA1000203D
:10560000BC10002070B50D4B00215889FFF730FF0A
:105610000A25B0FBF5F4064601220221A0B2FEF7EE
:10562000C4FF0748FEF7B8FF012205FB1460BDE880
:105630007040114680B2FEF7B8BF00BF341400209E
:1056400065B9000808B50020FFF702FFA0F59B53DD
:105650006420053B584340F2E13390FBF3F080B205
:1056600008BD10B547F66F60FEF796FE73244443FD
:10567000FFF7E8FF0A23B0FBF3F042F21073B4FB2C
:10568000F3F480B22044013810BD000010B588B199
:10569000FFF728FBFEF780FE73244443FFF7D2FF99
:1056A0000A23B0FBF3F042F21073B4FBF3F480B2C0
:1056B000204410BD034B1869082390FBF3F080B21F
:1056C000E8E700BF1814002010B504460020FFF7DB
:1056D000DDFF0122032180B2FEF767FF8CB1094B89
:1056E000094A1B68934207D0084A934204D0BDE898
:1056F00010400120FEF7FABE0548BDE81040FEF755
:105700004BBF10BDD00F002068B300083CBB0008A1
:10571000B8B90008064B186910F0800007D0054A98
:105720005A6002F188325A601869C0F3C01070479D
:10573000002002402301674570B40425C66B026C4B
:105740003468036895402542196832D04D0730D53A
:105750001A6896065EBF1A6822F004021A603E4A72
:10576000934219D01432934218D01432934217D076
:105770001432934217D01432934217D0143293420A
:105780000CBF4FF480034FF08063344A5360C36A08
:10579000002B5ED070BC18470423F6E74023F4E7E3
:1057A0004FF48063F1E74FF48043EEE74FF480233A
:1057B000EBE702259540254235D08D0733D51A6891
:1057C000940606D41A6822F00A021A60012280F8B0
:1057D0002120214A934219D01432934218D0143216
:1057E000934217D01432934217D01432934217D0F9
:1057F000143293420CBF4FF400134FF00073174A5A
:105800005360002380F82030836AC1E70223F6E763
:105810002023F4E74FF40073F1E74FF40053EEE771
:105820004FF40033EBE708259540254211D00907D6
:105830000FD5196821F00E011960012303FA02F255
:105840007260836380F82130002380F82030036B7E
:105850009EE770BC704700BF080002400000024095
:10586000F0B590F82040012C35D0012490F821505B
:1058700080F82040A5424FF000064FF0020428D1E6
:1058800080F8214004688663266826F001062660B9
:10589000D0E90F67BD407560636043680568102BF1
:1058A000C36A0BBFA260A160E160E2604BB12368F4
:1058B00043F00E03002023602B6843F001032B60AC
:1058C000F0BD236823F004032360236843F00A0338
:1058D000F0E780F820600220F2E7436A9A6A42F01B
:1058E00040029A62DA6A42F00402DA627047704754
:1058F000436A9A6A12F0500F18D19A6A42F4007201
:105900009A621A68926802F46022B2F5602F10D190
:10591000DA6872B99A6A22F480729A629A6AD20438
:1059200007D49A6A42F001029A6270471B6A1B6BA5
:1059300018477047036810B59A68D40701D400204F
:1059400010BD9A6822F001029A60094A14689968A9
:10595000C907F4D51168091B0229F8D9836A43F0F5
:1059600010038362C36A43F00103C3620120E7E7C7
:105970005C140020002337B5026801939368DB07AD
:1059800002D5002003B030BD9368124943F00103F3
:105990009360114B1B68B3FBF1F30193019BABB90F
:1059A0000E490D68936813F00103EAD10C68641B7B
:1059B000022CF7D9826A80F8243042F01002826209
:1059C000C26A42F00102C2620120DBE7019B013B97
:1059D000E3E700BF40420F00340000205C140020C9
:1059E00070B50568124E6B6913F0400301D00020BA
:1059F0000EE06C6914F010040BD06FF010026A61B5
:105A00002022036480F83C30036380F83D200120AD
:105A100070BD33689B1A8B42E5D9036C80F83C401B
:105A200043F020030364202380F83D300320EFE798
:105A30005C14002070B50568134E6B6913F0040305
:105A400001D000201FE06C6914F480640FD133682A
:105A50009B1A8B42F1D9036C80F83C4043F0200341
:105A600003642023046380F83D3003200BE06FF4CF
:105A700080626A61042202642022036380F83C3061
:105A800080F83D20012070BD5C14002070B50568D1
:105A9000134E6B6913F0800301D000201FE06C6986
:105AA00014F480640FD133689B1A8B42F1D9036CD4
:105AB00080F83C4043F0200303642023046380F813
:105AC0003D3003200BE06FF480626A6104220264BF
:105AD0002022036380F83C3080F83D20012070BD17
:105AE0005C140020F0B50568144F89B26C6931EA86
:105AF000040401D1204614E06C6914F4806411D0D0
:105B00002B68202243F400732B606FF480636B6179
:105B1000042303640023036380F83C3080F83D20B5
:105B20000120F0BD3E68F61A9642DFD920230463B7
:105B300080F83C4080F83D300320F2E75C14002000
:105B4000F0B5DFF844C005680F0C89B2012F0CBF17
:105B50006C69AC6931EA04040CBF01240024A24240
:105B600001D000200FE0DCF80040059EA41B9C4201
:105B7000ECD900232022036380F83C3080F83D20DC
:105B800080F83E300320F0BD5C140020436A1A68A0
:105B9000116821F4806111600021586B59854163BF
:105BA000986B416393F83D0060284FF0200083F824
:105BB0003D0083F83E1006D11964136823F00103F9
:105BC0001360FFF771BA136823F00103136000BE7E
:105BD000F7E7000010B590F82130022B03D0042322
:105BE0008363012010BD03681A6822F00E021A6058
:105BF0001A6822F001021A60194A934220D0143226
:105C000093421FD0143293421ED0143293421ED0BE
:105C1000143293421ED0143293420CBF4FF48013BF
:105C20004FF080730F4A00245360012380F8213025
:105C3000436B80F8204083B1FFF7A8FF2046D1E7EF
:105C40000123EFE71023EDE74FF48073EAE74FF409
:105C50008053E7E74FF48033E4E71846C2E700BF1C
:105C6000080002400000024010B5444C94F83D206A
:105C70002368293A012A36D800222263282284F890
:105C80003D201A6822F400621A605A6812F4006219
:105C900051D05A6822F400625A60606B90F821304B
:105CA000012B374B2ED04363FFF794FF50B122688E
:105CB000136823F0010313602023606B84F83D30E8
:105CC000436B984794F83D30282B0BD1236C5B072E
:105CD00008D52C4B2022E3620023236384F83D2067
:105CE00084F83E3010BD94F83D20602A05D05A68F3
:105CF00012055CBF202284F83D200022226384F834
:105D00003E20BEE7A06B4363FFF764FF0028D9D0B5
:105D100023685A69500604D51A69636A591C61627E
:105D20001A702268136823F0010313602023A06B0C
:105D300084F83D30C4E794F83D10602913D1202148
:105D400084F83D1022645A69510604D51A69636AC1
:105D5000591C61621A702268136823F001031360F2
:105D6000FFF7A2F9AEE75A69520604D51A69636AC9
:105D7000591C61621A7000BEF2E700BF7012002069
:105D80008D5B00080000FFFF436A19680A6822F46F
:105D900080620A60002220215A8583F83D1083F832
:105DA0003E201A6C42F010021A6400BEFFF77CB964
:105DB000426A92F83D1092F83E00C9B22129C0B261
:105DC000136803D022290CD120280AD1596821F464
:105DD00000615960002151855A6842F440725A604E
:105DE0007047196821F480611960196841F40071E5
:105DF0001960596821F480515960596821F4006193
:105E0000596000235385136C13B100BEFFF74CB9E2
:105E1000202182F83D1092F83E1082F83E30F5E7DE
:105E2000012310B580F824300446FFF7A3FD0028B5
:105E30003FD1A36A214A23F4405323F0010343F4E2
:105E40008053A3622368934205D1A2F58062526811
:105E500012F4702F25D1A26A22F48012A262A26AE3
:105E600012F4807208BFE262002284F824206FF0EE
:105E700004021A605A68520512D49A6802F4E04289
:105E8000B2F5E04F11D10D4A934205D1A2F58062DF
:105E9000526812F4702F08D19A6842F402129A6084
:105EA00010BDA26A42F48012D8E79A6842F4004218
:105EB000F5E7002384F82430F2E700BF0028014012
:105EC000F7B50246002092F824300190012B00F033
:105ED000D1800127D2F808C082F82470D1E9005699
:105EE0001368BCF1000F7AD1BE4272D160469C6B40
:105EF000A40DA40544EAC5349C639C68E40707D458
:105F00009C68CF6924F4E04424F001043C439C6085
:105F10008C69012C0DD1CF69B7F5E04F17BF906A9E
:105F20005F6840F02000906212BF204647F480670F
:105F30005F604F69012F05D1002C70D15C6844F47B
:105F400080545C60092D05EB4504D1F808E04FF062
:105F500007076AD9D3F80CC01E3CA7402CEA0707F4
:105F60000EFA04F43C43DC60A5F11004012C98BF48
:105F70009F68DFF810C19CBF47F400079F60022EA6
:105F8000CF685CD0032E60D0012E64D1596901EA3C
:105F90000C0139435961012C16D837498B4263D122
:105FA0009968090210D49968102D41F40001996094
:105FB0000AD1324B32491B68B3FBF1F10A234B4340
:105FC0000193019B002B4CD1002382F8243003B0B5
:105FD000F0BD946A384644F0200494628DE71F2790
:105FE000D1F810C0A6EB0C0404EB84040F34A740D6
:105FF00047F44017B4456FEA07070CD3D3F838E0ED
:106000000CF1FF3C05FA04F444EA0C540EEA0707CD
:106010003C439C6371E79C6B27409F636DE7906AEC
:1060200040F02000906238468CE7D3F810C0A740BB
:106030002CEA07070EFA04F427431F6194E79969D5
:1060400001EA0C0139439961A5E7D96901EA0C011C
:106050003943D9619FE7196A01EA0C013943196292
:1060600099E7019B013BABE7936A012043F02003D2
:106070009362A9E70220AAE700240140340000202F
:1060800040420F0000F0FFFF002337B5019390F866
:1060900024300446012B5FD0012380F82430FFF721
:1060A00049FC0546002839D1A36A2C4823F48853BB
:1060B00023F0020343F00203A362294B1A68294B21
:1060C00059685B68C1F3C221415CC3F3813301337A
:1060D00022FA01F15B00B1FBF3F3B2FBF3F25200E1
:1060E0000192019BF3B92046FFF744FC23689A68AC
:1060F00042F008029A601C4A10689968090715D492
:10610000996841F0040199601068996849071ED4A4
:10611000A36A23F0030343F00103A362002384F87E
:10612000243011E0019B013B0193DAE71168091A61
:106130000A29E2D9A36A012523F0120343F01003D0
:10614000A362002384F82430284603B030BD1168D0
:10615000091A0A29D9D9EDE70225F5E734AB000879
:1061600034000020001002405C140020034B01307A
:1061700019681A68521A8242FBD370475C140020D7
:106180002DE9F0474AF6AA242D4E2E4D33681C60A7
:106190003523EB60FFF7BEFA0A20FFF7E7FF33680D
:1061A0001C60294C237E012B17D001232376FDF799
:1061B000FDFF80B9E0612B6943F002032B61234BA3
:1061C0006B612B6943F040032B61FDF7EFFF2B69F7
:1061D00023F002032B6100232376FFF79BFA1B4D6C
:1061E000DFF86C90174FDFF86C804AF6AA2233680C
:1061F0001A6005F17843A3F57C4339F803A0237EA8
:10620000012B13D001232376FDF7D0FF60B9E061A5
:106210003B6943F001033B61A5F800A0FDF7C6FF11
:106220003B6923F001033B6100232376023545459A
:10623000DBD1044A136943F080031361BDE8F087A2
:10624000C4120020002002409813002000FC000827
:106250003414002020FC00081A4A036890420AD037
:10626000B0F1804F07D0A2F59432904203D002F5EE
:106270008062904215D14A6823F070031343114A9B
:1062800090420AD0B0F1804F07D0A2F594329042EC
:1062900003D002F58062904203D1CA6823F44073B0
:1062A00013434A6923F08003134303608B68C3627E
:1062B0000B688362034B984204BF0B69036301239D
:1062C00043617047002C014013B590F83D300446FF
:1062D00003F0FF0200687BB9144B84F83C2098421D
:1062E00016D103F50333DA6942F00202DA61DB69A1
:1062F00003F002030093009B0223211D84F83D302C
:10630000FFF7AAFF0123002084F83D3002B010BD42
:10631000B0F1804FF0D1064BDA6942F00102DA6148
:10632000DB6903F001030193019BE5E700040040F2
:106330000010024013B519200021FDF7C9FF4FF0EE
:1063400000721C4B1C4C1A601C4B20469A6942F48C
:1063500000629A619A6902F400620192019A5A6895
:106360005A685A685A68164A12685B68154AC3F335
:10637000C223D25C144B1B68D340144AB3FBF2F324
:10638000134A013B2260636040F2E7320023E2607F
:106390002361A360FFF798FF50B92368DA6842F0E1
:1063A0000102DA601A6842F001021A6002B010BD00
:1063B0000120FBE700E100E0D012002000100240C5
:1063C0000020024034AB00083400002040420F009F
:1063D000002C014010B5036804461A6991070ED5D8
:1063E000DA6892070BD56FF002021A610122027778
:1063F0009B699B0701D1FEF7B1FC0023237723683B
:106400001A69500710D5DA6851070DD56FF00402EC
:106410001A61022222779B6913F4407F02D1204641
:10642000FEF79CFC0023237723681A6912070FD517
:10643000DA6810070CD56FF008021A61042222777F
:10644000DB69990702D12046FEF788FC00232377F9
:1064500023681A69D20610D5DA68D0060DD56FF018
:1064600010021A6108222277DB6913F4407F02D1FF
:106470002046FEF773FC0023237723681A69D107AF
:106480001CD5DA68D20719D56FF001021A612368AA
:10649000B3F1804F34D11E4A1E4913880968013B6D
:1064A0009BB213801C4B1B78DBB20B640B6C23B3C9
:1064B00013889BB20BB31948FDF7F2FE23681A69E3
:1064C000100605D5DA68110644BF6FF080021A6124
:1064D00023681A69520605D5DA68500644BF6FF082
:1064E00040021A6123681A69910605D5DA68920696
:1064F00044BF6FF020021A6110BDFDF7A1FEDDE779
:10650000074A934201BF074A136801331360D5E776
:10651000680B002010130020B81300205013002037
:10652000002C01405C14002010B590F83D3004466A
:1065300003F0FF020BB980F83C200223206884F8A6
:106540003D30211DFFF788FE0123002084F83D30F7
:1065500010BD00002DE9F74F00221646654BDFF80D
:10656000A4C1DFF8A4E14FF001080C6808FA06F8AE
:1065700008EA0404A0457ED14D68122D00F0AE80DB
:1065800000F28780022D00F0A6807BD8002D00F05D
:106590008D80012D00F09D804FF00F09FF2C93BFDF
:1065A000824606F18045083DD0F800B092BFB500A4
:1065B000D0F804B0AD0009FA05F82BEA080802FA91
:1065C00005F588BF00F1040A48EA0505CAF800503D
:1065D000D1F804A01AF0805F4DD0474F26F0030891
:1065E000BD6908F1804845F00105BD61BD6908F548
:1065F000803805F00105019506F0030B019D4FEA77
:106600008B0BD8F8085009FA0BF925EA09093B4D1C
:10661000A84268D005F58065A84266D005F580657A
:10662000A84264D005F58065A8420CBF0325042567
:1066300005FA0BF545EA0905C8F808501D681AF473
:10664000803F14BF2543A5431D605D681AF4003FD9
:1066500014BF2543A5435D609D681AF4801F14BFD5
:106660002543A5439D60DD681AF4001F14BF2C4329
:1066700025EA0404DC600136102E7FF474AF03B009
:10668000BDE8F08F032D22D0112D85D1CA680432C8
:1066900082E71B4FBD4209D012D8DFF870904D45FC
:1066A00004D009F580394D457FF476AF8A68C2B1D0
:1066B000012A0CBFC0F81080C0F8148008226BE7D4
:1066C0006545F3D07545F1D0DFF84490EBE7002243
:1066D00062E7CA6860E7CA6808325DE7CA680C32D8
:1066E0005AE7042258E70025A2E70125A0E7022582
:1066F0009EE700BF00040140001002400008014076
:1067000000002110000031100000321000001110B4
:106710000000221070B5816A86B00446002941D17C
:106720000268624BC1629A4280F8241003F56C4300
:106730009A6940F08C8042F400729A6180254FF48F
:1067400080729B694FF4806C03F400730293029B88
:10675000574B5848C3E903522022C3E905C24FF4FE
:106760004052C3E90001DA61534A19649960DA635F
:10677000026822F47F5222F0300242F4565242F074
:10678000200202600122996383F8212083F82010FF
:1067900023625C620F211220FDF79AFD4FF48022E4
:1067A000464B1A602046FFF7C5F8A36A13F0100F96
:1067B000A36A76D1002874D1E16923F48853626812
:1067C00023F0020343F002030A43A168A362E368D3
:1067D000B1F5807F42EA43024AD0012914BF064640
:1067E0004FF480766569012D07D1002B42D1A36952
:1067F000013B46EA433545F400662368B1F5807FE6
:106800005D6825F4694545EA06055D609E682C4D86
:1068100005EA060545EA02059D6001D0012932D14D
:10682000216901390905DD6A25F470052943D9621A
:106830009968244B0B409A4227D10023E362A36A54
:1068400023F0030343F00103A36206B070BD42F4DA
:1068500080629A619B69082203F480630193019B23
:10686000032302A91848CDE90223FFF773FE91E73D
:106870000E46B7E7A36A43F02003A362E36A43F03E
:106880000103E362B9E70021CDE7A36A23F0120315
:1068900043F01003A362E36A43F00103E3620120C3
:1068A000D3E743F01003A362F9E700BF00240140DF
:1068B000A4110020080002400000024000E100E0B6
:1068C000FDF7E1FFFE0E1FFF000C01402DE9F04F28
:1068D000012187B08046FEF7CBFD6428384D4FF08C
:1068E000010904D985F8009007B0BDE8F08F0827AA
:1068F0000323344E0DEB0701304600240593CDE908
:106900000279FFF727FE4FF4A0630DEB0701CDE9F5
:106910000133CDE90344FFF71DFE4FF4F042CDE90A
:10692000034404F1804404F584340DEB0701204650
:106930000292FFF70FFE4FF400227D203261FEF736
:1069400047FDA268019B12F4006F07D000232B7053
:106950001D4B1B780A2BC7D900231DE04FF4806B19
:106960004FF0807AC4F810B02046C4F810A002A9F5
:106970003761CDE90239FFF7EDFD0423C4F810B00B
:10698000C4F810A00A2437612B7001214046FEF79D
:106990006FFD502802D903232B70A5E70A20013C84
:1069A000FEF716FD14F0FF04EFD10523064A2B7005
:1069B00013780133DBB20A2B1370C7D8C8E700BFC6
:1069C0006A0B0020000C01406B0B00202DE9F843FE
:1069D000364D04462A780E46052A02D10846FFF7AE
:1069E00075FF2D78002D5FD0314B1B68632B5BD971
:1069F00001213046FEF73CFD032D55D100B2241A8B
:106A0000022094FBF0F4631C83424DD94FF480685C
:106A1000284D294E002C23DB4FF48068254D264E4F
:106A2000002C3CD04FF480774FF40029C5F810803B
:106A300003202F61C6F81090FEF7CAFC0823C5F8A2
:106A4000108001202F613361FEF7C2FCC5F8108071
:106A500003202F61C6F81090FEF7BAFC013CDFE777
:106A60004FF400274FF48079C5F810800320C5F853
:106A700010903761FEF7ACFC4FF08073C5F81080C2
:106A800001202B613761FEF7A3FCC5F810800320BD
:106A9000C5F810903761FEF79BFC0134BAE70A2075
:106AA000BDE8F843FEF794BCBDE8F8836A0B00200C
:106AB000C014002000080140000C0140F0B504465D
:106AC00087B010B9012007B0F0BD90F83D306B4E93
:106AD00003F0FF05002B61D1C02212230127CDE96D
:106AE0000223022380F83C5002A96548CDE90473D3
:106AF000FFF730FD4FF0800E1821F369614843F431
:106B00000013F361F369604A03F400130193019BDE
:106B10005E4BDFF8A0C1C3E903E5C3E90005C3E9A3
:106B20000555C3E90F219D60DD61016801EA0C0193
:106B300041EA0E01016010209D63554983F8205001
:106B4000A36383F821705C62524BC3E900104FF4D9
:106B50008050D8611420C3E9025EC3E90455C3E93B
:106B60000F209D610A681F2002EA0C0242F4845241
:106B700042F010020A609D630F21636383F8205086
:106B800083F821705C62FDF7A3FB4FF00043424D98
:106B90000F212B602020FDF79BFB6F6024232068D2
:106BA00084F83D3003683D4A23F0010303607368B5
:106BB0003B49C3F30223D35C3A4A1268DA40636864
:106BC0008B4230D838498A427FF67CAF3749B2FBD6
:106BD000F1F14160013101623149013A8B4232D811
:106BE0005B00B2FBF3F2531CC3F30B03042B38BF5F
:106BF0000423C361D4E9073213430360D4E90323B8
:106C000013438360D4E905321343C360036843F040
:106C10000103036000202023206484F83D302063BA
:106C200084F83E004FE722498A427FF64BAF1F4D62
:106C30004FF49671B2FBF5F5694345604FF47A75F0
:106C4000B1FBF5F1C6E7A16851B903EB4303B2FB11
:106C5000F3F30133C3F30B036BB143F40043C8E711
:106C600019214B43B2FBF3F30133C3F30B0313B10D
:106C700043F44043BDE70123BBE700BF00100240DF
:106C8000000C01408000024000000240E81100209A
:106C90006C0002402C12002000E100E034AB000840
:106CA000A0860100340000207F841E0040420F00B7
:106CB000FF083D000FC0FFFF2DE9FF412E4F1120BF
:106CC0003B6840251A684FF0800813682B4C23F06E
:106CD000010313600123CDE90103022304AE46F84A
:106CE000105D314620460393FFF734FC2561CDF853
:106CF0000080FFF72FFC65234FF48002C4F810805A
:106D0000A16809062ED5122201234FF04008CDE9D3
:106D1000012302238025314618480393CDF80080D3
:106D2000FFF718FC15480095FFF714FCC4F8108015
:106D300025613B681A68136843F40043136000BF81
:106D40003B681A68136823F40043136000BF386877
:106D50000268136843F001031360FFF7AFFE04B04D
:106D6000BDE8F081226100BF00BF00BF00BF013B52
:106D70002561C5D1F3E700BF0C110020000C0140D4
:106D8000F0B590F83C30012B4FF0020337D080F87B
:106D90003D3003680E681A6A22F001021A621A6A0C
:106DA0005D689C6922F0020224F0730434438E680B
:106DB0003243144EB3420BD1CE6822F00802324364
:106DC00025F44075D1E905673E4322F004023543BE
:106DD0005D609C614C6809695C631A629A6942F063
:106DE00008029A619A6922F004029A619A690A4338
:106DF0009A61012380F83D30002380F83C3018462A
:106E0000F0BD00BF002C01402DE9FF419846594BD1
:106E100004461D6890F83D300E46202B174603D0DF
:106E2000022004B0BDE8F0810095192301225249E7
:106E3000FEF786FE0028F3D194F83C30012BEFD00A
:106E4000012384F83C30236801211A682046D207C8
:106E50005EBF1A6842F001021A601A6822F40062EA
:106E60001A60212284F83D20402284F83E2000222E
:106E700022646185A1F10111E162618DC4F8248071
:106E80002185196841F48071196000950A9B4FF0C3
:106E90000111FEF755FE58B9236806F0FE061E6183
:106EA0000A9A2B4635492046FEF71CFE48B1236C52
:106EB000236C042B4FF0000384F83C3034D10120C4
:106EC000AFE7236803905A690A9903929B692A469F
:106ED00003932046039BFEF7D9FD40B1236C042B9E
:106EE000E6D12268136843F400731360E0E7236877
:106EF0001F61238D2A460A9920467BB9FEF79AFD29
:106F000078B92268136843F400731360202384F86F
:106F10003C0084F83D3084F83E0082E7FEF7B6FD81
:106F200020B1236C042B1FD003207AE7616A266806
:106F30004B1C63620B78228D3361638D501E013BC5
:106F40009BB26385736980B25B072085D1D5002829
:106F5000CFD08B1C63624B78023A3361638D2285FC
:106F6000013B9BB26385C4E72268136843F4007356
:106F70001360A4E75C14002002001000020001006E
:106F80002DE9F0439946A34B89B01D6890F83D3038
:106F90000446202B0E469046119F04D00226304610
:106FA00009B0BDE8F0830095192301229A49FEF744
:106FB000C7FD0028F2D194F83C30012BEED001231C
:106FC00084F83C30236820461A68D10758BF1A68F5
:106FD000BDF840105CBF42F001021A601A6822F44A
:106FE00000621A60222284F83D20402284F83E206C
:106FF0000022226461858949C4F82490E162618D90
:107000002185196841F480611960196841F4807123
:10701000196000953B464FF00111FEF791FD10BB42
:107020002368F6B206F0FE021A617D492B463A4605
:107030002046FEF757FD08B1236C14E02368079043
:107040005A69394607929B692A4607932046079B4F
:10705000FEF71CFD80B1236C042B04D12268136859
:1070600043F400731360236C042B4FF0000384F887
:107070003C304FD1012692E723682A46C3F810809E
:107080002046FEF703FD02460028E4D12168204691
:107090000B6843F480730B6000953B464FF0011181
:1070A000FEF74EFD0028DED1236846F001061E6182
:1070B0003A462B465A492046FEF714FD064600285C
:1070C000BAD1228D23683AB3012A38D11A6822F442
:1070D00080621A6072B6236805905A6905929A69AF
:1070E0000592059A1A6842F400721A6062B6DFF8D7
:1070F0003481238DD3B1032B00F29680012B3AD13A
:107100002A4639462046FEF76BFC002852D0236CF5
:10711000202BAFD1032642E706905A6906929A695E
:107120000692069A1A6842F400721A60202384F8C4
:107130003D30002384F83E3084F83C302FE7022AAB
:107140001A680ED142F400621A6072B62368049085
:107150005A6904929A690492049A1A6822F4806225
:10716000C3E742F480621A6003905A6903929B69F4
:107170000393039BBBE7022B00953B464FF00002B5
:107180004146204624D1FEF7DBFC0028C2D172B66E
:1071900023681A6842F400721A601A69636A591CFB
:1071A00061621A70238D013B2385638D013B9BB285
:1071B000638562B623681A69636A591C61621A7032
:1071C000238D013B2385638D013B9BB2638590E753
:1071D000FEF7B6FC024600289CD121680B6823F418
:1071E00080630B6072B623681969636A581C606219
:1071F0001970238D0095013B2385638D4146013B2A
:107200009BB2638520463B46FEF79AFC0028BFD020
:1072100080E700BF5C140020020010000000FFFFA8
:1072200002000100040001002A4639462046FEF70C
:10723000D7FB00287FF46BAF23681A69636A591C77
:1072400061621A70238D013B2385638D013B9BB2E4
:10725000638523685A6952077FF54BAFABE700BFE0
:107260000026444D80B50020FEF75AF9424F2A68A7
:10727000424BDFF82491DFF824813E601A60FDF76D
:1072800009FE2B685B6D7BB901222B684FF4FA6015
:1072900083F85820FDF774FE4FF08053C9F8003092
:1072A000BFF34F8FBFF36F8FFDF7E0FDFDF7F2FDEA
:1072B0002B68596D11B100222B685A6500222B688A
:1072C00083F85820FDF7D2FD00294DD00120FEF7AC
:1072D000DDF982463868B0B1B0F5E17F28BF4FF4E0
:1072E000E1700446FEF7BDF9A04202D2FEF7B9F9FB
:1072F0000446234BCAF1010A18682823544404F3B6
:107300000F0403FB0400D8F800309B1BB3F57A7F11
:1073100002D90328B8BF032040F21A42D8F800303F
:107320009B1B934203D90228C8BFD8F800600822EB
:10733000144B1B6993FBF2F347F669729BB29342BD
:1073400088BF0020104B5A7C32B10A219A7C4A43F4
:107350008242BCBF987C4843FEF7E2F84AF6AA2274
:107360000A4B1B681A608AE70A22094B1A80094BEC
:10737000197084E7BC13002040110020C80F0020C2
:10738000741400201814002034140020C4120020AB
:10739000680B0020B813002004ED00E0C0140020AA
:1073A0000023F0B585B00193044640B94FF0500377
:1073B00083F31188BFF36F8FBFF34F8FFEE7016C2C
:1073C00041B14FF0500383F31188BFF36F8FBFF3C8
:1073D0004F8FFEE7FDF7D2FC50B9019941B14FF054
:1073E000500383F31188BFF36F8FBFF34F8FFEE716
:1073F0006E4E6F4F6F4DB1E06568B5B90025002244
:107400006260626A0136A663002A65D004F1240036
:10741000FDF708FE002861D04FF08052654B1A60DE
:10742000BFF34F8FBFF36F8F58E0634B1B689D42D4
:1074300008D04FF0500383F31188BFF36F8FBFF371
:107440004F8FFEE72B6D43B94FF0500383F3118844
:10745000BFF36F8FBFF34F8FFEE7E96AEA6C013B22
:1074600091422B65CAD0002BC8D12F1D3846FDF79D
:107470005FFDDFF850C1514A70B91420D5F82CE0F7
:1074800000FB0EF05CF8003033B90121136801FAFB
:107490000EF123EA01031360EB6CC3F10401EB620C
:1074A000A9610125116805FA03F008431060142052
:1074B000394600FB03C0FDF7A9FDA0E70021A06845
:1074C00003F0DEFAA368226C13446268A36093425F
:1074D00024BF2368A3604FE0002D9DD1FDF7C6FCBB
:1074E000012005B0F0BD019810B9FDF7BFFCF8E729
:1074F00019B9336802933B680393FDF7B7FC304A30
:10750000136801331360FDF7C5FC94F84430FF2B7A
:1075100004BF002384F8443094F84530FF2B04BFA7
:10752000002384F84530FDF7A1FC01A902A8FDF76E
:10753000CDFC98BBFDF7AEFCA26BE36B9A421DD16C
:10754000FDF794FC019904F11000FDF751FD204670
:10755000FDF7F4FDFDF7C6FEC0B10121FDF79AFC71
:10756000A26BE36B9A42BED2226CA66B002AA5D115
:107570002368002B3FF440AF002542E7FDF776FC7F
:107580002046FDF7DBFDFDF7ADFEE6E74FF080534B
:107590002B60BFF34F8FBFF36F8FDEE72046FDF701
:1075A000CDFDFDF79FFE00209BE700BFA414002047
:1075B000C014002004ED00E0BC1300207014002073
:1075C00068140020C813002032232DE9F04F85B045
:1075D0000193044640B94FF0500383F31188BFF381
:1075E0006F8FBFF34F8FFEE7016C41B14FF0500337
:1075F00083F31188BFF36F8FBFF34F8FFEE7FDF763
:10760000BDFB50B9019941B14FF0500383F311888C
:10761000BFF36F8FBFF34F8FFEE76F4F6F4E91E059
:10762000019B1BB9FDF722FC0020C0E029B96C4B7F
:107630001B6802936B4B1B680393FDF717FC6A4AA8
:10764000136801331360FDF725FC94F84430FF2BD9
:1076500004BF002384F8443094F84530FF2B04BF66
:10766000002384F84530FDF701FC01A902A8FDF7CD
:107670002DFC002840F0A280FDF70CFCA36B002B32
:1076800058D1FDF7F3FB2368002B40D1FDF702FC36
:107690006568002D39D03268EB6AD26A934234D2E1
:1076A0004FF01408AA69DFF848B1002AA8BF326871
:1076B00008FB03B3A8BFD26AD946A4BFC2F1040233
:1076C000AA616A699A4275D105F1040A5046FDF72C
:1076D0002FFC464A58B9E86A08FB00F85BF8083006
:1076E0002BB901211368814023EA01031360336839
:1076F0001168D86A012383400B4313601423E862A6
:10770000514603FB0090FDF781FCFDF7AFFB0199AB
:1077100004F12400FDF76CFC2046FDF70FFDFDF79A
:10772000E1FD70B94FF080533B60BFF34F8FBFF363
:107730006F8F06E0FDF79AFB2046FDF7FFFCFDF793
:10774000D1FD0121FDF7A6FBA56B002D3FF468AF2D
:10775000226CE36862B1616813448B42E36028BF26
:1077600023684FF0000028BFE360E16803F088F968
:107770002368013DA56343B9184B1A681AB119680B
:107780000A6D01320A651B686360236963B104F105
:107790001000FDF747FC38B14FF080520E4B1A60D5
:1077A000BFF34F8FBFF36F8FFDF760FB012005B074
:1077B000BDE8F08F3368DB6AEB62A6E72046FDF791
:1077C000BDFCFDF78FFDFDF765FBA36B002B3FF4C0
:1077D00029AFFDF74BFBB4E704ED00E0BC1300203C
:1077E000A4140020C014002068140020701400208D
:1077F000C8130020F0B5A14D0646286885B00F4695
:10780000002840F0BB809E4B1C689E4B1D6894F87E
:107810003D30202B40F08B800095192301229A499E
:107820002046FEF78DF9002840F0818094F83C3026
:10783000012B7CD0012384F83C3023681A68D207DE
:107840005EBF1A6842F001021A601A6822F40062F0
:107850001A60212384F83D30102384F83E30002341
:107860002364A3F580336785E362638D66622385B5
:10787000E36A042B04D0012B02D013F5803F05D11D
:107880002268136843F48073136002E0236B122BA9
:10789000F6D0009541F2883300224FF001112046C6
:1078A000FEF74EF968BB22692368B2F5804F1DD1FF
:1078B000782276491A6120462B4641F28832FEF73B
:1078C00011F9E8B9236802905A6902929B69029300
:1078D000029B238DE3B921680A6842F400720A60B2
:1078E000202284F83D2084F83E300CE0F0226849E4
:1078F0001A6120462B4641F28832FEF7F3F828B190
:10790000236C236C002384F83C3010E02368CFE71D
:107910002A4641F288312046FEF7B8F848B1236C78
:10792000042B04D12268136843F40073136005B07C
:10793000F0BD616A20684B1C63620B780361638D44
:10794000228D013B9BB26385531E9BB22385466902
:1079500076070AD54BB18B1C63624B78023A036100
:10796000638D2285013B9BB263852A4641F28831B3
:107970002046FEF75FF80028ABD0D0E7FFF724FEE3
:107980000128D4D13E4B1C680023039394F83D306A
:10799000202B12D146F2A8123E4B1B68B3FBF2F229
:1079A000192353430393039B5A1E03926BB920225E
:1079B000236384F83C3084F83D20FFF77DF9286884
:1079C00005B0BDE8F040FFF7EBBC2268936999076A
:1079D000E9D494F83C30012BEFD0012384F83C30FB
:1079E00013680025DB0758BF13684FF078015CBFB0
:1079F00043F001031360136823F400631360212331
:107A000084F83D30102384F83E30234B256467858D
:107A1000E362638D66629BB223856164F3B1606B40
:107A20001E49103281621E494563C0E90B5131463F
:107A3000FDF716FF23681A6842F480621A601A681C
:107A400042F480721A6084F83C505A6842F44072E2
:107A50005A605A6842F400625A6068E7116841F45B
:107A600080611160116841F48071116084F83C30CC
:107A7000536843F4E063536059E700BFC01000202F
:107A80000C1100205C140020020010000200010014
:107A900008000100340000200000FFFFB15D000875
:107AA000895D000838B5124D80F001042A78A242A1
:107AB00018D0104BBCB1C822DA72A12232210D4875
:107AC000DA74FFF797FE002C14BF002220220A4B25
:107AD0002C705A7114BF5F227F22DA7114BFC82242
:107AE000C0225A7238BDC022DA72A022E6E700BF77
:107AF000B810002000000020D40F00200E4B997910
:107B00009A79013161F3010203219A719A7902F0A5
:107B1000030292FBF1F101EB4101521A997962F3F0
:107B200001019971987910F0030002D0012800D06A
:107B30007047FFF7B7BF00BF34140020D1210148C0
:107B4000FFF758BED40F00202DE9F341184C05462D
:107B500020680E461746984668B941F28833CDE949
:107B600000831448134600680A462946FFF708FABE
:107B700002B0BDE8F081FFF727FD0128F8D14FF4EE
:107B8000FA73CDE900830B483B463246294600682C
:107B9000FFF7F6F928B12568FFF78EF82846FFF7BA
:107BA000FFFB206802B0BDE8F041FFF7F9BB00BF62
:107BB000C01000200C110020F7B5164C05462068B7
:107BC0000E46174658B941F28833134800930068AF
:107BD00013460A462946FFF717F903B0F0BDFFF731
:107BE000F3FC0128F9D14FF4FA730B4800933246A5
:107BF0003B4629460068FFF707F928B12568FFF7DB
:107C00005BF82846FFF7CCFB206803B0BDE8F040E6
:107C1000FFF7C6BBC01000200C1100202DE9F04179
:107C20000746DDE9060488461D4640B94FF050037B
:107C300083F31188BFF36F8FBFF34F8FFEE744B913
:107C40004FF0500383F31188BFF36F8FBFF34F8F53
:107C5000FEE796003246A521206302F01CFF226B4E
:107C6000043E324408F1FF3322F0070204F13401EC
:107C700008F1170813F8010F01F8010B187808B183
:107C80004345F7D1032D28BF0325C5F10403002187
:107C9000A3614FF08073E562C4E91351616584F814
:107CA0004B106161A1622461646284F8581042F84B
:107CB000043C444B27F0010742F80C3C42F8087C96
:107CC00042F8201C403A2260FDF7E4F83E4A3F4E5D
:107CD0001368DFF820810133136035683C4BD4F81A
:107CE0002CC0002D63D134601268012A39D14FF0C5
:107CF000FF3703F108025A60C3E902721A611A469B
:107D000042F81C5B3349C3E90627C3E9082203F1A3
:107D10003002C3E90B27C3E90D2203F14402C3E992
:107D20001027C3E9122201F10802C1E90127C1E9C4
:107D30000322294A0D6002F10800C2E90107C2E9E5
:107D4000030026485D6100F1080EC0E901E79D626D
:107D5000DD631560C0E903EE05602148016021493B
:107D60000A6021490A6801320A6001221F4902FAA9
:107D70000CF20868024314200A6000FB0C30211D3D
:107D8000FDF744F9FDF772F8D8F8003063B13368B5
:107D9000DA6AE36A9A4207D24FF08052144B1A60B3
:107DA000BFF34F8FBFF36F8F2046BDE8F081D8F847
:107DB0000020002AD5D13268D26A624598BF34606B
:107DC000CFE700BF6943000860140020BC13002007
:107DD000C8130020781400208C140020A814002060
:107DE000C0130020C41300206C1400207014002065
:107DF00004ED00E0BC14002037B5D0E9001485691B
:107E0000B0F90830026901954069842B009014BFD5
:107E1000033300232046FFF701FF03B030BD00000D
:107E200010B5244C20220021204602F034FE962377
:107E300063803C2323714FF496731E22238000231A
:107E4000012107206371E274227A63F3C302227274
:107E5000227A63F382022272A27961F30102A27193
:107E6000A27960F38502A2710A204FF44372628105
:107E7000E071227A0A4322724FF4D272A281A2796F
:107E800063F38712A271227A42F002022272227AEE
:107E900042F01002227263744FF46173E38118237D
:107EA0002374A37405232176A3836083BDE8104067
:107EB000FEF766B934140020C0220021014802F008
:107EC000EABD00BFE50F00202DE9F0410020FCF7DE
:107ED000BDFA4FF00005FFF7EFFF294E294F2A4C5E
:107EE000002160894FF00A0835803D80FDF7C0FA17
:107EF000B0FBF8F00122022180B2FCF756FB2348C8
:107F0000FCF74AFB00216089FDF7B2FAB0FBF8F3F9
:107F100003FB18000022012180B2FCF746FB1C483D
:107F2000FCF73AFBFCF790FE01380F280DD8DFE88C
:107F300000F008190C1C0C0C0C1C0C0C0C0C0C0C80
:107F40000C1C638901339BB26381FFF7F7FD0420AA
:107F5000FDF73EFA6389B3F5FA7F0AD24FF4FA735C
:107F60006381BCE76389013BEDE7BDE8F041FEF7C3
:107F700007B96389B3F5617FB1D94FF46173EFE756
:107F8000BA100020BC1000203414002065B900088D
:107F900029BE00082DE9F74F0746414DDFF8308133
:107FA000FCF752FE002878D12B68642B0ED998F884
:107FB00000302BB13B4A2B6812689B1A632B54D9B3
:107FC000394A2B6812689B1A632B66D9374C002FED
:107FD0004ED162882388934228BF1346344E002036
:107FE0003360FDF753FB4FF0000A1FFA80F9FFF7EB
:107FF00063FF304BDFF8DCB0A3F800A0207A0193D8
:10800000C0F3C000ABF800A0002833D00120FCF77B
:108010001DFA2948FCF7C0FA019B2848A3F800A0E4
:108020000823ABF80030FCF7B7FA012203214846D9
:10803000FCF7BBFA2248FCF7AFFA2248FCF7ACFA8F
:10804000FDF7E0FA2048FCF7A7FAE37903B3154BF4
:108050001968E9B141F270732A68E079521A434312
:108060009A4215D900230120336003B0BDE8F08F98
:108070000023B3E7FCF7EAF91448FCF78DFA484609
:1080800001220321FCF791FA0120FCF72FFADCE72B
:10809000FFF754FDFDF7BAF982E70020E5E700BFDE
:1080A000C0140020941300209013002034140020EA
:1080B00040110020BA100020CCBD0008D9BD000836
:1080C000B8B900087BBE000829BE0008DFBD000863
:1080D0003C110020BC1000202DE9F84F002426465A
:1080E000A046524D524B2F68DFF860B11C60514BD7
:1080F000ABF80080A3F80080FFF7DEFE0020FCF75D
:10810000A5F9FCF7A1FD002832D001382F680F280F
:108110002ED8DFE800F079142D1C2D2D2D082D2DE3
:108120002D2D2D2D2D892A68A31B13441E2B1FD9FD
:10813000414B1A7E598BA2B11A880A4413E03E4B78
:108140001A7E998B002A64D01A880A4463E02A6850
:10815000A31B13441E2B0BD9374B1A7E598B002AB5
:10816000EAD01A88521A92B21A8003342E68E4B206
:10817000DFF8C4A0C4F11E03BAF80020092BD8BF51
:108180001424B2F5E17F84BF4FF4E172AAF8002015
:10819000BAF80020312A9CBF3222AAF800202A68AF
:1081A000D21BC82A40D8254A9AF8180092F80090A5
:1081B000B9F1000F32D12249224A002814BF0846E3
:1081C0001046FCF7E9F92048FCF7E6F90122032103
:1081D000BAF80000FCF7E9F90120FCF787F91A4822
:1081E000FCF7DAF99AF81800B9F1000F19D1154A1D
:1081F000134B002814BF10461846FCF7CDF9FFF7C3
:108200009DFCFDF703F972E70B4B1A7E998B002A50
:108210009AD01A88521A92B21A80A9E70949084AD4
:10822000CBE7074A074BE4E7BDE8F88FC01400200E
:1082300040110020BA10002034140020B810002093
:10824000CABD00082BBF00087BBE0008BC10002080
:108250002DE9F047884C2379052B89BF25794FF408
:108260007A756B1F41F2707598BF23795D4390B9A1
:108270000026824FDFF83C82FCF7E6FC102818D875
:10828000DFE800F0169797179117171714171717AD
:10829000171717171400831E58425841FFF77AFE2C
:1082A0000028E5D0764B1A68764B1A60BDE8F08757
:1082B00000264FF00009A7F80090A8F80090FFF7FB
:1082C000FBFD4846FCF7C2F8237ADFF8EC9113F087
:1082D000080F00F086804FF00A0A0120FCF7B6F87C
:1082E0006948FCF759F9D9F800000122B0FBFAF00F
:1082F000022180B2FCF759F96448FCF74DF9D9F82E
:1083000000300122B3FBFAF00AFB1030114680B2B4
:10831000FCF74BF95E48FCF73FF9A37913F03C0FEB
:1083200020D02379F3B15B48FCF736F95449554B1B
:10833000594A08681B681268281A9A422CBF80188C
:10834000C01842F2AC63984240DD41F2707390FB7A
:10835000F3F0013080B201220221FCF726F94F48E8
:10836000FCF71AF900233B8008234D48A8F8003099
:10837000FCF712F90120FDF7A7F94648FCF70CF9C4
:10838000FDF740F94748FCF707F9FFF7D7FB464BE5
:10839000002E58D0A2891A60A37913F03C0F54D153
:1083A000FDF734F868E7237A13F0010F18BF0126B0
:1083B0007FE7B4F80090FFF78FFE23881FFA89F952
:1083C00099453FF476AFFDF7DBFE72E7642390FB3F
:1083D000F3F0013080B201220221FCF7E6F83348C5
:1083E000BEE7334B1978B9B1FDF7CAF82948FCF755
:1083F000D3F80120FDF768F956B10220FCF776F8B2
:108400000021D9F80000FDF76BF8FCF78BF8BCE70A
:108410002048FCF7C1F8F3E7D9F80000FDF760F851
:10842000FCF780F85EB10220FCF760F80120FDF750
:108430004BF91848FCF7B0F8FDF7A2F8A5E7154886
:10844000FCF7AAF8F2E72288A5E72379002BA7D04A
:108450000B4A1149136809685B1AAB42A0D913682B
:10846000084A12689B1AAB429AD90020FFF792FD86
:10847000002895D01AE700BF34140020BA1000205D
:10848000C0140020901300207DBD000865B90008CD
:1084900027BE00087BBE0008941300202FBE0008F2
:1084A000D9BD000829BE0008401100203BBE0008CD
:1084B000B8100020BC100020741400202DE9804862
:1084C000874C91B00120FFF7EDFA6089FEF7FEF9C5
:1084D000844D2B681BB90320FCF77AFFF9E70025D0
:1084E00063796189002B14BF78205A20FEF76EFA59
:1084F000A0797D4E00F001000DF1300AFFF7D2FAAD
:10850000294610225046356002F0C5FA294610224D
:1085100008A802F0C0FA1022294600250DEB02003F
:1085200002F0B9FAA3790196C3F38303092B88BF3C
:1085300009222E462F464FF0030BA84682BFA3798F
:1085400062F38503A371C82140F6E440A279C2F327
:10855000830201FB12030093644B93F80090B9F17E
:10856000020F51D1062302AAA8213220FFF7ECFA0C
:10857000012302AAB5213220BDF90850BDF90A60D5
:10858000BDF90C70FFF7E0FA9DF808309B10082B3E
:10859000DAB25AD0012B56D0022A0CBF4FF0000B92
:1085A0004FF0030BA27902F00302022A07D1BBF1BC
:1085B000030F04D0BBFA8BF04009FFF773FA10AB3E
:1085C00003EB48024A4B22F8105C22F8206C22F898
:1085D000307C1A78002A3ED108F1010C4FEA4C0198
:1085E00008AB03EB010E04AB0AEB010919440CEBD9
:1085F0000200C0B207282BD829F812502EF81260BA
:1086000021F812700132F2E7B9F1010FCAD1062345
:1086100002AA49463A20FFF797FA4B4602AA1021D0
:108620003A20BDF80850BDF80A60BDF80C70FFF79D
:108630008BFA9DF80830EDBA1A06F6BAFFBA04D5DF
:10864000C3F3410BAEE79B46ACE74FF0030BA9E742
:108650000122274B1A70002108468C460A4608F171
:10866000010808F007080DF110093AF911E008AB0C
:10867000724433F911E0F44439F911E00131082969
:108680007044F2D192FBF1F29CFBF1FC90FBF1F112
:10869000ACEB060C521BC91BBCF1000F82EAE27E58
:1086A000B8BFCCF1000CAEEBE27E0029B8BF494266
:1086B000009B0EEB0C020A449342BEBF0D4A019B85
:1086C00012684FF00A00B8BF1A60FCF781FE6279A9
:1086D0006189002A14BF78205A20FEF777F932E723
:1086E00034140020C80F0020941300200409002037
:1086F0003C110020C01400202DE9F04F0027012379
:108700004FF0FF3BBA46B946B8463C4685B00290AA
:10871000019300970C256543029B5E19B068002801
:1087200000F01281B9F1000F40F00E814846FBF7CE
:108730008DFE874B874AA3F80090874B1268A3F8F9
:108740000090864B1868801AB0F5967F3BD3029A4A
:108750005059002837D0BAF1000F01D1D3F800A04A
:10876000FBF7F6FC7D4B00EB40001B688000A3EBA1
:108770000A0E7B4B543093F808C000B21CF0100F67
:1087800014BF4FF0010C4FF0020CBEFBFCFE0FFAC1
:108790008EFE9EFBF0FC00FB1CE00FFA80F9CB453F
:1087A000039018D0FFF788FB0398694BC0F1600075
:1087B00018800020684B1880029B5859FBF7ECFE8C
:1087C0000123019307E0FFF777FBB068804701239F
:1087D0004FF0FF390193FCF737FA8742DFF87CB19D
:1087E00040F08B80781E0F2809D8DFE800F02B3787
:1087F000084108080857080808080808086A0025FA
:10880000C8F11E000928D8BF4FF01408019B23B1FE
:10881000FFF794F90420FCF7DBFD4E4EDBF8000077
:1088200036680023801B47F23056B042CB4688BFE3
:108830004FF0000A019394BFA9464FF0010969E780
:108840004FF00008BAF1000F3FD17268002A3FD004
:10885000904755460127D3E74FF00008BAF1000FC3
:1088600038D10134E4B255460227C9E74FF0000879
:10887000DBF80020009BD21A42441E2A2DD9002585
:10888000042772689047DBF80030009308F1030377
:108890005FFA83F8AA46B3E74FF00008DBF8002040
:1088A000009BD21A42441E2A1AD9DBF80030013448
:1088B000009308F10303E4B25FFA83F80025082768
:1088C000E8E74FF0000A01259AE700250127E1E7D4
:1088D0000127F8E700250227DCE7002504278FE7BA
:1088E000002508278CE74FF0000A07460125D046EF
:1088F00086E700250746A84688E7431E0F2BF8D8D1
:1089000001A252F823F000BF4188000859880008EE
:10891000F38800086D880008F3880008F3880008D1
:10892000F388000899880008F3880008F388000895
:10893000F3880008F3880008F3880008F38800082B
:10894000F3880008E788000805B0BDE8F08F00BF95
:10895000BA10002090130020BC100020C01400208A
:10896000341400200148FFF7C7BE00BF38000020C4
:108970000148FFF7C1BE00BFE00000200148FFF73B
:10898000BBBE00BF1C0100200148FFF7B5BE00BF01
:10899000980000202DE9FF4848230593059B482BAC
:1089A00008D04FF0500383F31188BFF36F8FBFF3EC
:1089B0004F8FFEE700210123AE48AF4FC0E90F31D2
:1089C0000060FCF767FAD0E90F3463430268816303
:1089D000D5181B1B1344C360FF2382604FF0FF3286
:1089E00080F8443080F8453000F11803C0E90623D0
:1089F0004361036200F12C03C0E90A320161416264
:108A00004560C0E90C33FCF731FA9C4D9C4B9D4E00
:108A10001860FEF7C5FCFCF765F9A879DFF8A882B5
:108A200000F00100FFF73EF83C68DFF8A09204F583
:108A3000C8743B689C423BD9934B1B78552B35D16E
:108A40003378AA2B32D198F800300D2B2ED199F81B
:108A50000030F02B2AD18D4BDFF874E21A68002326
:108A6000DFF870C213F80E10D15413F80C00D118AF
:108A70000233602B4870F5D1854BDFF85CE21A6851
:108A80000023DFF858C213F80E10D15413F80C006D
:108A9000D1180233602B4870F5D1FFF74FF8FCF77F
:108AA000D3F800B13C68FCF7B1FCC2E73C68F6E7DC
:108AB000784BDFF82C821B78DFF8289293B1FFF710
:108AC000FBF90120FBF7C2FC00237348A8F8003033
:108AD000A9F80030FBF760FDFFF730F84FF47A702B
:108AE000FCF798FCAC79A40906D0AC79A409012C58
:108AF00056D10020FFF7ACFB4FF0000B5E46FCF7B1
:108B0000A3F8824600285CD10024644B00216889C8
:108B10001E60FCF7ADFC0020FCF7B8FDAF231FFA88
:108B200080FA5F4ABAF1310F537014D8AB7913F061
:108B30003C0F10D05B4A3B6812689B1A41F270727E
:108B4000934208D958493B6809685B1A934282BF2F
:108B5000AE23534A5370FFF7AFF9A8F80060A9F8A5
:108B60000060297AC1F38001002900F01281012000
:108B7000FBF76CFCBAF5EB7F40F2FC804B48FBF74F
:108B80000BFD08234A48A9F80030A8F80060FBF75D
:108B900003FDFCF737FDFEF7D1FFFCF737FCAEE72E
:108BA000AB799B09022B04D10120FFF751FB012473
:108BB000A2E7AB799B09032B01D10220F5E7002442
:108BC0009AE7AF23364A00205370FBF73FFC002C96
:108BD0009BD10AF1FF3ABAF1070F96D801A353F8D7
:108BE0002AF000BF5F8D0008698D00080B8B00081C
:108BF000558D00080B8B00080B8B00080B8B0008B1
:108C0000058C00080024FFF757F90120A8F8006040
:108C1000A9F80060FBF71AFC2648FBF7BDFC082307
:108C2000A9F80030244BA8F8006053F82400FBF7A3
:108C3000B3FC631E092B68D8DFE803F0050F11139E
:108C400018567B7F84871D4B1868FCF7B9F8012202
:108C5000052180B2FBF7A9FC57E0194BF4E7194B4B
:108C6000F2E738686423B0FBF3F0F0E70D4B1868C7
:108C7000F8E700BFC4100020C01400203414002006
:108C8000C010002001F8000800F80008B010002013
:108C9000B41000203014002067B9000840110020F3
:108CA000D40F0020941300209013002093B90008E3
:108CB000ACB9000885B900083CAB0008A00600204C
:108CC00000090020640B002002F8000803F80008E7
:108CD00005F8000804F8000865F8000864F80008C2
:108CE000BA100020BC100020EB891FFA83FA4FF065
:108CF0000003EB81FBF7F6FFFBF74EFB0122062199
:108D000080B2FBF752FCA5F80EA0FEF717FFFBF7A9
:108D10009BFF02283FF4F8AE012807D10B22013453
:108D2000E4B2B4FBF2F302FB1344E4B2FCF76EFBD3
:108D300069E70120FCF7AAFC89E7FCF783FC012224
:108D4000032187E7FCF75EFCDFE70122494B114670
:108D500018787FE7FFF7C0F9FDF712FAD5E6002093
:108D6000FFF776FA0124D0E64348FFF7C5FCFDF78C
:108D700007FAF7E74148FBF70FFC0020FCF7A4FCDB
:108D80003F48FBF709FC288801220321FBF70DFC73
:108D9000F7E608460391FBF759FB3A4B039918781D
:108DA00000283ED1384B01460093542210230C205A
:108DB000FBF706FBFCF7E4FBBAF1370F56D8BAF124
:108DC0002C0F50D9BBF1000F3FF4E5AE2D4A2F4BCD
:108DD00012781B68B2BB03F136025F3302F8016FF1
:108DE0009A42FBD12A4B1B6803F136025F3302F82B
:108DF000016F9342FBD13823A8F80030A9F8006036
:108E00002B7A9B0707D519223968B1FBF2F302FBD5
:108E100013130F2B02D90020FCF756FC4FF0010B67
:108E2000B9E61C4B5422009308461023FBF7C8FAFE
:108E30005423A8F80030FCF7A3FBBAF1370FBED9D2
:108E4000124B1B685A1E283302F8016F9342FBD164
:108E50000F4B1B685A1E283302F8016F9A42FBD150
:108E6000A8F80060CAE74FF0000B94E6074B1B68B8
:108E7000B1E700BF040900205C010020A0B9000890
:108E8000A5B90008B8100020BAB90008B010002039
:108E9000B410002094BA00082DE9F74F8246FBF782
:108EA00057F9244E00EB4000336884000020009303
:108EB000FBF7CCFA204B002501224FF0FF319846FA
:108EC0001E4F5434A4B23D801D80336800981B1A95
:108ED0001B48007A10F0100F14BF01200220B3FBD2
:108EE000F0F31BB293FBF4F004FB103B0FFA8BF989
:108EF00049450AD0FEF7E0FFCBF1600350463B80C6
:108F0000A8F80050FBF748FB01220192FBF79CFEFA
:108F1000019A40B922B1FEF711FE0420FCF758FA7D
:108F200000224946D1E7431E5842584103B0BDE8EC
:108F3000F08F00BFC0140020BC100020BA10002029
:108F4000341400202DE9F74F2A48FFF7A5FF002829
:108F50004DD00023284DDFF8A880284FDFF8A490DB
:108F6000EB81EC890026A4B264BB2646A346FBF73E
:108F7000B9FE4FF0000A0644FEF79EFF4846A8F8E7
:108F800000B0A7F800B0FBF707FBC4F385035FFA56
:108F90008AF29A42019306D24846FBF7FDFA0AF19B
:108FA000010A019BF3E7FEF7C9FD01340A20FCF733
:108FB0000FFA102CDBD1C6F30F10FBF7EDF980B2DE
:108FC000E881CEE7FEF778FF1020A8F800603E8029
:108FD000FBF78CFAE88901220421FBF7E6FAFEF799
:108FE000ADFD782003B0BDE8F04FFCF7F1B903B058
:108FF000BDE8F08F88BD000834140020BC100020AC
:10900000BA10002065B9000808B50C48FFF744FF06
:1090100098B1FEF705FF0020FBF718FA0023084A75
:1090200008481380084A1380FBF7B6FAFEF786FD5E
:10903000BDE80840C820FCF7EDB908BDE4BD000854
:10904000BA1000201EBE0008BC1000202DE9804888
:109050004FF6FF07454A464D1368464E43F010034E
:109060001360EA68444C3A403243ABB0EA60FDF723
:1090700061F9A269002142F00102A261A2696FF0C8
:109080000B0002F001020692069BEB68DFF8F890F5
:109090003B403343EB60FBF71BF900216FF00A0004
:1090A000FBF716F900216FF00900FBF711F9002119
:1090B0006FF00400FBF70CF900216FF00300FBF7E1
:1090C00007F90F216FF00100FBF702F90F214FF0B4
:1090D000FF30FBF7FDF8636813F00C0F07D06368EF
:1090E00003F00C03082B51D16368DF034ED42368CF
:1090F0000122236823F0F80343F0800323601F4B11
:109100001A60D9F80020636A9D0740F151834FF43B
:10911000FA521B4B1B68B3FBF2F30B9300BF0B9A85
:10912000531E0B93002AF9D1636803F00C03082B3C
:1091300039D0144B1A601A46D9F8001023689801E8
:1091400000F13D83636823F4741343F46013636098
:1091500001231360D9F800202368990123D4D9F89A
:1091600000309B1A022BF7D91DE000BF00200240FF
:1091700000ED00E00003FA050010024080044242C6
:1091800034000020600042425C1400200122BE4BEB
:109190001A60D9F8002023689E07A9D4D9F80030B6
:1091A0009B1A022BF7D9B94A136803F00703012B66
:1091B00040F20C83636843F4E0636360636843F4E4
:1091C00060536360636823F0F003636023689A016F
:1091D00000F11C834FF47A716368AD4A23F4404375
:1091E00043F40043636013680292B3FBF1F3013B65
:1091F000B3F1807F09D2F021A64A5360A64B83F8D1
:1092000023100023936007231360A24A4FF0004706
:109210001368A24D032643F004034FF002081360C5
:109220000F214FF0FF30FBF753F86B68DFF890A287
:1092300023F0E06343F080636B60A3691EA943F0F1
:109240002003A361A369964803F020030A930A9BB5
:10925000A3694FF4004B43F00403A361A36903F037
:1092600004030993099BA36943F00803A361A3695D
:1092700003F008030893089BCAF81070CDE91E6636
:10928000CDF88480FDF766F96A681EA942F0E062B5
:1092900042F400426A6048F2FF725046CDE91E2651
:1092A000FDF758F94FF6F7721EA97E4801251E9268
:1092B000FDF750F91E9600261EA97A48CDE91F65D4
:1092C000FDF748F91EA95046CDE91EB5CDF88480BA
:1092D000FDF740F9CAF810701E20CAF81070FCF7AC
:1092E00045FFCAF810B0626905212A4362616269CC
:1092F0000B202A400792079AFAF7EAFF4FF4006220
:10930000694C052122601020FAF7E2FF4FF4803209
:10931000052122601120FAF7DBFF4FF40032634F82
:109320002260DFF8A0C1624A3846C7E900C24FF4A4
:109330008042C7E90266C7E90426C7E906663E62BD
:10934000FDF7BCFB4FF480725A4CDFF87CB1C4E9E6
:1093500002254FF460222046C4F800B06661E26145
:109360006660C4F81080FDF7D5F994F82430AB425C
:1093700017D0226884F824509368DD0700F1AE828C
:109380004D4B9B68D80700F1A9825A4540F0A68250
:10939000536823F4702343F480335360002384F82C
:1093A0002430002194F824300D91012B11D0012399
:1093B000226884F82430536B23F01F0343F0040326
:1093C0005363136923F4E04343F4C043136184F807
:1093D0002410002194F824300C91012B11D001238A
:1093E000226884F82430536B23F4787343F04003ED
:1093F0005363136923F4E07343F4C073136184F877
:10940000241001234FF0030B0025CDE91EB30426E1
:1094100020934FF440531EA92648CDE924532395A9
:1094200021952296FCF74CFD02231EA921481F938B
:109430002095FCF745FD1EA91E48CDF87CB0FCF731
:109440003FFD1EA91B481F96FCF73AFD2268194DE7
:10945000536843F0800353602846FCF715FE064628
:109460000028F9D1154D144B4FF0010B2B604FF430
:109470008073C5E9023B4FF46023EB61022368610E
:10948000686028462B6121E0000042420020024033
:109490003400002010E000E000ED00E0000001409A
:1094A00000140140000C014000E100E070120020B7
:1094B000F82401004411002000280140741100200C
:1094C000000801400054004000240140FDF722F94B
:1094D00095F824300F965B4510D02A6885F824B0A3
:1094E000536B23F01F0343F003035363136923F407
:1094F000606343F44063136185F82460002195F8AC
:1095000024300E91012B11D001232A6885F82430D4
:10951000536B23F4787343F040035363136923F4CC
:10952000E07343F4C073136185F824100122032310
:1095300000261F924FF0040B20924FF440521EA9B8
:10954000A9481E930393CDE9246223962196CDF872
:1095500088B0FCF7B5FC02221EA9A3481F922096F2
:10956000FCF7AEFC039B1EA99F481F93FCF7A8FCC9
:109570001EA99D48CDF87CB0FCF7A2FC9A4E30465F
:10958000FCF782FD83460028F9D10823974EDFF8C7
:1095900078826422C6E900834FF40073C6E903238E
:1095A0008023B0603046B361FCF78EFE96F83C3005
:1095B000012B14D001210223326886F83C1086F872
:1095C0003D30936823F47F4323F0770393609368DF
:1095D00023F00703936086F83D1086F83CB04FF007
:1095E000000B8248FCF7A0FF8048FCF79DFF10A904
:1095F0007E48CDE910BBFAF799FE60205023CDE9F3
:109600001E0304231EA9794822934026CDF880B07A
:10961000FDF7B6FB0223032217A97548CDE91763AE
:1096200003931A92FCF796FF7048FAF739FE4FF051
:10963000804C4FF47A626F4E4FF4887EC6E900C2C8
:109640004FF400723046C6E903E2C6F808B0C6E936
:1096500005BBFCF739FE96F83C20012A14D0012105
:10966000039B326886F83C1086F83D30936823F4FB
:109670007F4323F077039360936823F0070393609D
:1096800086F83D1086F83CB04FF0000B5948FCF7C7
:109690004BFF5848FCF748FF17A95648CDE917BBC0
:1096A000FAF744FE60214FF48673CDE91E130423BC
:1096B0001EA950482293CDF880B0FDF761FB96F8C3
:1096C0003C30CDF87CB0012B2CD0012386F83C3007
:1096D000022386F83D3033681A6A22F480521A62F7
:1096E0001A6A5968D86922F4005220F4E64C1E9890
:1096F0004CEA002C209842EA00323F48834202BFE5
:1097000021F48040239940EA81115960C3F81CC0BC
:109710001F9919641A620122364B83F83D200022FA
:1097200083F83C2033683348DA6842F00102DA609B
:109730001A6842F001021A60FAF7B2FD33680F218D
:10974000DA681C2042F01002DA601A6A2B4E22F40A
:1097500080521A621A6A42F480521A62264A93426E
:1097600002BF5A6C42F400425A641A6842F0010285
:109770001A60FAF7ADFD4FF08052214B06211A60B6
:109780004CF6CC4064221F4BB260C6E90031186031
:1097900045F25550186059609A60D9F80010326847
:1097A000D368002B40F09F804AF6AA231360A0E004
:1097B000D9F800309B1A022B7FF6A5ACF3E4D9F858
:1097C00000305B1A022B7FF6B9ACECE4136823F08F
:1097D000070343F002031360136803F00703022B2F
:1097E0007FF4F8ACE6E400BF7411002050130020B1
:1097F0000008014010130020002C0140C41200207A
:1098000000E100E0003000400004004041F28831F7
:10981000636823F0030343F002036360D9F8002078
:10982000636803F00C03082B24D16A4A136803F021
:109830000703022B24D863681EAD43F4E063636022
:10984000636823F460536360634B03F110062A4698
:1098500018685968083303C2B3421546F7D140F27D
:109860000123ADF85C30626802F00C03082B14D0C1
:109870005A4B25E0D9F800309B1A8B42D0D9A9E485
:10988000136823F0070343F002031360136803F027
:109890000703022B7FF49EACCDE72AA9C2F38343D2
:1098A0000B4413F8301CD30315D562684B4BC2F33D
:1098B00040424B432AA90A4412F84C2CB3FBF2F362
:1098C00062684749C2F303128A5CD340454A136079
:1098D000FCF730FD7EE4444B4B43F1E7A36A43F0D1
:1098E0002003A3625AE5D9F800305B1A302B7FF6CB
:1098F00057AF95F82430012B46D001233B4885F81B
:109900002430FCF737F800285FD1AB6A384A23F4DB
:10991000407323F0010343F48073AB622B689342DE
:1099200004D134494A6812F4702F44D1AA6A22F44F
:109930008012AA625A68520541BFAA6A22F44052B4
:1099400042F48052AA62AA6A12F480521CBFEA6AE8
:1099500022F00602EA62002285F824206FF002025B
:109960001A609A6802F46022B2F5602F29D1204A69
:10997000934205D1A2F58062526812F4702F20D173
:109980009A6842F4A0029A6094F82430012B75D0B2
:10999000012384F82430164B1E939B6803F4602344
:1099A000B3F5602F28D0A36A43F02003A3620023FD
:1099B00084F8243062E0AA6A42F48012AA624A68FB
:1099C000B9E79A6842F48012DDE7002385F8243075
:1099D000DAE700BF00200240C0AA000800127A00A7
:1099E00024AB00083400002000093D007411002061
:1099F0000028014000240140B448FBF7BBFF0028C9
:109A0000D5D11EA8FBF7B6FF0028D0D1A26AB04B73
:109A10002168134043F48073A3624B68206A5B059E
:109A200048BFA36AAB4A42BF23F4405343F4805378
:109A3000A3620023E36284F82430A74B4C31836295
:109A4000A64BC362A64B03636FF0020341F84C3C84
:109A500051F8443C43F4807341F8443C4023FBF705
:109A6000FFFE23689A6802F46022B2F5602F9A68BC
:109A70000CBF42F4A00242F480129A6094F82430A1
:109A8000012B02D09148FCF7CBF995F82430012B3B
:109A900002D09448FCF7C4F94AF6AA290024336896
:109AA0000020C3F80090FBF73BFD8F4B8F4A1F60EF
:109AB0008F4B904D1C60904B90491C80904B2846DA
:109AC0001C80904B904F1A600C22904B1A70904B58
:109AD00005F111021C708F4B1A608F4B05F171025A
